:20000000D43F0020E967000001CA011001CA011001CA011001CA011001CA011001CA011035
:1C00200001CA011001CA011001CA011001CA011001CA011001CA01103FCA011082
:20003C00F8B52C480668274900200870002E47D0264ADFF894E0264D4FF0020C01241346CF
:20005C009EF80000012808D1501E0078012804D11878062801D01878B073F779B07BB0B1CA
:20007C00401E11D0401E09D0401E1AD0401E1AD1012F18D0022F16D0B77314E0012F12D0FE
:20009C00032F10D0B7730EE06FB1B7730BE0012F09D0022F07D0032F05D0042F03D0B7739D
:2000BC0001E086F80EC0B07BB84200D02C70F079022802D10878401C08703669002EBFD14F
:2000DC00F8BDC04612370020B8360020A1340020B7360020FC3600200148007808F092BC77
:0400FC00303500207B
:200100003C000000000000000000000034010000000000000000000001000000000000006D
:1C01200000000000000000000000000001000000000000000800000000000000BA
:20013C00340000000000000000000000680100000000000000000000010000000000000005
:14015C00010000000000000000000000080000000000000086
:2001700030000000000000000000000098010000040000000000000001000000FFFFFFFFA5
:10019000FF00000001000000080000000000000057
:2001A0002C0000000000000000000000C4010000040000000000000001000000FFFFFFFF4D
:0C01C000FFFFFFFF08000000000000002F
:2001CC0034050000E401000099A1011095A70110A5C2011009B2011045B80110000000000B
:0801EC00000000002E000000DD
:2001F400280000000000000000000000140200000000000000000000FFFFFFFF00000000B1
:080214000800000000000000DA
:20021C00300500003002000069C201106DC101101FC2011095BA011000000000000000008E
:04023C00300000008E
:20024000300500005402000075C20110A9B601109DBF011049B601100000000000000000DE
:040260003100000069
:200264002400000000000000000000008002000000000000000000000000000008000000CC
:040284000000000076
:20028800240000000000000000000000A40200000000000000000000000000000800000084
:0402A8000000000052
:2002AC00240000000000000000000000C8020000000000000100000000000000080000003B
:0402CC00000000002E
:2002D000000000007435002004000000000000000000000020000000700100003000000080
:2002F0001C020000883500200400000000000000000000000C000000300400001800000097
:20031000400200009435002004000000000000000000000024000000480400001800000016
:20033000000000009C35002004000000000000000000000010000000A00100002C000000DB
:20035000CC010000A435002004000000000000000000000020000000640200002400000019
:20037000FFFFFFFFC43500200400000000000000000000002800000088020000240000007E
:20039000FFFFFFFFD4350020040000000000000000000000580000003C010000340000005B
:2003B000FFFFFFFFDC35002004000000000000000000000010000000600400001800000070
:2003D000FFFFFFFFE43500200400000000000000000000001C000000AC02000024000000E6
:2003F000FFFFFFFFEC35002004000000000000000000000038000000F40100002800000057
:20041000FFFFFFFFF435002004000000000000000000000054000000000100003C000000F2
:1804300018000000000000000000000040040000080000000000000050
:1804480018000000000000000000000058040000080000000000000020
:18046000180000000000000000000000700400000800000000000000F0
:08047800020000005093000097
:0404800004F0CEBAFC
:040484000100000073
:0404880000000C0064
:04048C0000000D005F
:040490003200000036
:040494000200000062
:04049800F439002013
:04049C00000200005A
:0404A0000000000058
:0404A40001CA011078
:0404A8000000000050
:0404AC00000000004C
:0404B0000800000040
:0404B4000000200024
:0404B800883900205F
:0404BC00010000003B
:0404C000AC35002037
:0404C400080000002C
:0404C8000000000030
:0404CC00000000002C
:0404D0000000000028
:0404D4000000000024
:0404D8000000000020
:0404DC00010000001B
:0404E000543A00206A
:0404E400060000000E
:0404E800010000000F
:0404EC00F0380020C4
:0404F0000000000008
:0404F4000000000004
:0404F80000020000FE
:0404FC0000000000FC
:02050000704742
:020502002A00CD
:020504000100F4
:020506002500CE
:020508003000C1
:02050A003100BE
:02050C002E00BF
:02050E000100EA
:0105100001E9
:08051400030000004493000005
:08051C000000000000000000D7
:0405240000000100D2
:0405280000000300CC
:04052C0087C401106F
:04053000380500008A
:040534003805000086
:0405380000000000BF
:04053C00800000003B
:040540008000000037
:0405440000000000B3
:04054800AC350020AE
:04054C000D8A000014
:040550002000000087
:040554000093000010
:04055800E891000026
:04055C000DC30110BA
:0405600077590000C7
:040564008B5F0000A9
:0405680099C801101D
:04056C009BC8011017
:040570000000000087
:040574007E92000073
:0405780030910000BE
:04057C0048910000A2
:0405800018910000CE
:0205840008006D
:0205860009006A
:02058800010070
:02058A0000006F
:01058C00016D
:040590000000000067
:040594000000000063
:04059800000000005F
:04059C00000000005B
:0405A000BD88000012
:0405A400C56B000023
:0405A80015800000BA
:0405AC00F9680000EA
:0405B000F95A0000F4
:0405B4004973000087
:0405B800614D000091
:0405BC00C9840000EE
:0405C000C95C000012
:0405C40011C8011049
:0405C80021C8011035
:0405CC000800000023
:0405D0002400000003
:0405D400180000000B
:0405D80028000000F7
:0405DC0020000000FB
:0405E0003C000000DB
:0405E4000C00000007
:0405E80034000000DB
:2005EC002DE9F04F064640F29421012541F22D00ADF10C0DC4F22231C4F2090040F81D5CB1
:20060C0008680028FCD043F6AC7E46F2440AC020C5F2000EC4F20C0AF4464AF8440CDEF86E
:20062C000890DCF8041046F25620C4F20800890807D271460A686FF00F0E4EEA12410170B7
:20064C0001E07221017041F28C38C5F2000858F8D41CC1F304611629A8BF203962469268F9
:20066C0012175118491C11F10A0FB8BF6FF0090100232C4625EAD96201F01F01C4F2203383
:20068C0041F4F851018324EA996E1A60002EC3F808E073D058F83C1CC1F38360C1F38F2700
:2006AC005FEA994167D249F3072CBCF1000F29D549F307214A42B1F1FF3F4FEA620215DA4D
:2006CC007F0805D1400806BF281C2F1C4FF6FF777F080CF1010C05D1400806BF281C2F1C57
:2006EC004FF6FF77521E0CF1010CE9D1490809D37F0805D1400806BF281C2F1C4FF6FF771E
:20070C000CF1010CBCF1000F35DDBCF1020F4FEA6C020CF001031DDB4FF6FF717F0047F02D
:20072C000107B94207D2400040F001000F2892BF2F1C0F200F1C7F0047F00107B94207D2A1
:20074C00400040F001000F2892BF2F1C0F200F1C521EE3D1002B0EDD7F004FF6FF7147F04A
:20076C000107B94207D2400040F001000F2892BF2F1C0F200F1C47EA004703E040F6FF77EC
:20078C00C0F20F0708F036FA39460022002808BF2A1C48F20007C4F20C0738680028FCD0E9
:2007AC004AF20800C4F20C0001613D600AB108F027FA002E08BFD82109D058F83C1C58F895
:2007CC003C0CC1F3870100F0030041EA002188B2009040F2FF3200232C214AF20000C4F2BB
:2007EC000C0005F0A1FB002E1ABF58F8100CC0F30D0B40F2FF3B08F0FDF90021002808BFA8
:20080C00291C38680028FCD04AF20800C4F20C00C0F814B03D6009B108F0F2F9002E04BF46
:20082C004FF0000BC6F6880B0DD058F818BC0BF07C420BF47C010BF47C4011430BF0FC0BCC
:20084C0008434BEA000B08F0D5F90021002808BF291C38680028FCD04AF20800C4F20C004C
:20086C00C0F80CB03D6009B108F0CAF9002E04BF47F28A6BC0F2680B0DD058F81CBC0BF49E
:20088C007C020BF47C410BF4707011430BF03F0B08434BEA000B08F0ADF90021002808BF61
:2008AC00291C38680028FCD04AF20800C4F20C00C0F808B03D6009B108F0A2F9002E3AD0BB
:2008CC0058F8140C43F6AC71C5F200014B68C0F303525B08C0F3034117D243F6AC73C5F281
:2008EC0000031B6843F3032C12EB0C0203D4102A02DB0F2200E0002243F30333C91803D4B1
:20090C00102902DB0F2100E0002141EA021100F47F4200F0F00E0B0400F00F0B222E42EA0E
:20092C0003024EEA02014BEA010B08D300F0804040EA0B0B03E043F6277BC0F2710B08F07B
:20094C0059F90021002808BF291C38680028FCD04AF20800C4F20C00C0F804B03D6009B187
:20096C0008F04EF9222E26BFD8F80000C0F30070281C4AF2400BC4F20C0B222E4FEA4000A3
:20098C0040F020008BF8090126BFD8F80000C0F34070281C202E40F010008BF809013CBFFC
:2009AC00002001900CD3D8F80C00C20C02F44072800D00F01C0100F003001143084301908C
:2009CC0008F018F9019A0021002808BF291C38680028FCD04AF20800C4F20C0002623D6077
:2009EC0009B108F00DF9202E26BFD8F80C00C0F301500020222E4FEA400040F060008BF824
:200A0C000C0126BFD8F80000C0F3C06100216FF07F00222E40EAC1008BF8010126BFD8F8C0
:200A2C000000C0F3455100214FF60040202ECFF6FF7040EA8100ABF89C0105D248F200003D
:200A4C00C4F23F0001900BE0D8F80C000003820D00F47C11920500F47040114308430190BF
:200A6C0008F0C8F8019A0021002808BF291C38680028FCD04AF20800C4F20C0002603D6029
:200A8C0009B108F0BDF844204FF0880E8BF8C500002E8BF8C7E01ABFD8F80000C0F3C141AC
:200AAC00002140F68406C9F3815041F03001C4F28C3600288BF8C81041D0401E07D0401EBB
:200ACC0037D00420022105F0D9FA00214BE0284607F0FAFA04460420214605F0CFFA042098
:200AEC0007F0F2FA8442FAD143F6AC70C5F2000050F8040C0104090C4AF8081CC0F3074E8A
:200B0C004AF804ECCAF8005031680029FCD0002240F2B411CAF80020C1F2000109680B6864
:200B2C00000E4FF06022072198474FF48060CBF800000420032105F0A1FA002113E00420DD
:200B4C00294605F09BFA43F2BD704AF8080C4FF086094AF8049CCAF8005030680028FCD08A
:200B6C000021CAF8001058F8200C4BF2700342F22C0E41F22D0C47F6180240F29449C4F254
:200B8C000C0300F03F00C4F2090E8BF8CB0FC4F2090C1A80DEF800004AF8441CC4F26029C5
:200BAC004CF81D1C03B0C9F80050BDE8F08F70472DE9F84314460D4601460027DFF870C298
:200BCC00DFF86492DFF864E2DFF86882A1F201301A2803D9B0F580701DD07BE1DFE810F0D7
:200BEC006E0164015C017A012C011B010101E700DC00D100C700BC00B1007A017A01A6008E
:200C0C0099008C00810074007A017A017A017A015D007A012300012D01D0182765E12078AB
:200C2C00A849087061E1012D35D14946087801282FD07146087822780A7088B10E787EB951
:200C4C0060460178032906D00178072903D00078052840F04A814046007807F0EBFE44E148
:200C6C00002840F042810E78002E00F03E8160460178012909D00178042906D001780629A4
:200C8C0003D00078052840F03081012007F0C8FD2BE1122729E1182727E12078012D11D1D4
:200CAC0001280FD1924807F0FDFE48B9384603F095F9071C40F019818E4808F08AF814E121
:200CCC00162712E1182710E12088022D07D10A2805DBB0F5486F02DC8749088005E1182730
:200CEC0003E12088022D05D1B0F5FA7F02DA83490880FAE01827F8E02088022D07D106283B
:200D0C0005DBB0F5486F02DC7D490880EDE01827EBE02088022D07D1062805DBB0F5486F6F
:200D2C0002DC78490880E0E01827DEE0012D06D12078022803DA207873490870D5E018275F
:200D4C00D3E0012D06D12078042803DA20786F490870CAE01827C8E0012D06D12078082808
:200D6C0003DA20786A490870BFE01827BDE0062D01D01827B9E0674821680160A1888180AD
:200D8C00B3E0012D06D12078042803DA207862490870AAE01827A8E0012D06D12078042839
:200DAC0003DC20785D4908709FE018279DE0202D01DB182799E05A4E39461F22304604F0A4
:200DCC00C8F921462A46304603F08CFB55490D70404600780A783346394605F009FC0746A5
:200DEC0083E0202D01DB18277FE04F4E39461F22304604F0AEF921462A46304603F072FBA2
:200E0C004A490D70404600780A783346012105F0EFFB074669E0022D01D0182765E02088FA
:200E2C004349088061E0C046B2370020B33700203C35002030350020012D2BD171460878C1
:200E4C00012825D04946087822780A7068B10E785EB960460178022902D00078052844D1B9
:200E6C004046007807F0E6FD3FE000283DD10E78002E3AD060460178012905D001780429B7
:200E8C0002D00078052830D1012007F0C9FC2CE012272AE0182728E0042D01D0182724E016
:200EAC0020682449086020E0102D01D018271CE021482146102203F015FB16E0102D03D075
:200ECC00182712E0203800201C482146102203F009FB0AE0272901DA022D01D0022704E047
:200EEC000846218806F038FB07463846BDE8F88308330020E43200200C3800200A38002084
:200F0C000838002006380020043800203A35002037350020F6370020383500203935002028
:200F2C00D7370020D6370020B7370020B6370020B4370020F8340020743400206434002058
:200F4C002DE9F84FC64DC74ED5F8EF1FCC4C7368D5F8F30F8843C5F8F30F002BC5F8FF1FD3
:200F6C0000F011817788012B00F0D680DFF8FCB2BF4FDFF800A3DFF80093DFF80083022B74
:200F8C0072D0032B40F06A810024B06855F8312C74600028A2F5C062B8BF404211460029A6
:200FAC00B8BF494288422EDA111C54BF02206FF00100B26900EB4100032190FBF1F1891816
:200FCC00B161F368706998420BD0B1F11002B8BF524230691038B8BF40428242B8BF88B2FC
:200FEC0009DB98B20090A04830214FF47F42082304F09AFF308A00909B4804214FF4F802A3
:20100C00122304F091FF5846046001688908FCD20460012644600E203E6002F053FD50466E
:20102C000468EFF3118584F3118849460820B0FA80F00A1AD07F431E0128D37704D142463B
:20104C00106820F00800106085F31188EFF3118384F311880420B0FA80F0091AC87F421EE5
:20106C000128CA7754D14EE055F8310CB0F5C06F17D00327776002F00DF845F8397C002751
:20108C00276020688008FCD27748394660220523009104F049FF0126266020688008FCD39E
:2010AC0064E0002171605846016002689208FCD20160012641600E203E6002F003FD5046A0
:2010CC000468EFF3118584F3118849460820B0FA80F00A1AD07F431E0128D37704D142469B
:2010EC00106820F00800106085F31188EFF3118384F311880420B0FA80F0091AC87F421E45
:20110C000128CA7704D14246106820F00400106083F31188BDE8F88F55F8312C02214BF2BB
:20112C00F52071605043000A37B95649096821F07F414018400801E0002171806060000CF0
:20114C00A0600126E660032745F8397C0027276020688008FCD24448394660220523009128
:20116C0004F0E2FE266020688008FCD345F8216C45F8397C0820C5F8FF0FC5F8F30F45F87F
:20118C00396CBDE8F88F40480068006801462020884741F61D574FF002080F2045F82D0C2B
:2011AC0000214FF4C072072345F8297C2E48CDF8008004F0B9FE012744F8047C54F8040CDB
:2011CC008008FBD3308845F81D7C012821D0032045F8390C4FF00009C4F8009020688008BC
:2011EC00FCD22148494660220523009104F09CFE276020688008FCD345F8217C45F8399C02
:20120C000820C5F8FF0FC5F8F30F45F8397C474623E04FF00009C4F80C90032045F8390C49
:20122C00C4F8009020688008FCD20F48CDF8008049466022052304F077FE276020688008A3
:20124C00FCD3202045F8210C45F8399C0824C5F8FF4FC5F8F34F45F8397C7760BDE8F88FCC
:20126C0039400C40D03A002000A00C4034600C4004800C40849300005B3500202438002094
:20128C0038600C4010200940A00100102DE9F84F044600263546B44FDFF8D0A2DFF8D09267
:2012AC00DFF8E4B2DFF8E482A078052815DCDFF8E8C2052870D0DFF8EC92002800F00A815C
:2012CC00401E00F02F81DFF8D8E2401E00F0D880401E012840F29B8025E1801F2DD0401EF9
:2012EC0006D0801F00F01E81801E00F016811AE19C4807F06EFD6378002B40F01481E08845
:20130C00394608802089AAF800006089A9F80000984807F0C7FB002840F005819648076821
:20132C00002F00F00081006851464A4603688E480988128800889847F5E0A08806F0E8FCC8
:20134C008E483146062203F004FF3D80304651460880494608808A49A0790870854807F085
:20136C0038FD804807F035FD012686484FF6FF7101805A46107858B9A079082801D1052097
:20138C0000E0042041460870304607F049FACAE0032041460870C6E0667856BB201D774930
:2013AC0002680A6080888880764861890180062041460870E0893880208A51460880608A1B
:2013CC00494608807249E078087072480078012808D11F2005F08AFC4FF47A714143654812
:2013EC0006F0BEF9E0786289211D042305F004FB0BE06078312803D008204146087004E09E
:20140C0061460D7004204146087001268BE06778002F30D1A07803281FD06048078847B96F
:20142C0061460878012802D05A4615700BE00D7009E05A466146177809780F4303D0018803
:20144C00704606F08DF941460878072801D1062200E004224046027010E0414608780628FB
:20146C0001D1072005E0604607780FB1022000E00320087002E0082041460870012652E09E
:20148C00677807BBE778AFB94146087802281AD00A78072A17D00878062803D1584600788B
:2014AC00012810D1704607F0FDFA60B9012007F0B7F908E03C4948463C4B0A78007831469E
:2014CC0005F096F86070607868B3082041460870012628E06078C8B9354A0220102105F044
:2014EC00D9FE344A0320102105F0D4FEE01C324902680A608088888040460121017048466E
:20150C002E4A2F4B0078127805F072F810B10820414608700126354605E0A088052107F0B8
:20152C0039FB00E00125274F012E0AD13946086838B10868006820B1086841460268087883
:20154C009047012D05D13946086810B10868406808B9012003E00868416820468847BDE824
:20156C00F88FC046083300200E3800201038002012380020E43200201C380020FE37002040
:20158C0015380020FC370020B33700203C3500201438002004380020B2370020B437002008
:2015AC00C032002030350020D6370020D73700206434002074340020D0340020B63700207C
:2015CC00B7370020183800202DE9F043ADF1240D03F084FCAF48B04903F0D4F9AC490860E9
:2015EC00AE4807F001FBAE4FAE4D3846294606F0CDFAAE4807F090FAAB490860DFF8B48274
:20160C00AB48002404264FF4FA62234600944146019604F005FC009480200190A6480A22EF
:20162C002346414604F0FCFB00944FF480700190A24841F270722346414604F0F1FB009408
:20164C004FF4805001909E4840F26E222346414604F0E6FB4FF4804000949B4A019099487F
:20166C002346414604F0DCFB4FF400400094984A019096482346414604F0D2FB04F076F927
:20168C001F20314605F068FF8DF80940A146ADF80A9001248DF80C40A520ADF80E00ADF825
:2016AC001000ADF812909620ADF814000DF1090240F205302146FFF77BFA40F2063002218B
:2016CC000DF10A02FFF774FA824A4FF442703146FFF76EFA804A40F207300B21FFF768FA43
:2016EC004FF4447003AA2146FFF762FA40F2113002210DF10E02FFF75BFA40F212300221FB
:20170C0004AAFFF755FA40F2133002210DF11202FFF74EFA4FF44570022105AAFFF748FAE0
:20172C006E4A4846152107F027F84FF47A780A20414605F011FF0B20414605F00DFF4FF42A
:20174C0016780820414605F007FF0920414605F003FF0620414605F0FFFE0720414605F05C
:20176C00FBFECDF81890A0468DF81C808DF81D9003248DF81E408DF81F804FF481603146F5
:20178C0006AA05F01BFC4FF4806007AA414605F015FC40F202400DF11D02414605F00EFC09
:2017AC0040F203400DF11E02414605F007FC40F2064041460DF11F0205F000FC05F0A4FB68
:2017CC00484606F0F9FB06F00FF907F037FA07F0FBFA4FF0FF3007F095FA4FF0FF3007F01A
:2017EC00B1FA4FF0FF3004F0BBFE3C208DF80800414602AA40F20140FFF7DAF902204FF45A
:20180C00FA6105F0A9FE20464FF4FA6105F0A4FE1020A02105F0A0FE1220A02105F09CFE24
:20182C000C20A02105F098FE1120A02105F094FE1320A02105F090FE0D20A02105F08CFEC7
:20184C002320494605F088FE254807F06BF8254806F044FD244806F06FFA3C46207807F0E8
:20186C0049FA207807F04AFA072006F0AFFE1F4807F084F904F028FF1D49487840F04000F0
:20188C004870286807F09CFB09B0BDE8F083C046FC340020AC340020E83600201C3700208E
:2018AC003235002024350020F034002094340020543200206D8700000C3200209C3200200A
:2018CC00783200202C330020005C2605E831002080EE3600C5360020BA360020C936002005
:2018EC002837002014370020203700202C3700202C3500202DE9F04F5FEA0009ADF11C0D09
:20190C0000F05581AC480068EFF3118280F31188DFF8C8B29BF80400012818BF012003D13B
:20192C00022100208BF8041082F31188012800F03C8107F041FB0390A948046804EB0B00C0
:20194C0007F036FB4FF00008464637460BEB0401CDF810800191B0B90C46084607F024FB02
:20196C000546A868400808D3E8682969024601209047C0B2002840F01081284607F010FBF0
:20198C000546AC42EDD1002F40F00B8107F004FB0290059789480760012006F095FB01282D
:2019AC0004D1404605F0C8F84FF00108844F38688068014630468847864819300090D0F86D
:2019CC00FF0FB9F1000F00F08C80864C0A34E57905B10126A5790DB146F0020665790DB137
:2019EC0046F00406DFF8DC9165782DB1B86A006B49460246C88D904725782DB1B86A006B04
:201A0C0049460246488D90476F4901200860B86A8069014646F0200088476C4DDBF80010E3
:201A2C00286840F001002860480813D2684807F06CF88246BAF1040FF8D0D5F8180220F0CC
:201A4C000300C5F81802B86C4068024660480321904701E001200490059800F079FCB86A2F
:201A6C000099806BD1F8FF1F8047049858B9B86C40680246564851469047D5F8180240F044
:201A8C000300C5F8180238688068014601208847504801688909FCD3B8F1010F02D1012092
:201AAC0005F04AF8B86A4069014630468847B86A406B0146304688470128F8D166782EB184
:201ACC00B86AC06A49460246C88D904726782EB1B86AC06A49460246488D90473A490120BB
:201AEC0008603A480168032221F00101016001988BF8042007F05CFA0028059818BF0120A4
:201B0C000125C0B9019C204607F04EFA0646B068C00806D3F0683169024604209047C0B22C
:201B2C0030B9304607F03CFA0646B442EFD102E02948006880472148009F0560D7F8FF0F3F
:201B4C0007F05EF8019807F033FA059FC8B9019C204607F029FA0646B068000906D3F0688F
:201B6C003169024608209047C0B230B9304607F017FA0646B442EFD103E01748006880472C
:201B8C00022702988BF8045007F002FA03F0BCFE039807F0F9F938460AE00F48006880478D
:201BAC00022701208BF80400F2E7062000E0022007B0BDE8F08FC046849300000C400940BA
:201BCC0090010010CC900000282008600C2008400040034014100940789300002438002061
:201BEC0074930000483500202DE9F0411C4615468C4208BF854282BF00230022E5E0002C5E
:201C0C0008BF002D0AD100290EBF00286FF000006FF0000100F0E1F8BDE8F0815FF00008D6
:201C2C005FF0000E002C08BF8D429CBF2C1C0025070C47EA01470E0CB44208BFBD429EBFF2
:201C4C005FEA044444EA15445FEA0545070A47EA01670E0AB44208BFBD429EBF5FEA042481
:201C6C0044EA15645FEA0525470847EAC1774E08B44208BFBD4200F29380870847EA8177B7
:201C8C008E08B44208BFBD427CD8C70847EA4177CE08B44208BFBD4266D8070947EA017751
:201CAC000E09B44208BFBD4250D8470947EAC1674E09B44208BFBD423AD8870947EA8167A6
:201CCC008E09B44208BFBD4224D8C70947EA4167CE09B44208BFBD420DD8E60146EA5566B6
:201CEC00EF01B14208BFB84201D3C01BB14158EB08085EEB0E0EA60146EA95664FEA851734
:201D0C00B14208BFB84201D3C01BB14158EB08084EEB0E0E660146EAD5666F01B14208BFBE
:201D2C00B84201D3C01BB14158EB08084EEB0E0E260146EA15762F01B14208BFB84201D3BA
:201D4C00C01BB14158EB08085EEB0E0EE60046EA5576EF00B14208BFB84201D3C01BB141CD
:201D6C0058EB08084EEB0E0EA60046EA9576AF00B14208BFB84201D3C01BB14158EB080877
:201D8C004EEB0E0E660046EAD5766F00B14208BFB84201D3C01BB14158EB08085EEB0E0E85
:201DAC00A14208BFA84201D3401BA14158EB08085EEB0E0EA34208BFAA423EBF2D0A45EABF
:201DCC000465240A89D3734642461E4617460B46024631463846BDE8F081704738B50C4668
:201DEC000025584AA0F540711D2905D9B1F580711FD0491E19D010E0DFE801F09D97918DD6
:201E0C0087837F78716D69635F5B570F534F4B47433D3935310F2D292521272801DB02259B
:201E2C008CE004F063FF208088E045480078207084E01046016821608088A0807EE0424883
:201E4C00007820707AE041480078207076E040480078207072E03F48007820706EE03E48E8
:201E6C00008820806AE03D480088208066E03C480088208062E03B48016821608088A0806E
:201E8C005CE039480088208058E038480088208054E037480088208050E0364800882080C0
:201EAC004CE035480078208048E034480088208044E033480078207040E032480078207040
:201ECC003CE03148016821608088A08036E02F480078207032E02E48007820702EE02D4AA5
:201EEC002D491278204602F0FDFA27E02B4A2C491278204602F0F6FA20E02A48008820802A
:201F0C001CE029480078207018E01046016821608088A08012E02548006820600EE024493E
:201F2C002046102202F0DEFA08E022492046102202F0D8FA02E0204800782070284638BDCF
:201F4C0020380020D03400201538002014380020B33700203C350020123800201038002093
:201F6C000E380020FE3700200C3800200A380020083800200638002004380020FC37002067
:201F8C003A35002037350020F63700203835002039350020D6370020D7370020B63700204A
:201FAC00B7370020B4370020B2370020F834002074340020643400203B3500202DE9704FC2
:201FCC00ADF1180D6B49DFF8A8A1401E00F09E80DFF8A491694E801E48D0DFF8A4B1DFF876
:201FEC00A481401E24D0401E04D0401E68D0401E60D0B9E000245046047017220846027048
:20200C004D46287810B1FEF76FF82C7040F207300B213246FEF7CCFD5846414600680978EF
:20202C004088224606F0ACF8142005F0ADFC9BE00024504604701722084602704D46287823
:20204C0010B1FEF751F82C7040F207300B213246FEF7AEFD142005F097FC584641460068E3
:20206C0009784088224606F08BF87DE000248DF8004040F21B3001216A46FEF799FD4D4677
:20208C00287810B1FEF730F82C7040F207300B213246FEF78DFD3C48007838B101218DF802
:2020AC00001040F205306A46FEF782FD142005F06BFC59E041460878202106F04FF853E0F8
:2020CC00324E00243480032021460A4605F014FC012548460570414630880978082206F0B4
:2020EC004FF8504605708DF801400DF1010240F205302946FEF75CFD29468DF8011040F260
:20210C001B300DF10102FEF753FD2DE00024504604701722084602700DF102014FF44170F9
:20212C00FFF75CFE9DF802008DF80A009DF803008DF80B009DF804008DF80C0020468DF8E0
:20214C000E008DF80D009DF807108DF811109DF806108DF810109DF805108DF80F100DF1E5
:20216C000A02082100F062FB06B0BDE8708FC046B03600200C3700200E370020BA36002093
:20218C00E036002032350020B9360020103700202DE9F04FADF15C0D0546002605F0A7F99E
:2021AC00012805D106F0D0FA022801D146F00106594800F10C010968C1F38151012904D186
:2021CC000068010E012088400643544800785548534F0068C0F34600386005F088F901285F
:2021EC0002D13868401C3860384602684E490024A24205D9FF230B550268641CA242FAD8E5
:20220C0000270122824689463C4690461FE055F82400DAF8001000F0FF00814207D955F848
:20222C00240000F0FF0002FA00F0064201D002206EE055F8240000F0FF0008FA00F007436E
:20224C0055F8240000F0FF0009F80040641C55F8240000F0FF00FF28D9D1092001F05EFBAD
:20226C003248056000212422082301A806F088FE8DF81C802E48414601AA06F07DFE5046EC
:20228C0001680024A14228D9DFF8AC90A34608FA04F0304219D127484146A140394206D14A
:2022AC0004F0FF0141F4C04101F0ECFD05E01E49095D55F8211001F0E5FDE0B24FF0FF310A
:2022CC0006F0A0F949F824B002E0042049F82400DAF80000641CA042D9D80AA800213022D9
:2022EC00082306F045FE002410210AAB1348144A009406F039FE1349086820F4F85040F48E
:20230C000050086010494046086010490860204617B0BDE8F08FC046A83F005036350020D8
:20232C00EC34002080120840503300201C350020EC330020007FC767482F0020D0330020BD
:20234C00F5630000003009400C40094008000940F8B504460020C4F209000068800880F084
:20236C00BB8005F0D0FB42F22421C4F208010A68002112F0030F18BF0121D20828BF41F08C
:20238C000201002C18BF41F0040143F2E046C2F2000696F90720821A052A04DAB2798A428A
:2023AC0008BFB2886FD041F29C340F28A0F10F02C5F2000424DB02EB02121712072F88BF94
:2023CC0007273D46062D88BF062554F825C00423A64603EB85035EF80330CD08A3EB0C03E6
:2023EC0003F0FF0C24BFC3F30725AC448D0824BFC3F30745AC444D0805D30CEB136C02E02F
:20240C004FF0000C674654F82730CC0803F0FF0524BFC3F3072425448C0824BFC3F30744A5
:20242C0025444C0828BF05EB1365A2EB07221FFA8CF3534380330022082B88BF012243F6F5
:20244C00B473C5F200031C681B684FF4D07C34275219241703F0FF0307FB14C45C434FF645
:20246C00FF73B4FBF2F2934238BF1A1C802892B2B28005DA10F1800F03DA6FF07F0000E021
:20248C007F20F071B17142F20800C4F2090001681F2A4FF00000316008D340F2FF119142A1
:2024AC0006D25208401C9142FBD301E01F22B2800F3A4FF600714FF0350E1209C8F2A40192
:2024CC00C4F2090E40EAC2000143CEF8FB1F4FF0000CCEF8FFCFF8BD43F2E6424FF6FD5090
:2024EC00082141F2300EC2F20002C0F2A4001170C4F2090ECEF80000F8BD7047B0B5ADF1A7
:20250C00180D014600204D688C682A7B5D49012A2BD0227C41EA02034DF82030421C5A4BA3
:20252C00607C0343501C4DF822302F7E574A37F0010706D1A37C19430346581C4DF8231066
:20254C0006E0A37C114619430346581C4DF8231095F85910FF2920D095F8593011460246BF
:20256C00501C19434DF8221017E0227C431C42F000424DF82020607C0143581C4DF8231017
:20258C00A27C411C42F000424DF82020404A95F859000243481C4DF82120FF214DF8201087
:2025AC0005F15C00694602F0EDF9A86608B9002065E0297B374850F82100012831D02068C4
:2025CC00B0F1804F01D10A2200E02222A86E217C05F034FB2068B0F1804F01D1092200E0B1
:2025EC002122A86E617C05F029FB2068B0F1804F01D10C2200E02422A86EA17C05F01EFB21
:20260C0095F85900FF2839D02068B0F1804F01D10B2200E02322A86E95F8591005F00EFB72
:20262C002CE02068B0F1804F01D1092200E02122A86E217C05F002FB2068B0F1804F01D1FB
:20264C000A2200E02222A86E617C05F0F7FA2068B0F1804F01D10C2200E02422A86EA17CF4
:20266C0005F0ECFA2068B0F1804F01D10B2200E02322A86E95F8591005F0E0FA012006B0A5
:20268C00B0BDC046000480A0004000800004C0A000200080949000002DE9FE4FFEF794FFC4
:2026AC005B4CA246A146D046564655464FF0FF3005F0B4FE002843D100200190694601AAEF
:2026CC000DF1020004F0B0FF002833D14FF0010BBDF8020010281AD14B48BDF8001000881A
:2026EC00884214D1019F38884FF6FF7181420AD17888000901D304F00BF87888800906D336
:20270C0005F0BCFD03E0384605F0E8FE8346019880B1BBF1000F0DD005F020FE0AE03B4818
:20272C00006805F008FF071C04D004F093FB384605F0E4FD3548006806F03AFC0028EED065
:20274C0050460078C0080FD3207800F0FB00207030480078012802D12F4806F038FB2F489F
:20276C0007780FB1FDF786FE207830F07F0011D09AF8000000F07F008AF800002848006823
:20278C000A21002204F0C2FC254800680F21002204F0BCFCBAF80000400B07D399F80100F2
:2027AC0000F0EF0089F8010003F0EAFBB9F80000400A08D398F8010000F0FE0088F80100FE
:2027CC00184900200870B8F80000800B06D3707800F0DF00707014490020087037886FF333
:2027EC000E072FB1687800F07F00687005F066FD50460088C00BFFF459AF687800F0BF00E6
:20280C00687001F0BDFE51E732350020F03400202C350020B936002054320020B0360020E9
:20282C00FC340020B83600200F3700202DE9F04190460E460025082800F29380DFE800F046
:20284C00877767574737270F05C0072E01D0182588E046481146324601F044FE82E0304624
:20286C0005F01EFB071C10D0414C42492068814202D0206805F052FD38464146324601F0CC
:20288C0031FE27603C4806706CE013256AE0142E01DD182566E0394C29461522204602F088
:2028AC0058FC41463246204601F01CFE5AE0142E01DD182556E0324C29461522204602F0FF
:2028CC0048FC41463246204601F00CFE4AE0142E01DD182546E02B4C29461522204602F026
:2028EC0038FC41463246204601F0FCFD3AE0142E01DD182536E0244C29461522204602F04E
:20290C0028FC41463246204601F0ECFD2AE0142E01DD182526E01D4C29461522204602F074
:20292C0018FC41463246204601F0DCFD1AE0142E01DD182516E0164C29461522204602F09B
:20294C0008FC41463246204601F0CCFD0AE0082E01D0182506E00F481146324601F0C2FD5E
:20296C0000E002252846BDE8F081C046A6360020A036002092360020A43600207C36002014
:20298C0066360020503600203A360020243600200E360020053600202DE9F04FADF1140DEC
:2029AC0000F0FAFBDFF82481DFF824A1DFF818B1DFF828914A4E454644464FF0FF3005F0CE
:2029CC004DFD00282AD100200190694601AA0DF1020004F043FE08BB0127BDF80200102864
:2029EC0017D1BBF80000BDF80010884211D1019801884FF6FF728A4208D14088C00B08D3D4
:202A0C00384A0420014604F045FC02E003F034FA0746019810B10FB105F0D0FC98F80000CD
:202A2C0040083BD3287800F0FE00287029489AF800700078074331D09AF800707FB92A482C
:202A4C0000788DF80800294800788DF8090022490A680DF10A0002608988818002E0032090
:202A6C008DF80800224800788DF81000214800788DF811009BF8000002A906F085F868B105
:202A8C00082089F80000376847B1306807682FB130460068016899F8000088472878800834
:202AAC0006D3207800F0FD002070002001F096FA40460078C00880D3207800F0FB0020704F
:202ACC0003F0AEFE79E7C04630350020B0370020B3370020B2370020F63700203C35002068
:202AEC0018380020F83400203935002038350020373500203A350020F8B506467468B568E6
:202B0C00514800684168286888472A680121C2F81C18A8B1227AFF2A12D0FF212172400902
:202B2C000AD228680421C0F80418022006F013F9304603F079FA86E0304603F075FA82E084
:202B4C00207A00287CD0401E2DD0401E02D0FD3879D072E02868D0F80828206F0270206FE8
:202B6C00401C2067606F401E6067676F8FB1606F012806D82868C0F80418022006F0EBF827
:202B8C0061E028680921C0F80418022006F0E3F859E00020207228680421C0F804180220D1
:202BAC0006F0D9F84FE0E06E401EE066E76E37BB606FD0B102202072616E2A68097C4900A7
:202BCC0041F00101C2F80018616F012906D829680322C1F8042806F0BEF834E029680B22F3
:202BEC00C1F8042806F0B7F82DE00020207228680421C0F80418022006F0ADF823E0A06E29
:202C0C002A680078C2F80808A06E401CA066E06E02280BD2676F4FB90020207228680521C9
:202C2C00C0F80418022006F096F80CE02868C0F80418022006F08FF805E0FF20207202E0A7
:202C4C00304603F0F1F9F8BDAC0100102DE9F043ADF1540D0F4604466568A66806F080F972
:202C6C0095F8A410012903D106F076F9002076E04FF0010985F8A49006F06EF91FB90DA84A
:202C8C0005F08CFE0DAF002068653969296179696961397E2976397B297339782970796857
:202CAC006960804685F8708001467869092800D3494685F85810707900F030FE204602F00D
:202CCC00A1FFF07C85F859002046FFF717FC50B9707900F0F7FE06F043F985F8A48006F0F7
:202CEC003BF940463BE001A841463022082306F03FF90694CDF800801A4A317905F11C0019
:202D0C0001AB06F031F9287880B901A841462422082306F035F98DF81C9005F13800414657
:202D2C0001AA06F029F91048A86001E0B868A86003F04AF8E866287B012806D1A86E0B49CB
:202D4C0005F064FFA86E00B18460094ACDF8008005F190002346042104F08EFE204615B00D
:202D6C00BDE8F083952E0000298D000051710000558C0000F0B5ADF1240D0C2007218DF8C6
:202D8C00001009218DF8011037490A788DF802204A1C12788DF803208A1C12788DF804203D
:202DAC00CA1C12788DF805200A1D12788DF80620491D09788DF80710FF218DF809100D2122
:202DCC008DF80A1000218DF80B10284A1778D7B1274A127800EB0D010A70401CC0B2254954
:202DEC000F787F1E08D07F1E2CD1096800EB0D021160001DC0B225E0098800EB0D021180A5
:202E0C00801CC0B21EE01C4C27681E4D15E07FB1BE795EB1BB1D1B7800EB0D021370401C89
:202E2C00C2B2BB7B501CC0B20DF802303F6900E02F682268BA4200D101211D2801DA0029E6
:202E4C00E5D02760411CCAB20C4909780DF80010A2F109008DF80800094800786B460121A1
:202E6C0003F0C6FB09B0F0BDBC360020B8360020F9360020A034002004370020F836002020
:202E8C0032350020FC3600202DE9F04707467E68B9680868C0690A681062400846D2F06E71
:202EAC00CA6840680068D0F8040502420AD00A68506A20F002005062F26EC8685268126821
:202ECC00C2F80405F06E8A6840680068D0F80405024257D00A68506A20F001005062F26E38
:202EEC00886851680968C1F80405706D00240474D6F85480706DD0F804A006F031F88146A0
:202F0C00214D287848B11AF0704F02D1102004F019F8042004F016F82C70484606F01CF873
:202F2C007465B2683846414690472BE00A68506920F001005061756D0DBB0A68506820F0DA
:202F4C00020050600A68506A20F0030050628B68C868F26E184352681268C2F8040508687D
:202F6C00B0F1804F02D14FF4807001E040F20110064909688847384602F044FE02E038460A
:202F8C0000F006F8BDE8F08741350020780000102DE9F04707467D68BE6805F0E1FF696DAD
:202FAC0000296AD005F0D8FF3168486820F0020048603168486A20F003004862B268F06859
:202FCC00E96E104349680968C1F804053168486920F00100486130684FF00108C0F820801B
:202FEC003068B0F1804F02D14FF4807001E040F20110244909688847384602F003FE686DA0
:20300C00D0F804A005F0ACFF81461F4C207850B11AF0704F02D1102003F094FF042003F064
:20302C0091FF00202070484605F096FF686D007C042802D0686D03210174E96EB268F068A6
:20304C00104349680A6841468140D1623068B0F1804F01D10D4800E00D4880688104686DCD
:20306C000068A0EB9150696D401E0860696D00206865AA683846904701E005F06DFFBDE8C3
:20308C00F087C046780000104135002030040020000500202DE9F843804605F0ABFD00213B
:2030AC0000B901213A4D2D1F28680028FCD0DFF8DC90012609F10407FC6A2E6009B105F0C0
:2030CC009FFD3448C4F3072100F10804616005F091FD0146002001B9304601462868002816
:2030EC00FCD03F682E6009B105F08AFDC7F38441A8F5C060A160B8F5C06F2060B4BF6FF022
:20310C0001030223626803EB4003032093FBF0F00918104602290FDB1E290BDB3F28B9BF56
:20312C00521C401C3F22101CE2603029B4BF10391F210DE0E0600BE010F13F0FACBF401E65
:20314C006FF03F00E06011F1100FACBF10310021216180B24FF47F42082330210090484645
:20316C0002F0E2FE0096484604214FF40032112302F0DAFE208A04214FF4F80212230090E4
:20318C00484602F0D1FEBDE8F883C04600A00C4004800C40D03A00202DE9FC413A482C497E
:2031AC0004F020FD39480024047039484FF6FF71018004F037F82749087001200094274FEC
:2031CC000190254822461346394602F029FE022622462348009439461346019602F020FE7E
:2031EC00204825462A463946009504241346019402F016FE1C4906200870DFF87080102254
:20320C002946404601F0A5FF194F10222946384601F09FFF2846174D286017490870174970
:20322C000870174A072111701649087010214246304604F013F8032010213A4604F00EF82D
:20324C0020462A46014604F009F8BDE8FC81C046203500203F350020C03200202D88000058
:20326C00E4320020083300203B3500206434002074340020F834002039350020383500203A
:20328C00373500203A350020303500203C350020FC37002081F000412DE9FC414FEA01243B
:2032AC004FEA41052D0E04D1002C18BF0020BDE8FC8144F00044FF2D5ED04FEA9404002962
:2032CC0048BF64424FEA00224FEA40031B0E05D1002A14BF0020081CBDE8FC8142F0004288
:2032EC00FF2B4AD04FEA9202002848BF52425E1B41BF171C221C3C1C764248BF2B1C192E5F
:20330C0047BF44FA06F73A444FF0000803E0C6F11C0704FA07F8002A04BF0020BDE8FC81B2
:20332C0046BF524201270027A3F101035200FBD512F080040DD002F0200548EA0508803274
:20334C0028BF5B1C02F0400458EA040808BF22F480729B1CDCBF0020BDE8FC81FF2B0ED212
:20336C0022F0FF024FEA42024FEA522040EAC35040EAC770BDE8FC8108464FEAD0774FEA3F
:20338C00C777FF204FEAC0503843BDE8FC81FEE738482DE9FC4700680068014620208847FA
:2033AC00354DDFF8D8A04FF002080F2000214FF4C072072345F82D0C41F61D5045F8290C6C
:2033CC005046CDF8008002F0AFFD2D4C012644F8046C54F8040C8008FBD3DFF8A890B9F8AA
:2033EC00000045F81D6C01281FD0032045F8390C0027276020688008FCD23946504660221B
:20340C000523009102F090FD266020688008FCD345F8216C45F8397C0820C5F8FF0FC5F897
:20342C00F30F45F8396C464620E00027E760032045F8390C276020688008FCD2CDF8008053
:20344C00504639466022052302F06EFD266020688008FCD3202045F8210C45F8397C082417
:20346C00C5F8FF4FC5F8F34F45F8396CC9F80460BDE8FC87A001001039400C4000A00C40A5
:20348C0038600C40D03A00202DE9F043ADF11C0D054605F05DFD02F0E3FE07464FF0000900
:2034AC00CDF800904C4605F0D5FB30F0010002D16FF004005FE017B96FF004005BE0686880
:2034CC0070B16868B0F1FF3F06D0686801A904F043FA061C06D04EE04FF0FF30019001E089
:2034EC00CDF80490012605F02FFD019901EB000800E001937868019905F022FD00282ED069
:20350C0003A804F0C5F8D8B9BDF8100002A903F047FC88B9AB68BDF80800BDF81210059A85
:20352C00984748B1BDF80800A881BDF81200E881059828614E4612E00599684604F091F91B
:20354C00641C0198B0F1FF3FD4D00028D2D005F0FBFCB8EB000302D001989842C9D20099EE
:20356C0007F1080004F095FB24B1786805F028FD641EFAD1304607B0BDE8F083B0B5ADF157
:20358C00700D002862D0401E64D10120694603F0C9FF0024612C5DDA04EB0D0109781AA802
:2035AC0001702D4901221AA804F0F2FF002851D02D491AA8012204F0EBFF78BB274D012004
:2035CC00287004EB0D004778254841F2707104F0C7F824493846401E1AD0401E04D0FD38BE
:2035EC0038D10020287035E004EB0D00401C0068086004EB0D00817804EB0D00C0786C44E8
:20360C0000EB0121207900EB012001F003FF21E004EB0D00401C008808801BE01AA804F0DF
:20362C0053F970B104EB0D02C1795278914208D004EB0D014978062903D004EB0D014978E6
:20364C008173A41CE4B2612CA6DB03E00020694603F068FF1CB0B0BDFA360020B836002063
:20366C009C320020A0340020F9360020F8B505F0C1FA314C256805F00C000C2855D0E8085C
:20368C002ED22E480068EFF3118780F311882C4EB068002105F050FC7169B269091A8A42E2
:2036AC0038BF002187F3118826480068884217D22548264A264D036812682868B3FBF2F2F3
:2036CC002018891A05F034FC2868201805F02CFC0120FEF70FF92868201805F021FC25E0FC
:2036EC00280922D21B48690939BF016821F00101016841F0010102460160D2F898004FF06A
:20370C00805440F00300C2F89800D4F8B8018069014620208847D4F8B8010F4C806B21682C
:20372C00804701202060206800E030BF05F068FA02F020F8F8BDC04624380020849300000F
:20374C00780100207C93000080930000889300006C9300008C2108402C200940F8B54668A3
:20376C008568088896F85820904080B22A68B2F1804F01D12B4C00E02B4C8F68DFF8ACC0DA
:20378C0047B996F858205CF82220A26006F17202626009E096F85820254B53F82220A26064
:2037AC008A688218521E62602A68083222600A68A7681301103B43F6F07213403B43A360A2
:2037CC002B68B3F1804F01D11A4C00E01A4C4F683FB996F858005CF82000A060A81D20600B
:2037EC0009E096F85830154F57F82330A3604B68C018401E20602868083060600868000153
:20380C0010380240A0680243A260F16EAA68E86810434968096888622968486A40F003002D
:20382C004862F8BD3004002000050020C4900000BC9000004004002010050020B490000027
:20384C002DE9F041ADF1480D0F4605466C68AE6805F086FB94F89810012903D105F07CFB84
:20386C00002051E04FF0010884F8988005F074FB1FB90DA805F0F6F80DAFF968284600F0C0
:20388C00CBFE08B100203FE03878207078686060387AE06000213022082301A805F068FBEA
:2038AC000695002700971A4A716804F1100001AB05F05AFB01A824220823394605F060FB82
:2038CC0041468DF81C1004F12C0001AA05F054FB207838B904F14800394601AA05F04CFB68
:2038EC000C4860602772A767E767307A00F016F8284602F03DFC084A009704F184002B469F
:20390C00042104F0B9F8284612B0BDE8F081C046052B0000218D0000C18A00002DE9F04115
:20392C0005462E480068EFF3118880F311882C4A505D411C0028515549D12A4CA900675C81
:20394C0007F03F003F280C4401D0FFF7E7FF607800F03F003F2801D0FFF7E0FF668837F098
:20396C007F0019D1F80911D24FF08054D4F8B801406901463046884704F5DC742068406BA5
:20398C000146304688470128F8D120E0164850F82610012088471AE04FF08054D4F8B8013F
:2039AC00C069014630468847D4F8B801406A014630468847D4F8B801C06A01463046884750
:2039CC0001210A4A0A48116001688908FCD388F31188284604F004FBBDE8F0818493000037
:2039EC0048350020CC9000006035002028200860282008402DE9F0470E46074600247D68D6
:203A0C00D7F808907168F068084301D1204654E0287801280ED105F0A3FAA96F31B1E96FBF
:203A2C008E61EE6705F098FA012046E0AE67EE6705F092FA05F094FA8246DFF8848098F8C7
:203A4C000000012805D0042003F05CFC012041460870504605F080FA05F12C004FF0FF3137
:203A6C0005F06EFAD9F8040005F056FA3846314601F0B4F9D9F8040005F04AFA2878B0B919
:203A8C0005F148004FF0FF3105F05AFA05F068FA07464646307818B1042003F053FA34707B
:203AAC00384605F059FA287A10B9012400E0012405F12C0005F084FA2046BDE8F087C04682
:203ACC003D3500202D492DE9F0410968EFF3118881F311882A4B195C4A1E01291A5449D18E
:203AEC002849800045180E5C6F8836F07F0019D1F00911D24FF08054D4F8B80180690146D8
:203B0C003846884704F5DC742068406B0146384688470228F8D120E01D4850F82710002045
:203B2C0088471AE04FF08054D4F8B801006A014638468847D4F8B801806A01463846884717
:203B4C00D4F8B801006B01463846884701210E4A0E48116001688908FCD306F03F003F282F
:203B6C0001D0FFF7AFFF687800F03F003F2801D0FFF7A8FF88F31188BDE8F081849300009F
:203B8C0048350020CC9000002820086028200840603500202DE9F8432C4D2878C01E80B2B1
:203BAC0004F056F90746002188468E46284B1E68DFF8A0901FB1DFF8A0C0012426E04D46E1
:203BCC0028680A21012203F0A1FA28680F21012203F09CFA38E09EB1727B7AB9B21D127821
:203BEC00C8190270491CC9B2F279481CC0B27A54327B411C3A54C9B27473A646366901E011
:203C0C00DCF800601868B04200D1A0462878401F884202DDB8F1000FDDD01E60BEF1000FF2
:203C2C000FD000203A4601F0BDFB50B14D4628680A21224603F06AFA28680F21224603F027
:203C4C0065FA384604F05AFBBDE8F8830C37002008370020FC340020FC3600202DE9F8435D
:203C6C000C4606467568B768206808B9002051E005F076F9696D29B105F06EF903202074DD
:203C8C00002047E04FF0010884F810806C6505F063F995F8700030B195F859201E49A86EFA
:203CAC00114303F017FA3968486840F00200486030462146FFF752FD3968486940F00100D0
:203CCC004861676805F04CF98146144C207801280AD017F0704F02D1102003F013FB042076
:203CEC0003F010FB40462070484605F035F9287828B905F13800696805F022F908B1404624
:203D0C0008E03046FFF744F905F13800002105F017F90020BDE8F883000006804135002056
:203D2C0041F21C3010B5C5F200000468B4F1FF3F08BF002404F03CFE40F2844346F25C0186
:203D4C00002242F2082E012040F2801CC4F26023C4F20C011A60C4F2043E0860C4F2283CEC
:203D6C00CEF80000DCF8000038B140F20010C4F2203000682046FCF733FC44F20402C4F28A
:203D8C0003021068052142F24803C2F20001C4F2030320F003000143116019684FF0000EEE
:203DAC00C0F2391E6FF35B414EEA01000421C4F2090118600868C0F30130012809D10A6891
:203DCC004FF6FF70CFF6FC40104040F400320A60086010BD29482DE9F84FD0F80090EFF3C5
:203DEC00118589F31188264CA068012105F0A4F84FF0010A4FF00008064621686769A4F80D
:203E0C001CA02068A4F81E80791A321A8A42A6EB07062DD385F311884546EF195046394616
:203E2C0005F072F8761B0546B542F6D9EFF3118B89F31188E08B012804D14046394605F07F
:203E4C0063F80546B5F1FF3F06D0A169AD1BA94238BF0D1CE91901E0A5697919284605F033
:203E6C004FF8A4F820A0A4F81C805D46276001E0A4F81C8085F31188BDE8F88F84930000C4
:203E8C0078010020F8B50D46EEB2290801D324494D40244B53F8261085EA01020240C2F385
:203EAC000067214A00EA0504814322400A4300F4E021B1F5E02F01D1510E14D300F4E02107
:203ECC000F4310D002F4E027B7F5A02707D0B7F5803708D122F4003242F4A02203E022F4E8
:203EEC00803242F4C02243F82620104CC10D04D3A4F1D001C5F380528A55000E0FD305F0B6
:203F0C002FF8290E02D30121B14000E0002123680122B24093431943216005F01DF8F8BD3C
:203F2C00006000A000100840007F077FD02002402DE9FC4108AF3E88844698460C460027F5
:203F4C00FF25207A800901D3082042E02078022831D1606861684378097801EB032188B215
:203F6C0042F60211401A1CD04DF2EF61401A23D0401E14D106B10B27F7B9E06811464246C5
:203F8C0000F0B0FA5FFA88F0652806DA0021E2688154401CC0B26528F9DB01250CE00A278B
:203FAC000AE000960120214643460190604602F011F8074600E00127FF2D09D00649086819
:203FCC0030B10868006818B108680168284688473846BDE8FC81C046343B00202DE9FE43B1
:203FEC000646204C1E48DFF88080214F224D2188028891420EDC414600880988814209DBAA
:20400C001A4938880988884204D11A4928880988884220D0052002F069FE814617480088B7
:20402C00ADF800002088ADF8020041460888ADF804003888ADF806002888ADF8080068464A
:20404C0004F000FD071C07D10E4806700C48494603F086FB00E018273846BDE8FE83C0467C
:20406C000E3800200638002008380020103800200A380020123800200C380020FC37002025
:20408C000833002016380020F8B5264C2068EFF3118680F3118824491D4D0B680420B0FA07
:2040AC0080F043F00403281A1F3002780B60521C027086F311882068EFF3118380F31188D8
:2040CC000A680820B0FA80F042F008022D1AE87F0A60401CE87783F311880E20FFF71EFCC4
:2040EC000C480068C0F38150032814BF0020012009490A4A088017683FB9094C402020605B
:20410C000123D36100204860F8BD0120F8BDC0465B350020B43F0050D03A002004800C40F5
:20412C002C500C408493000024380020F8B50E460546142003F08CFE071C0CD1204C206827
:20414C000A21012202F0E2FF20680F21012202F0DDFF002033E0E87A387300243C6104F094
:20416C00F3FEB86029690C310978B81D0170681D016839608088B8802869407BF871286987
:20418C00407BB8737C735EB90E49086808B90F6014E00968086908B90F610FE00969F9E7E8
:2041AC00012E0BD10849086808B90F6006E0086800E0006901690029FBD107613846F8BD5E
:2041CC00FC340020FC3600200037002098B50F4608B9002041E0214C21493FB92268824219
:2041EC0004D00A68824201D0002036E01D4A1368834201D1002313601B4A1368834201D11C
:20420C00002313602268824208D00A68824205D00169396104F072F838691EE0226882427C
:20422C000AD10169216004F069F8206810B12068006912E0002010E00A6882420CD102699D
:20424C000C46226004F05AF82146086810B10868006902E0002000E0002098BDFC3600201E
:20426C00003700200437002008370020F0B520480127F84201D002F003F9204D204F214EA8
:20428C00BD4206D203CD0478A4003459401CA047F6E71D48002800D08047164D164FBD42B3
:2042AC0002D210CDA047FAE7F0BD03251BE0416808300A1C2A400BD11A1C2A40AB4305D0F9
:2042CC00046804300C600431043BF9D1131C05D0047801300C700131013BF9D1021C2A409B
:2042EC0001D0A84304300368002BE0D17047C046FFFFFFFF000000000000000080990000A9
:20430C00089A00000099000059C5011010B5ADF1180D22480078002103F020FF20480068BA
:20432C0001F0FAFC1F4800240470FBF7DDFE194804708DF80040012140F205306A46FCF7F8
:20434C0037FC40F21B3001216A46FCF731FC03F0F1FB1148006828B1214681738160006991
:20436C000028FAD10DF101002146142200F0F1FE204614210DF1010201F014F80A4804F0E4
:20438C0028FD04F05BF904F067F90A2003F086FF06B010BD0E370020FC36002032350020ED
:2043AC0008350020B936002054320020F8B500252E46001D84B214F0030002D0241A241DEE
:2043CC00A4B204F08DF91D4A1060102C02DC1C48076801E01B4807683888C10BCB030FD150
:2043EC0026B9844215DD01263D460DE02B883988C918298029888C4206DC2F46388808E007
:20440C0080F4004080B20026C71938880028E4D1002777B1001B80B2042804DA388840F46D
:20442C000040388004E0E119088044F400443C803F1D106804F094FA3846F8BDE834002015
:20444C000C35002010350020B0B5ADF1280D0446A06840BB0C20FFF7A9FF071C02D16FF0E6
:20446C00030036E0684600212422082304F044FD0023ADF8103005930697174861686A468D
:20448C0004F036FD3860386838B904F0ADF8384603F04AFA6FF003001BE0E068786020696C
:2044AC00B860A7600DE0A7680C48006880470546386804F035FD2069B86009480168284678
:2044CC0088473868616804F033FD386804F02CFD00200AB0B0BDC046B98B0000243B0020A7
:2044EC00283B0020002A4AD05FEA000C8B071CD1830722D1102A08D370B4103A78C978C09C
:20450C00103AFBD270BC103238D0042A2CD3082A05D30C2A24BF08C908C008C908C008C9AF
:20452C0008C092072AD0920F22E00B780370491C401C521E22D08B07F7D1C30714D18307C5
:20454C00D8D0121F12D308C903801B0C4380001D121FF8D20AE008C903701B0A43701B0A10
:20456C0083701B0AC370001D121FF4D2121D05D00B780370491C401C521EF9D1604670477E
:20458C0070B51F4C206860B320681E4E4AF2104585421ED303F0CAF803F004FE164900F0AE
:2045AC0097FD164900F094FD054621684FF47A704843A0F57A7003F0F5FD2946FEF76CFEBD
:2045CC0003F01CF90146304603F0CAF80020206010E00D49304603F0C3F82068401B2060E8
:2045EC0008E001F065FE0B48084903F0B9F8084800F010FF70BDC0460000FA440000802FBC
:20460C00283500202C33002080DE800280EE360080510100E83100207FB50024806831B9D9
:20462C00017B61F30706407B60F30F2605E0087860F30706487860F30F26F0B2FF2803D0A5
:20464C005FFA96F0FF2802D14FF0FF3025E01449F0B241EA00024DF82420601C5FFA96F2F0
:20466C001143421C4DF82010FF204DF822000D48694600F087F90C4D286060B12868F1B2E8
:20468C000D2203F0DBFA28685FFA96F10E2203F0D5FA204601E04FF0FF3000907FBDC0462E
:2046AC0000200084C434002004350020F8B5064603F032FC43F25045C2F200056F6804461B
:2046CC0003F021FA2A69E41B4FF47A716143090C801A48BF404240F6B83289198A4216D3AD
:2046EC00062814DAA968E868814210D82A6872B1401A44F24021C0F20F014143080C00EB9B
:20470C009140824212D91046C82811D312E043F6AC71C5F200014868400828BF4FF4FA6067
:20472C000DD209687D2001F0FF014843C82801D2C820F8BDB0F57A6F88BF4FF47A60F8BDFD
:20474C00F8B51F4C1F4D2078022808D10020207004F010F918B9286801680320884720782D
:20476C00012809D100202070042004F003F918B9286801680220884700262670042004F0D7
:20478C00F9F8C8B9304604F0F5F8A8B90F4C0E4F04E02068B7FBF0F004F0A6FB042004F080
:2047AC00E9F80028F5D0304604F0E4F80028F0D02868016804208847054801210170F8BD70
:2047CC001E3B0020183B0020A0860100889300001F3B0020F8B50F46204C810001EBC0008A
:2047EC0024186668256807B91D4F387858B97888312804D07888322801D000202CE0207A0B
:20480C0008B1002028E004F0ABFB3B7833B96978AA7800230A4304D0012302E0217A491928
:20482C004B781BB104F098FB002015E03B781BB901216970A97003E0217A012249194A70E9
:20484C0004F08AFB38782870B079FFF767F82046394602F0EBFB2046F8BDC0467891000026
:20486C00789200002DE9F04FADF13C0D04F0A4FB8246DFF86C90DFF86C801B4E1B4D002400
:20488C00684600213C22082304F02AFB59F82400069058F82400089056F82400049055F831
:2048AC002400059012486946002204F015FB071C01D101F0D9FF03F013FF8346384600F00A
:2048CC00CDFA08B901F0D0FF584604F049F8641CD6D0504604F058FB0FB0BDE8F08FC046C5
:2048EC00D8920000DC920000D4920000203B0020A18A00002DE9B841044604F029FB00F067
:20490C00ADFA054603F0ECFE80460022072A2DD21B48910001EBC201475ABFB9A38891002C
:20492C0001EBC20143529100031D01EBC2015D50A3689100083001EBC2014350A281686811
:20494C002061404604F00CF8002016E0A388910001EBC201415A994205D1404604F000F80D
:20496C006FF0020009E0521C072AD2D301F07CFF404603F0F5FF6FF00300BDE8B881C0467E
:20498C002C3000202DE9F8430D460646DFF874904FF0FF31484604F0D3FADFF870801A4ADB
:2049AC000024012700E0641C5DB115F82400FF2807D01168814203D958F820000028F2D090
:2049CC000027C7B1002434607460B46001279DB115F82400FF280FD048F82060716807FA45
:2049EC0000F0084370600A4955F82420304602F069FE641CEBE70026484604F0E1FA3046A2
:204A0C00BDE8F883EC330020EC340020482F0020007FC7672DE9F04104F096FA05461C482D
:204A2C00006800261B4CE0B18168691A8C4214D2877B012F0DD9BF1E012F07D9BF1E01D011
:204A4C0000690CE03146FFF7C1FB08E00646006905E03146FFF7BAFB01E00646006900286A
:204A6C00E2D10D480068002680B10127DFF82C808168691A8C4202D30646006904E0314699
:204A8C00FFF7A4FB41460F700028F1D1BDE8F081FC36002020A1070000370020B7360020F1
:204AAC0038B505460024E8782246022800D00122E878214600B101211140EA782046032AC9
:204ACC0000D00120084206D0042029E02869205C2418641CE4B2287BA04201DC03201FE0A9
:204AEC002869201840780928F0D129692869615C491ECAB20B492018801C03F049FD70B1F2
:204B0C002A6928690849A25C2018521E801CD2B203F03EFD08B1022002E0012000E0002042
:204B2C0038BDC046B1360020BC36002038B5042003F0CAFA1A4C022818BF03281FD10320E8
:204B4C000090164800214FF040521C2301F0ECF917480068EFF3118380F311881548042189
:204B6C00B1FA81F1401AC17F4A1E0129C27703D1206820F00400206083F3118838BD094D5D
:204B8C000A48094A296803686018B2FBF3F104F0CFF92868201804F0C7F938BD00A00C4046
:204BAC002438002070930000A086010088930000849300005B35002010B51A481A4900785F
:204BCC00086820F0030040F00100086002F014F801F0CEF80021154C154821600068C06808
:204BEC000146022088471349134A086820F0010008601068D4F8EC1FEFF3118480F31188FD
:204C0C000E4B0F481A680421B1FA81F1401A42F00402C17F1A60491CC17784F311884FF0DC
:204C2C00FF3010BD363500200440034040100940A00100108C210840849300002438002088
:204C4C005B3500202DE9F041876846681D48006803F014FC38680025C0F810583968C1F8A5
:204C6C000458D1F8200820F01000C1F8200804F077F98046144C207818B1042002F062F97E
:204C8C002570404604F068F9387AFEF71BFF06F1100004F01DF906F12C0004F015F93078F9
:204CAC0018B906F1480004F00FF906F1840003F0E1FC04F055F986F8985004F04DF9BDE80A
:204CCC00F081C046043500203D3500202DE9F041044604F03DF900F0C1F8071C04D101F019
:204CEC00C3FD6FF003002FE003F0FAFC80460022072A22D21548910001EBC201465ACEB9BD
:204D0C0091004FF6F87301EBC20143521049900000EBC2000B1D1F500025900000EBC20073
:204D2C0008310D50A2807868A060404603F018FE284609E0521C072ADDD301F095FD404691
:204D4C0003F00EFE6FF00300BDE8F0812C3000202C300020F8B505461E480068EFF3118798
:204D6C0080F311881C4C20684FF0805640F080002060D6F88C014068014601208847D6F8DE
:204D8C00B001006A014614208847286906F5C675810C14BF010C04212868406A02460120A6
:204DAC009047D6F88401006823210246002090472868C069014601208847206820F4C02066
:204DCC0040F480302060206840F00100206087F31188F8BD849300000020094098B54268EB
:204DEC0083685166086890664868D06688681067C8685067D76ED7B9506E1968007C40009B
:204E0C0040F00100C1F8000802201072516F022906D319680B22C1F8042803F09CFF1CE00F
:204E2C0019680322C1F8042803F095FF15E0506E1968007C4000C1F8000801201072946EFE
:204E4C0014F8010B19689466C1F8080818680321C0F80418022003F07EFF98BD2DE9F04144
:204E6C00054603F03DFC80460026042E2DD21A480446B10001EBC6014758A7B9B00000EBE8
:204E8C00C600241825600020A06001460A4604F017F86060606808B901F0E6FC404603F030
:204EAC005FFD204615E0B10001EBC6016158A94208D1404603F054FDB00000EBC6012046BC
:204ECC00401806E0761C042ED3D3404603F048FD0020BDE8F081C046B831002030B5ADF198
:204EEC00240D002124220823684604F049F801248DF81840154821466A4604F03DF8104809
:204F0C0001684FF44070884701F05AF90D4D284603F0A8FD0E48083004700020294603F032
:204F2C0037FC094908600B48FF2202700A4800220270086808B903F0BFFF09B030BDC0461E
:204F4C007800001084340020143500200834002084340020403500203E35002041F2A0004D
:204F6C0010B5C5F20000D0F8781203680A0F03F0FF03802B28BF0023D0F878024BF69A11FB
:204F8C00C0F30F344FF0FF30A14213D02431A14207D04BF62031A1421DD1E2B90A3358B287
:204FAC0010BD12B1921E02D010BD0A2010BD143358B210BD521E0DD0921E04D0121F04D01B
:204FCC00521E04D010BD142010BD152010BD163358B210BD0A2010BDF8B5044603F03AFE78
:204FEC0030F0010002D16FF004002EE003F0B0FF054603F075FB03460022072A20D2134807
:20500C00910001EBC201475AD7B1910001EBC201465AA188B14210D10D49900000EBC200AB
:20502C00091D085800680026854200D10126A660184603F095FC002007E0521C072ADFD351
:20504C00184603F08DFC4FF0FF30F8BD2C3000202C300020F8B51A4D2F68002F2ED01B4814
:20506C000788184C20880026B84200DD01261EB92088381A83B204E02088381A00F58060AC
:20508C0083B2D3B11049012E08D020880E46361828681A46314603F023FE0EE02046028848
:2050AC000E46B11802882868C2F5806203F018FE28683A46314603F013FE2780F8BDC0461E
:2050CC006C3B00206A3B0020281F0020683B0020FCB590EA01064CBF4FF0004600264FEAED
:2050EC0000224FEA40031B0E12BF42F000420020FCBDFF2B24D04FEA01244FEA41052D0E89
:20510C0012BF44F000440020FCBDFF2D18D05B19A2FB0454002C5CBF64005B1E803424BF29
:20512C005B1C64087E3BDCBF0020FCBDFF2B07D24FEA142030F4000040EAC3503043FCBD56
:20514C00FF27FF0546EA0700FCBD002213460A46194671B510F0030F0BD0002A82BF00F889
:20516C00011BB2F1010210F0030FF6D1002A08BF71BD11F0FF0141EA0121042A18D341EAD7
:20518C000141082A0FD30E46102A08D30C460D46B2F10F0312F00F0272C0103BFCD812F084
:2051AC00080F18BF42C012F0040F18BF40F8041B12F0020F18BF20F8021B12F0010F18BFA8
:2051CC00017071BD10B50446A07848B3401E1DD00C382BD1E0780022022800D10122E07887
:2051EC00002100B901211143E2780020032A00D1012008431AD02046FFF752FC014631F073
:20520C00010013D1204602F085FF0FE00849002008700848007848B10F2003F03FF805E0EA
:20522C00E41C054821680160A188818010BDC0460E370020B0360020D834002070B50079F9
:20524C001A4D1B4CB8B903F04BFA297821B903F087FB6FF0070028E02A461178491EC9B292
:20526C00117029B903F07CFB206802F0A9F91BE003F076FB18E003F033FA06462878FF28AF
:20528C0005D1304603F06CFB6FF006000DE029460878401CC0B20128087002D1206802F05F
:2052AC00A9F9304603F05CFB002070BD503B0020543B0020F8B51646876845684FF0FF34C2
:2052CC000846203826D0401E20D0401E1BD1307815490143A86E00F0B3FA18BB3868B0F17D
:2052EC00804F01D10B2200E02322A86E317802F0A5FCA86E95F8591000F0D4F9307885F86F
:20530C00590000240EE06FF001040BE0002485F8704007E0297B0020012900D1012085F832
:20532C00700000242046F8BD0020008070B50D4604461649144A13480968B2FBF1F103F045
:20534C00FFFD08B900201BE015480570104D2878A04214D02C700F4C206803F0A3FC0E4E67
:20536C00304603F07FFB2878012803D10B4930460C3001600020314603F00AFA206001200B
:20538C0070BDC04608340020A0252600889300003E3500201435002084340020BE91000049
:2053AC004035002030B5ADF1140D15468DF80010002448BB9DF80000662823DA14482A30BB
:2053CC000088ADF808009DF80000ADF80A001B214FF6FF726B46204602F0AEFE039078B1E5
:2053EC00BDF80A202946FFF77DF8204602A9024603F083F848B102A81B2103F0D9F804E09A
:20540C00152402E0182400E00224204605B030BD30370020F8B50446174F184E4AF2104540
:20542C00A5421DD302F082F902F0BCFE1049FFF74FFE1049FFF74CFE05464FF47A70604320
:20544C00A0F57A7002F0AEFE2946FDF725FF02F0D5F90146384602F083F90020306005E014
:20546C000749384602F07CF9641B3460F8BDC0460000FA440000802F2C3300202835002034
:20548C0080DE800298B504AF144C2478062C01D0142022E006280FDBB0F5486F0CDA062962
:2054AC000ADBB1F5486F07DAB2F5FA7F04DA0A2B02DBB3F5486F01DB18200EE0094C208057
:2054CC000948018009480280094803803878FEF785FD034803F07DFC002098BD3C35002063
:2054EC00E432002006380020083800200A3800200C38002070B50646F4680C3CF08807282A
:20550C0002DAB088072802DB6FF0020027E003F0E7F8F288124D910001EBC2016958D1B1C9
:20552C0003F01EFA30792071B0796071307AA071F188880000EBC1002858F168083002F0B5
:20554C0090F9F188880000EBC1002858406803F037FD002003E003F003FA6FF0020070BD39
:20556C003030002010B54AF2000434214FF080521C23C4F20C04204601F0FCF9012826D0C4
:20558C00204634210122002301F0F4F9002808BF00201DD08020C1F200000068804702F0B0
:2055AC00BBFC43F2504344F24022C2F20003C0F20F029C681968D860041BA1EB91016243AF
:2055CC00120C8A4224BF1A60012001D21960012010BD2DE9F041054615F8017B90460E46D8
:2055EC001CE0B8F1000F05F101050BD0FF2C09D8022015F8011B401E41EA0424F9D101E061
:20560C00042C02D315F8011B00E0394630462246FFF79FFDA61901E006F8010B15F8010BBE
:20562C008742F9D115F8014B002CE9D115F8010B2C7800022418D4D1BDE8F081FEB50446D9
:20564C006068A16808600027142003F081FB0DEB870148600DEB8700406868B90024A742BE
:20566C0007D90DEB8400406802F05EF9641CA742F7D86FF0030010E07F1CE5D0074D00277C
:20568C003E4600960DEB8700054AE95DA368406802F0F2F97F1CF4D03046FEBD37920000E7
:2056AC003D78000038B50C4628B14268012101FA04F3134201D102201EE04268A1408A43B4
:2056CC0042601148002540F824500C490D480A5DFF2A07D00A4A095D126852F82110FEF73D
:2056EC00D1FB03E044F02041FEF7CCFB20464FF0FF3102F087FF284638BDC0465033002045
:20570C001C350020007FC767482F00202DE9F04100F0A6FA164F3E463D463C46B8464FF0C6
:20572C00FF3002F08BFE3878800805D3307800F0FD00307000F04AF93078400805D32878D3
:20574C0000F0FE00287000F071F92878C00803D3207800F0FB00207098F800000009DED3C2
:20576C00207800F0F7002070FEF7EAFFD7E7C0461C3B002045F2280010B5C4F209000468A6
:20578C0054B343F6AC71C5F200018B6803EA5300C00E21D2486880081ED20022C4F20902E9
:2057AC001068096810F0050F4FEA114101F0F00101F5E0710BD1A1420ED2190F38BF40F03E
:2057CC000100D90E38BF40F00400106010BDA14284BF20F00500106010BDFEE7F8B5054618
:2057EC0003F0B6FB044603F035FA30F0010002D16FF0040021E002F073FF03460022072A35
:20580C0016D20E48910001EBC201475A87B19100061D01EBC201715809688C4205D1AA80BA
:20582C00184603F09DF8002007E0521C072AE9D3184603F095F86FF00400F8BD2C300020A2
:20584C00F8B50E460746F5B21FB115480068A84201D802201CE00F4C4FF0FF31204603F0AE
:20586C006FFB0D4951F8250068B941F8257079680120A8400843786008493246384601F0BA
:20588C0021FF002500E00125204603F099FB2846F8BDC046EC330020482F0020007FC76718
:2058AC00EC34002010B50446607816280FD020797E2813D020797F2810D1207A0E490870EC
:2058CC001048006801220A2101F020FC06E00B4960880978082202F053FC30B1217904F123
:2058EC00080002F065FE012005E0012002F04CF803480460002010BD0C370020323500205C
:20590C00E0360020FC34002038B541F23405C4F2090528680004040C26D002F0F4F843F22B
:20592C00E042C2F2000292F90710814205DD10F1800FB8BF6FF07F00D0719188A14212D830
:20594C001368D5F8D40FC01A801C1F2888BF1F20641A4008C4404FF6FF700919884238BF6C
:20596C00011C918038BD948038BDFEE738B5124C206820B1206802F081FD002020600F4C73
:20598C00206898B90E4D284603F008F80D4A294601F110000260002001F10C021070087024
:2059AC0002F032FF206008B903F086FA06490878401C087038BDC046F03A0020EC3A0020D6
:2059CC00B033002040420F00043B002038B5002002F0D0FF124D144C104988B1087810F029
:2059EC00FD00087002D1284603F0F3F90D49086890B1207880B908680168012088470BE07A
:205A0C00087840F00200087000202070284603F049F8284603F0DBF938BDC0461E3B002055
:205A2C0030320020183B00201F3B002038B5042002F0A0FF124D144C104988B1087810F078
:205A4C00FE00087002D1284603F0C3F90D49086890B1207880B908680168002088470BE049
:205A6C00087840F00100087000202070284603F019F8284603F0ABF938BDC0461E3B002056
:205A8C0030320020183B00201F3B002038B503F067FA154C0546A01D008840B9FEF7F4FA7D
:205AAC000446102000F014FA012C0DD017E0FFF759FD60B10020E080FEF7E6FA0446102035
:205ACC0000F006FA012C0AD1FDF762FC07E030340521204603F02CFA204603F025FA28469A
:205AEC0003F03AFA38BDC04624380020F8B5054605F128020CCA0846002102F0B5FE05F104
:205B0C00300292E8C00036184FEA164447EB01073804044302F000FA211AB1F1004F08D877
:205B2C00011B091DC90F05D1001DA04288BF041C00E0041D04480068426A21460120904743
:205B4C00383585E8C000F8BD8C010010F0B5ADF1340D0446174666682068227A00EB8202C1
:205B6C00D163217A4D01A5EB81052D182D1D08233022002101A803F0FBF906940120ADF8C9
:205B8C001C00707909900020064A0090317901AB284603F0E9F93946204602F0F5F80DB041
:205BAC00F0BDC0464566000098B5044603F0D0F900F056FB074603F04DF830F0010002D16E
:205BCC006FF004001DE017B96FF0040019E0606868B16068B0F1FF3F05D06068694601F068
:205BEC00BBFE30B10DE04FF0FF30009001E0002000907868009903F0A3F9002400B9012479
:205C0C00204698BD7FB5456886683168486820F0020048603168486920F00F004861306841
:205C2C000321016202A803F043F90C4800680468286900906869074A0190297E064B52F8BA
:205C4C002120297B306853F821300399A04700907FBDC0469C90000094900000C4010010A5
:205C6C000EB50023082000930C4901900A484FF4FA6200F0D5F80B480B49FEF783FE084975
:205C8C00086008680A4902F0C1FF084908700948094901F091FF0EBD30320020E587000075
:205CAC0000350020B8340020083B002042350020658200002E3500201835002015490968D7
:205CCC0021280ADC212819D00C380FD00D380FD0001F0FD0C01E0FD01AE0253810D0401FBF
:205CEC0010D0401E10D0401E10D011E0086870474868704788687047C86870470869704707
:205D0C0048697047C8697047086A7047486A704700207047F001002038B504466268217A11
:205D2C000801A0EB41001149085A126840F2011141400D480843D1680840D060256803F0B6
:205D4C000FF9217A491991F8441011B903F004F909E0217A0022491981F8442003F0FCF8CF
:205D6C00042001F0EFF838BDFEFEFFFF5C92000038B500244AF2000521460122C4F20C059B
:205D8C000B460094284600F0CFF82146022201232846009100F0C8F834214FF080521C23EA
:205DAC00284600F0E7FD20B18020C1F200000068804702F0B1F843F25044C2F20004606066
:205DCC0001F0A1FE206138BDF0B5ADF1340D124C666825687079FDF7A1FD03F0C1F8074600
:205DEC00287898B901A800213022082303F0C0F8069400200090094A317901AB281D03F089
:205E0C00B3F801202870204602F00AFC384603F0A3F820460DB0F0BD24930000F78C00009E
:205E2C002DE9F04708AFADF1280D8A4680461D46104C20684FF47A79B9FBF0F002FB00F6E5
:205E4C00002124220823684603F056F8786806902068B9FBF0F0454305953878ADF810009C
:205E6C00514632466B46404603F01EF840460AB0BDE8F0878893000038B501240178A239EA
:205E8C0002D02E391AD01CE04179132919D108300E4D0088012809D10B480078022805D10E
:205EAC00284602F096FF01F045FE0AE0052000F01DFF0146284601F053FC02E0FBF7E6F9EA
:205ECC000446204638BDC0461638002008330020F8B507461248134C0668301903F068F885
:205EEC000025A419B8B9204603F05EF80646B068074205D0F268316938469047C0B230B96E
:205F0C00304603F04DF80646B442F0D103E003480068804702252846F8BDC046789300000C
:205F2C0074930000243800202DE9F041984600EB41001646B8F1100F06AF00F5007404D368
:205F4C00A8F1100800F50174360C3D8802F052FE05FA08F545EA06450021002808BF012129
:205F6C0048F20002C4F20C0210680028FCD025600120106009B102F043FEBDE8F0817047D9
:205F8C0038B5104D104C287828B1012020700F490878401C0870207828B1FAF749F8FCF7E3
:205FAC00E9FE00202070287850B1FAF79DF8084C0021217003200A4601F09EFC0120207062
:205FCC0038BDC046B0360020B7360020F83600200E3700202DE9F04106AF0C4680460025BB
:205FEC003E88EEB9022B19D15178107800EB012086B2B88836EA00000ED1E16809684046FD
:20600C0002F028FD86420CD0E16809684046324602F00EF8054604E0802502E00D2500E041
:20602C000B252846BDE8F08170B505466C68207A616E002200B90122636828469847E06F8E
:20604C00A16F884210D100256566A56702F088FF0646094C207818B1042000F073FF2570E7
:20606C00304602F079FF06E0A06F8069A067A16F2846FEF7B3FE70BD3D35002070B50446FD
:20608C004AF200060D466008ADF1080DC4F20C0607D3A8B20021009001220B463046FFF7B7
:2060AC0043FFA00807D3A8B200900021022201233046FFF739FFE00807D3A8B2009000214C
:2060CC000C2202233046FFF72FFF02B070BD00002DE9F0411C4615460E468046182001F0A1
:2060EC0067FE071C16D00421002202F075FC5020414601F085FE38727E72BD72FC6006984E
:20610C0038610798786101F067FE044A394600F0F3FC00E00420BDE8F081C0468D8D000026
:20612C0038B504466168227A1001A0EB42000F4A105A0A6840F201110140D0680143D16072
:20614C00256802F00DFF217A491991F8441051B9217A0122491981F8442002F0FDFE0420B6
:20616C0001F0D0F801E002F0F7FE38BD5C920000BCB545688468684602F09AFE0F48E968C5
:20618C0000680D4D036855F821702068002207B101220199984721680120C1F81C082268D9
:2061AC00D2F8201841F01001C2F82018C2F804082168C1F81008BCBDB4920000AC01001001
:2061CC00F8B5114E3068B0F1FF3F1CD10F4C00203546306027460FE030460168880000EB0F
:2061EC00C100385832688168900000EBC200201888472868401C28603168880000EBC1003A
:20620C0020580028E8D1F8BD3C390020BC92000038B50024042C0FD20F4B21461A46A0009E
:20622C0000EBC400195002F10805A00000EBC4002950641C042CF2D30024072C08D207497C
:20624C002246A00000EBC4000A52641C072CF8D302F0AAFA38BDC046B83100202C3000208B
:20626C00F8B5064602F03CFA02460025042D18D20E480446A90001EBC50147588FB1A900E6
:20628C0001EBC5016158B14208D1104602F068FBA80000EBC5012046401806E06D1C042D59
:2062AC00E8D3104602F05CFB0020F8BDB831002038B50F4D2878012818D00E480068FFF7EC
:2062CC002FFF01248DF8004040F205306A462146FAF76EFC084802F07AFD084800782021FF
:2062EC0001F03CFF0F2001F0D9FF2C7038BDC046B93600200835002054320020323500203E
:20630C0038B585684468E06E01F0EDFCA06E02F0B5F82968486820F00200486004F11C000A
:20632C0002F0D6FD6879FDF7CDFB207818B904F1380002F0C9FD04F1900002F09BF902F0A4
:20634C000FFE002184F8A41002F006FE38BDB0B504AF104600240A7A520901D308201CE07F
:20636C003F880FB10B2018E00A78022A12D14A684D6852782D7805EB02254FF6F172AA4255
:20638C0005D165221A80C968FEF7ACF804E01C800A2401E01C8001242046B0BD98B5044676
:2063AC000846002730B90E49086808B9384616E00F6807E0012805D10A49086808B9384618
:2063CC000DE00F6857B1601D3946062202F0E0F808B9384603E03F69002FF4D1002098BD24
:2063EC00FC3600200037002008B50D48006890FAA0F0B0FA80F10B4B012000FA01F21A605B
:20640C00094A106009480068884207D9084850F8210018B102680AB1C9B2904708BDC04686
:20642C00E0200240E020026080E200E0EC340020482F00202DE9F84308AF984614460D4600
:20644C008146142001F0B4FC061C13D03A78032102F0C2FAA6F808903474F56050204146E1
:20646C0001F0CEFC707401F0B7FC044A314600F043FB00E00420BDE8F883C0463B870000EE
:20648C00F8B506460F4D104F7388002417E0A00000EBC400321851689068D26852B9AF42A6
:2064AC000BD00A7855F822200346491C08461946904701E0FEF716F87388641CA4B2A34218
:2064CC00E5DCF8BD009900000C99000098B504462420FDF76BFF071C02D16FF0030019E072
:2064EC0020B100212422082302F04AFD2079012801D101203876A0683946002202F0E0FC1A
:20650C00E060384601F010FAE06808B1002001E06FF0030098BDD0B504463C20FDF746FF99
:20652C00071C02D16FF0030019E020B100213C22082302F0D5FC207AB86160893862E06842
:20654C00386160683946002202F0C6FC0646384601F0EAF90EB1002001E06FF00300D0BD2C
:20656C0010B504460C480078800001F085FC0B49086078B109684FF6FF7000F0D5FB600810
:20658C0006D30748074B0821102200F075FA02E0002000E0132010BD3F350020F4340020FD
:2065AC0030370020F492000038B50C460546E8780022022800D10122E878002100B901213C
:2065CC001143EA780020032A00D1012008430ED0E87A207302F0B8FCA06000206073286972
:2065EC00407BE07128690C300078A41D207038BD2DE9F0411C4615460E468046102001F0B9
:20660C00D7FB071C12D00421072202F0E5F95020414601F0F5FB38727E72BD72FC6001F08B
:20662C00DBFB044A394600F067FA00E00420BDE8F081C046B78D000038B505466B6828685B
:20664C00297A00EB8100C46B287A0101A1EB40010A48415A1A68126A11401B6859622B7A60
:20666C00801D1901A1EB4301401891B2042201F0F2FC14B101462846A04738BD5C920000A3
:20668C00B0B5054602F02CF802460024072C13D20C48A10001EBC401475A6FB1A10001EBB0
:2066AC00C401415AA94204D1104602F059F9A0B206E0641C072CECD3104602F051F9FF20B9
:2066CC00B0BDC0462C3000201FB5684602F068FA00208DF800003221ADF802108DF80400B1
:2066EC006946FEF777F8084C206002A802F0E0FB0399491E206802F009FB044920680122B7
:20670C00FFF724FA00901FBD083500203D69000008B50D48007808B1FDF73CFA0B4A1068B0
:20672C0088B10B490878401C087010681168126840880979083200F05DFC162803D00428F7
:20674C0001D001F021F908BD0D370020E0360020E436002070B50546686810F07F4F02D0D8
