:20000000D43F0020D186000001CA011001CA011001CA011001CA011001CA011001CA01102E
:1C00200001CA011001CA011001CA011001CA011001CA011001CA01103FCA011082
:20003C0000B5ADF11C0D0292019100900098806804900098406803904FF0FF30069041E066
:20005C00039A127B00210020012A00D1012000B10121039880F87010002006903AE003992A
:20007C00002081F870000020069033E0029801781A480843059003980599806E05F030FEF3
:20009C0040BB049A039802991268806E0978B2F1804F01D10B2200E0232208F057FC039810
:2000BC000399806E91F8591005F0ECFC02980399007881F85900002006900BE06FF001004A
:2000DC00069007E001982038BAD0401EC7D0401ECCD0F3E7069807B000BDC046002000808B
:0400FC000020704729
:200100003C000000000000000000000034010000000000000000000001000000000000006D
:1C01200000000000000000000000000001000000000000000800000000000000BA
:20013C00340000000000000000000000680100000000000000000000010000000000000005
:14015C00010000000000000000000000080000000000000086
:2001700030000000000000000000000098010000040000000000000001000000FFFFFFFFA5
:10019000FF00000001000000080000000000000057
:2001A0002C0000000000000000000000C4010000040000000000000001000000FFFFFFFF4D
:0C01C000FFFFFFFF08000000000000002F
:2001CC0034050000E401000099A1011095A70110A5C2011009B2011045B80110000000000B
:0801EC00000000002E000000DD
:2001F400280000000000000000000000140200000000000000000000FFFFFFFF00000000B1
:080214000800000000000000DA
:20021C00300500003002000069C201106DC101101FC2011095BA011000000000000000008E
:04023C00300000008E
:20024000300500005402000075C20110A9B601109DBF011049B601100000000000000000DE
:040260003100000069
:200264002400000000000000000000008002000000000000000000000000000008000000CC
:040284000000000076
:20028800240000000000000000000000A40200000000000000000000000000000800000084
:0402A8000000000052
:2002AC00240000000000000000000000C8020000000000000100000000000000080000003B
:0402CC00000000002E
:2002D0000000000014340020040000000000000000000000200000007001000030000000E1
:2002F0001C020000283400200400000000000000000000000C0000003004000018000000F8
:20031000400200003434002004000000000000000000000024000000480400001800000077
:20033000000000003C34002004000000000000000000000010000000A00100002C0000003C
:20035000CC010000443400200400000000000000000000002000000064020000240000007A
:20037000FFFFFFFF64340020040000000000000000000000280000008802000024000000DF
:20039000FFFFFFFF74340020040000000000000000000000580000003C01000034000000BC
:2003B000FFFFFFFF7C340020040000000000000000000000100000006004000018000000D1
:2003D000FFFFFFFF843400200400000000000000000000001C000000AC0200002400000047
:2003F000FFFFFFFF8C34002004000000000000000000000038000000F401000028000000B8
:20041000FFFFFFFF9434002004000000000000000000000054000000000100003C00000053
:1804300018000000000000000000000040040000080000000000000050
:1804480018000000000000000000000058040000080000000000000020
:18046000180000000000000000000000700400000800000000000000F0
:0804780002000000F4B10000D5
:04048000808A7047B7
:040484000100000073
:0404880000000C0064
:04048C0000000D005F
:040490003200000036
:040494000200000062
:040498008C3800207C
:04049C00000200005A
:0404A0000000000058
:0404A40001CA011078
:0404A8000000000050
:0404AC00000000004C
:0404B0000800000040
:0404B4000000200024
:0404B80020380020C8
:0404BC00010000003B
:0404C0004C34002098
:0404C400080000002C
:0404C8000000000030
:0404CC00000000002C
:0404D0000000000028
:0404D4000000000024
:0404D8000000000020
:0404DC00010000001B
:0404E000EC380020D4
:0404E400060000000E
:0404E800010000000F
:0404EC00883700202D
:0404F0000000000008
:0404F4000000000004
:0404F80000020000FE
:0404FC0000000000FC
:02050000704742
:020502002A00CD
:020504000100F4
:020506002500CE
:020508003000C1
:02050A003100BE
:02050C002E00BF
:02050E000100EA
:0105100001E9
:0805140003000000E8B1000043
:08051C000000000000000000D7
:0405240000000100D2
:0405280000000300CC
:04052C0087C401106F
:04053000380500008A
:040534003805000086
:0405380000000000BF
:04053C00800000003B
:040540008000000037
:0405440000000000B3
:040548004C3400200F
:04054C00AFAA000052
:040550002000000087
:04055400A4B100004E
:04055800B0B000003F
:04055C000DC30110BA
:04056000CB63000069
:04056400BB64000074
:0405680099C801101D
:04056C009BC8011017
:040570000000000087
:0405740030B20000A1
:040578002CB00000A3
:04057C0044B0000087
:0405800014B00000B3
:0205840008006D
:0205860009006A
:02058800010070
:02058A0000006F
:01058C00016D
:040590000000000067
:040594000000000063
:04059800000000005F
:04059C00000000005B
:0405A000DDA50000D5
:0405A400698B00005F
:0405A800E19A0000D4
:0405AC00E1870000E3
:0405B0004172000094
:0405B400C5910000ED
:0405B800556000008A
:0405BC00A5A00000F6
:0405C0008175000041
:0405C40011C8011049
:0405C80021C8011035
:0405CC000800000023
:0405D0002400000003
:0405D400180000000B
:0405D80028000000F7
:0405DC0020000000FB
:0405E0003C000000DB
:0405E4000C00000007
:0405E80034000000DB
:2005EC002DE9F04F064640F29421012541F22D00ADF10C0DC4F22231C4F2090040F81D5CB1
:20060C0008680028FCD043F6AC7E46F2440AC020C5F2000EC4F20C0AF4464AF8440CDEF86E
:20062C000890DCF8041046F25620C4F20800890807D271460A686FF00F0E4EEA12410170B7
:20064C0001E07221017041F28C38C5F2000858F8D41CC1F304611629A8BF203962469268F9
:20066C0012175118491C11F10A0FB8BF6FF0090100232C4625EAD96201F01F01C4F2203383
:20068C0041F4F851018324EA996E1A60002EC3F808E073D058F83C1CC1F38360C1F38F2700
:2006AC005FEA994167D249F3072CBCF1000F29D549F307214A42B1F1FF3F4FEA620215DA4D
:2006CC007F0805D1400806BF281C2F1C4FF6FF777F080CF1010C05D1400806BF281C2F1C57
:2006EC004FF6FF77521E0CF1010CE9D1490809D37F0805D1400806BF281C2F1C4FF6FF771E
:20070C000CF1010CBCF1000F35DDBCF1020F4FEA6C020CF001031DDB4FF6FF717F0047F02D
:20072C000107B94207D2400040F001000F2892BF2F1C0F200F1C7F0047F00107B94207D2A1
:20074C00400040F001000F2892BF2F1C0F200F1C521EE3D1002B0EDD7F004FF6FF7147F04A
:20076C000107B94207D2400040F001000F2892BF2F1C0F200F1C47EA004703E040F6FF77EC
:20078C00C0F20F070AF06EFA39460022002808BF2A1C48F20007C4F20C0738680028FCD0AF
:2007AC004AF20800C4F20C0001613D600AB10AF05FFA002E08BFD82109D058F83C1C58F85B
:2007CC003C0CC1F3870100F0030041EA002188B2009040F2FF3200232C214AF20000C4F2BB
:2007EC000C0007F027F8002E1ABF58F8100CC0F30D0B40F2FF3B0AF035FA0021002808BFE8
:20080C00291C38680028FCD04AF20800C4F20C00C0F814B03D6009B10AF02AFA002E04BF0B
:20082C004FF0000BC6F6880B0DD058F818BC0BF07C420BF47C010BF47C4011430BF0FC0BCC
:20084C0008434BEA000B0AF00DFA0021002808BF291C38680028FCD04AF20800C4F20C0011
:20086C00C0F80CB03D6009B10AF002FA002E04BF47F28A6BC0F2680B0DD058F81CBC0BF463
:20088C007C020BF47C410BF4707011430BF03F0B08434BEA000B0AF0E5F90021002808BF27
:2008AC00291C38680028FCD04AF20800C4F20C00C0F808B03D6009B10AF0DAF9002E3AD081
:2008CC0058F8140C43F6AC71C5F200014B68C0F303525B08C0F3034117D243F6AC73C5F281
:2008EC0000031B6843F3032C12EB0C0203D4102A02DB0F2200E0002243F30333C91803D4B1
:20090C00102902DB0F2100E0002141EA021100F47F4200F0F00E0B0400F00F0B222E42EA0E
:20092C0003024EEA02014BEA010B08D300F0804040EA0B0B03E043F6277BC0F2710B0AF079
:20094C0091F90021002808BF291C38680028FCD04AF20800C4F20C00C0F804B03D6009B14F
:20096C000AF086F9222E26BFD8F80000C0F30070281C4AF2400BC4F20C0B222E4FEA400069
:20098C0040F020008BF8090126BFD8F80000C0F34070281C202E40F010008BF809013CBFFC
:2009AC00002001900CD3D8F80C00C20C02F44072800D00F01C0100F003001143084301908C
:2009CC000AF050F9019A0021002808BF291C38680028FCD04AF20800C4F20C0002623D603D
:2009EC0009B10AF045F9202E26BFD8F80C00C0F301500020222E4FEA400040F060008BF8EA
:200A0C000C0126BFD8F80000C0F3C06100216FF07F00222E40EAC1008BF8010126BFD8F8C0
:200A2C000000C0F3455100214FF60040202ECFF6FF7040EA8100ABF89C0105D248F200003D
:200A4C00C4F23F0001900BE0D8F80C000003820D00F47C11920500F47040114308430190BF
:200A6C000AF000F9019A0021002808BF291C38680028FCD04AF20800C4F20C0002603D60EE
:200A8C0009B10AF0F5F844204FF0880E8BF8C500002E8BF8C7E01ABFD8F80000C0F3C14172
:200AAC00002140F68406C9F3815041F03001C4F28C3600288BF8C81041D0401E07D0401EBB
:200ACC0037D00420022107F006F800214BE0284609F03BF804460420214606F0FCFF0420F7
:200AEC0009F033F88442FAD143F6AC70C5F2000050F8040C0104090C4AF8081CC0F3074E49
:200B0C004AF804ECCAF8005031680029FCD0002240F2B411CAF80020C1F2000109680B6864
:200B2C00000E4FF06022072198474FF48060CBF800000420032106F0CEFF002113E00420AA
:200B4C00294606F0C8FF43F2BD704AF8080C4FF086094AF8049CCAF8005030680028FCD057
:200B6C000021CAF8001058F8200C4BF2700342F22C0E41F22D0C47F6180240F29449C4F254
:200B8C000C0300F03F00C4F2090E8BF8CB0FC4F2090C1A80DEF800004AF8441CC4F26029C5
:200BAC004CF81D1C03B0C9F80050BDE8F08F704700B5ADF1140D01928DF80210ADF80000CA
:200BCC0000208DF8080031E29DF80200102805D10199AD48102204F0C3FE73E218208DF81C
:200BEC0008006FE29DF80200102805D10199A948102204F0B5FE65E218208DF8080061E238
:200C0C009DF80200042804D10198AC490068086058E218208DF8080054E29DF802000128DD
:200C2C003ED1A7480078012836D0A64800788DF80C000198A349007808709DF80C0080B1C5
:200C4C00A048007868B9AD480078022804D0AB480078052840F03682A948007809F02AFB95
:200C6C0030E29DF80C00002840F02C8295480078002800F02782A1480078012808D09F4850
:200C8C000078042804D09D480078052840F01A82012009F09DF915E212208DF8080011E221
:200CAC0018208DF808000DE29DF80200012846D18448007801283ED0814800788DF80C0050
:200CCC0001987F49007808709DF80C00A0B17C48007888B989480078032808D087480078B5
:200CEC00072804D085480078052840F0EB818448007809F0DFFAE5E19DF80C00002840F002
:200D0C00E1816F480078002800F0DC817B48007801280CD079480078042808D0774800780D
:200D2C00062804D075480078052840F0CB81012009F04EF9C6E112208DF80800C2E1182025
:200D4C008DF80800BEE19DF80200022804D10198B54900880880B5E118208DF80800B1E131
:200D6C009DF802001F2819DCB54800211F2205F0EDFA01999DF80220B14804F0F1FD9DF898
:200D8C000200B04908705E48AE49AD4B00780A78012105F0F5FD8DF8080093E118208DF87E
:200DAC0008008FE19DF802001F2819DCA64800211F2205F0CBFA01999DF80220A24804F0A3
:200DCC00CFFD9DF80200BE4908704D48BC499E4B00780A78002105F0D3FD8DF8080071E1E3
:200DEC0018208DF808006DE19DF80200012808D101980078042804DC0198B4490078087098
:200E0C0060E118208DF808005CE19DF80200012808D101980078032804DC0198AC490078C8
:200E2C0008704FE118208DF808004BE19DF80200062806D10198A74902680A608088888004
:200E4C0040E118208DF808003CE19DF80200012808D101980078072804DC01989E490078D2
:200E6C0008702FE118208DF808002BE19DF8020001280BD101980078032807DC01989749D9
:200E8C00007808701EE1C0460C33002018208DF8080017E11C3300209DF80200012808D12D
:200EAC0001980078012804DC01988D490078087008E118208DF8080004E1C046A033002021
:200ECC004B3600204A36002001980088ADF80C009DF8020002280DD1BDF80C00062809DB81
:200EEC00BDF80C00B0F5486F04DCBDF80C007D490880E7E018208DF80800E3E0DC3300205C
:200F0C00D033002001980088ADF80C009DF8020002280DD1BDF80C00062809DBBDF80C009D
:200F2C00B0F5486F04DCBDF80C006F490880C9E018208DF80800C5E001980088ADF80C0083
:200F4C009DF80200022809D1BDF80C00B0F5FA7F04DABDF80C0065490880B3E018208DF8E6
:200F6C000800AFE001980088ADF80C009DF8020002280DD1BDF80C000A2809DBBDF80C00C5
:200F8C00B0F5486F04DCBDF80C005949088099E018208DF8080095E0019800788DF80C00C9
:200FAC009DF80200012818D19DF80C00012814D1504809F0B7F960B9002003F037FE8DF8A6
:200FCC0008009DF8080000287CD14B4809F0F0FC78E016208DF8080074E018208DF808003F
:200FEC0070E09DF80200012804D1019843490078087067E018208DF8080063E0BDF80000E7
:20100C0027280CDA9DF80200022808D10199BDF80000098807F024F98DF8080052E0022020
:20102C008DF808004EE0C0464C360020BDF80000A0F201301A2809D9B0F58070D1D0DDE7AB
:20104C004F3600204E3600206F36002001A151F820008746D50B0000F10B00000D0C0000A9
:20106C0009100000270C0000530D00006D0D0000B10D0000F50D0000170E0000390E000012
:20108C00570E0000790E00000910000009100000A50E0000D50E0000110F0000450F00001C
:2010AC00710F000009100000091000000910000009100000A50F000009100000B50C0000B2
:2010CC006E3600209DF8080005B000BDD9330020D83300208E360020D7330020DA3300209F
:2010EC009C3600209E360020A0360020A2360020A4360020C03100209C310020B83600200A
:20110C0000B5ADF1140D009000208DF8040000208DF8050087E100980290029840788DF803
:20112C000C009DF80C00E8B99D4A0220102106F015FE9C4A0320102106F010FE02989A4957
:20114C00C01C02680A608088888098490120087097489849984B00780A78012105F010FC89
:20116C008DF80C009DF80C0010B190490820087001208DF8040001208DF8050078E10098B1
:20118C00029002984078002824D10298C07850B1A9498748A94B0A780078002105F0F0FBBF
:2011AC000299487016E081480078022812D07F48007807280ED07D480078062803D1AA4810
:2011CC000078012806D1A94809F0ACF810B9012008F0FEFE02984078002800F0498173492F
:2011EC000820087001208DF8040041E1009802900298407800283CD100988078032812D128
:20120C006A480078062803D168490720087033E0AA48007818B16549022008702CE0634900
:20122C000320087028E0A648008858B1A348007810B98D48007880B1A14801888B4807F09A
:20124C00C3F80AE09D480078012803D19B490020087002E08449002008705448007807287D
:20126C0003D152490620087006E050490420087002E04E490820087001208DF80400002057
:20128C008DF80500F4E00098029002984078002838D102988B49001D02680A6080888880C8
:2012AC00029889494089088040490620087002988649C089088002988549008A08800298F0
:2012CC008449408A088002988349C07808708348007801280CD11F2006F09EFFADF80C0001
:2012EC00BDF80C004FF47A7141437D4807F06CF80298029A0299C07852890423091D05F029
:20130C0079FE0DE002984078312806D16B490020087026490420087002E024490820087095
:20132C0001208DF80400A3E0009802900298808807F0E4FF63480021062205F007F863493A
:20134C00002008806249002008806249002008800298644980790870614809F029FB62480B
:20136C0009F026FB01208DF8040057494FF6FF7008803D48007818B10C490320087077E0B4
:20138C0002988079082803D108490520087002E0064904200870012008F01AFE68E0C04670
:2013AC000C3300201C33002078330020DC330020D03300204E3600204F36002000980290C3
:2013CC00494809F0F5FA02984078002850D102983E49C088088002983D4900890880029831
:2013EC003C49408908803E4808F09CFF00283FD13E48006800283BD03C4835490068354AB0
:20140C0003680988314812880088984730E00098029002988088052108F01AFD28E0012010
:20142C008DF8050024E000988078072808D90D38F5D0801EEBD01BE06E3600206F3600208B
:20144C0001A151F820008746231100002B1400008B110000F9110000F911000093120000E0
:20146C0035130000C91300004B360020783100209DF8040001280CD11D48006848B11C4809
:20148C000068006828B11A48006801681948007888479DF8050001280CD11548006848B15E
:2014AC0013480068406828B11148006841680098884700E0012005B000BDC0464A360020F2
:2014CC004C3600209636002094360020A6360020A8360020AA360020AC3600209C3600209A
:2014EC009C310020AD360020C0310020B4360020B0360020DC3300202DE9F84FC64DC74E1B
:20150C00D5F8EF1FCC4C7368D5F8F30F8843C5F8F30F002BC5F8FF1F00F011817788012BE5
:20152C0000F0D680DFF8FCB2BF4FDFF800A3DFF80093DFF80083022B72D0032B40F06A81D0
:20154C000024B06855F8312C74600028A2F5C062B8BF404211460029B8BF494288422EDA97
:20156C00111C54BF02206FF00100B26900EB4100032190FBF1F18918B161F3687069984204
:20158C000BD0B1F11002B8BF524230691038B8BF40428242B8BF88B209DB98B20090A048B0
:2015AC0030214FF47F42082306F044F9308A00909B4804214FF4F802122306F03BF95846E0
:2015CC00046001688908FCD20460012644600E203E6003F0F9F950460468EFF3118584F302
:2015EC00118849460820B0FA80F00A1AD07F431E0128D37704D14246106820F008001060D1
:20160C0085F31188EFF3118384F311880420B0FA80F0091AC87F421E0128CA7754D14EE062
:20162C0055F8310CB0F5C06F17D00327776002F0DBFB45F8397C0027276020688008FCD212
:20164C007748394660220523009106F0F3F80126266020688008FCD364E0002171605846C4
:20166C00016002689208FCD20160012641600E203E6003F0A9F950460468EFF3118584F3B0
:20168C00118849460820B0FA80F00A1AD07F431E0128D37704D14246106820F00800106030
:2016AC0085F31188EFF3118384F311880420B0FA80F0091AC87F421E0128CA7704D14246B8
:2016CC00106820F00400106083F31188BDE8F88F55F8312C02214BF2F52071605043000A3A
:2016EC0037B95649096821F07F414018400801E0002171806060000CA0600126E660032717
:20170C0045F8397C0027276020688008FCD24448394660220523009106F08CF82660206871
:20172C008008FCD345F8216C45F8397C0820C5F8FF0FC5F8F30F45F8396CBDE8F88F404842
:20174C000068006801462020884741F61D574FF002080F2045F82D0C00214FF4C0720723FE
:20176C0045F8297C2E48CDF8008006F063F8012744F8047C54F8040C8008FBD3308845F8E4
:20178C001D7C012821D0032045F8390C4FF00009C4F8009020688008FCD2214849466022F9
:2017AC000523009106F046F8276020688008FCD345F8217C45F8399C0820C5F8FF0FC5F82E
:2017CC00F30F45F8397C474623E04FF00009C4F80C90032045F8390CC4F8009020688008D8
:2017EC00FCD20F48CDF8008049466022052306F021F8276020688008FCD3202045F8210C1B
:20180C0045F8399C0824C5F8FF4FC5F8F34F45F8397C7760BDE8F88F39400C4068390020F9
:20182C0000A00C4034600C4004800C4028B20000FB330020BC36002038600C401020094069
:20184C00A00100102DE9F04F5FEA0009ADF11C0D00F05581AC480068EFF3118280F31188BA
:20186C00DFF8C8B29BF80400012818BF012003D1022100208BF8041082F31188012800F07E
:20188C003C8109F01BFB0390A948046804EB0B0009F010FB4FF00008464637460BEB040137
:2018AC00CDF810800191B0B90C46084609F0FEFA0546A868400808D3E86829690246012072
:2018CC009047C0B2002840F01081284609F0EAFA0546AC42EDD1002F40F00B8109F0DEFACC
:2018EC000290059789480760012008F02EF9012804D1404607F0F2F84FF00108844F386816
:20190C008068014630468847864819300090D0F8FF0FB9F1000F00F08C80864C0A34E579A7
:20192C0005B10126A5790DB146F0020665790DB146F00406DFF8DC9165782DB1B86A006B3C
:20194C0049460246C88D904725782DB1B86A006B49460246488D90476F4901200860B86A8A
:20196C008069014646F0200088476C4DDBF80010286840F001002860480813D2684809F043
:20198C004AF98246BAF1040FF8D0D5F8180220F00300C5F81802B86C4068024660480321F9
:2019AC00904701E001200490059801F04DF9B86A0099806BD1F8FF1F8047049858B9B86CB5
:2019CC0040680246564851469047D5F8180240F00300C5F81802386880680146012088474F
:2019EC00504801688909FCD3B8F1010F02D1012007F074F8B86A4069014630468847B86AF0
:201A0C00406B0146304688470128F8D166782EB1B86AC06A49460246C88D904726782EB108
:201A2C00B86AC06A49460246488D90473A49012008603A480168032221F0010101600198A2
:201A4C008BF8042009F036FA0028059818BF01200125C0B9019C204609F028FA0646B068CC
:201A6C00C00806D3F0683169024604209047C0B230B9304609F016FA0646B442EFD102E0C6
:201A8C002948006880472148009F0560D7F8FF0F09F0EEF8019809F00DFA059FC8B9019C16
:201AAC00204609F003FA0646B068000906D3F0683169024608209047C0B230B9304609F075
:201ACC00F1F90646B442EFD103E0174800688047022702988BF8045009F0DCF905F058FAEE
:201AEC00039809F0D3F938460AE00F4800688047022701208BF80400F2E7062000E00220BA
:201B0C0007B0BDE8F08FC04628B200000C40094090010010C8AF0000282008600C2008402D
:201B2C0000400340141009401CB20000BC36002018B20000E833002000B5ADF11C0D04F054
:201B4C003FFCA148A14901F0C5FF9E490860A04808F092FC9F48A04907F0FAF9A04808F05F
:201B6C000FFF9E49086000209F490090042001909C484FF4FA62002305F0CCFA00209A494B
:201B8C0000908020019099480A22002305F0C2FA0020954900904FF480700190944841F236
:201BAC007072002305F0B6FA04F068FD1F200A2106F056FB00208DF80C000020ADF80E00E1
:201BCC0001208DF810004FF44870ADF812004FF44870ADF814000020ADF81600D220ADF86B
:201BEC001800012140F2053003AAFEF7E1FF40F2063002210DF10E02FEF7DAFF7D4A4FF445
:201C0C0042700421FEF7D4FF7B4A40F207300B21FEF7CEFF4FF44470012104AAFEF7C8FF7A
:201C2C0040F2113002210DF11202FEF7C1FF40F21230022105AAFEF7BBFF40F213300221AE
:201C4C000DF11602FEF7B4FF4FF44570022106AAFEF7AEFF694A0020152107F067FC4FF4A7
:201C6C00C760ADF80C00BDF80C100A2006F0F8FABDF80C100B2006F0F3FA4FF44870ADF81E
:201C8C000C00BDF80C10082006F0EAFABDF80C10092006F0E5FABDF80C10062006F0E0FAC3
:201CAC00BDF80C10072006F0DBFA0020039001208DF8100000208DF8110003208DF812007C
:201CCC0001208DF81300042103AA4FF4816005F07DFF4FF48060012104AA05F077FF40F248
:201CEC00024001210DF1110205F070FF40F2034001210DF1120205F069FF40F2064001215F
:201D0C000DF1130205F062FF06F042FD002007F0A5FA07F08FFB08F0BDFF09F00CF84FF0F2
:201D2C00FF3008F0D3FE4FF0FF3008F066FF4FF0FF3005F0AFFA1E208DF80800012102AA2F
:201D4C0040F20140FEF734FF022042F2107106F087FA032042F2107106F082FA1020A02153
:201D6C0006F07EFA1220A02106F07AFA0C20A02106F076FA1120A02106F072FA1320A021F1
:201D8C0006F06EFA0D20A02106F06AFA2320002106F066FA1A4808F03BF81A4807F0AEFB48
:201DAC008DF80900184807F091FB0A48007808F082FD0848007808F088FD072008F058F8B1
:201DCC0007B000BDA4330020543300200836002034360020D2330020C833002098330020D2
:201DEC003C330020303100203D9E0000E830002054310020E5350020DA350020E935002068
:201E0C00403600202C360020383600200EB50191ADF8000000208DF80800B2E08148019974
:201E2C0000780870FAE001987F49102203F098FDF4E001987D49102203F092FDEEE07C4838
:201E4C00019900680860E9E07A4901980A68026089888180E2E07848019900780870DDE038
:201E6C007648019900780870D8E07548019900880880D3E0734901980A78734903F070FD49
:201E8C00CCE0724901980A78714903F069FDC5E07048019900780870C0E06F480199007851
:201EAC000870BBE06D4901980A68026089888180B4E06B48019900780870AFE06948019923
:201ECC0000780870AAE06848019900880880A5E06648019900780880A0E065480199008806
:201EEC0008809BE0634801990088088096E0624801990088088091E06048019900880880F1
:201F0C008CE05F4901980A6802608988818085E05C4801990088088080E05B48019900884A
:201F2C0008807BE0594801990088088076E0584801990078087071E056480199007808706E
:201F4C006CE0554801990078087067E0394901980A6802608988818060E0504801990078D0
:201F6C0008705BE0BDF80000272806DABDF8000006F052F90199088050E002208DF80800C7
:201F8C004CE0BDF80000A0F540701D2805D9B0F58070DBD0401EE0D0E4E702A151F82000C7
:201FAC008746C046291E0000331E00003F1E00004B1E0000551E0000631E0000771E00005B
:201FCC00811E00008F1E00009D1E0000A71E0000B11E0000BF1E0000C91E0000D31E0000A5
:201FEC00711F0000DD1E0000E71E0000F11E0000FB1E0000051F00000F1F00001D1F00008F
:20200C00271F0000311F0000711F0000451F00006D1E00003B1F00004F1F00009DF808003A
:20202C000EBDC046DB3300200C3300201C330020A0330020783300204A3600204B360020C8
:20204C004C3600204E3600204F3600206E3600206F360020D9330020D83300208E360020C5
:20206C00D7330020DA330020943600209C3600209E360020A0360020A2360020A436002045
:20208C0096360020A6360020A8360020AA360020AC360020DC330020AD360020B83600200C
:2020AC0000B5ADF1240D0090002008900098406801900098806802900198007B012829D12E
:2020CC000898411C08910DEB80010298007C40F00040C8600298417C7848084308994A1CCE
:2020EC0008920DEB8101C8600898411C08910DEB80010298807C40F00040C860019890F83A
:20210C0059106F48084308994A1C08920DEB8101C8603FE00298017C6848084308994A1CCD
:20212C0008920DEB8101C8600298417C6548084308994A1C08920DEB8101C8600198007EAE
:20214C0018B10198007E01280AD10298817C5B48084308994A1C08920DEB8101C86009E0DE
:20216C000298817C5848084308994A1C08920DEB8101C860019890F85900FF280AD001987A
:20218C0090F859105048084308994A1C08920DEB8101C8600898411C0891FF210DEB8000EE
:2021AC00C160019803A95C3001F094FC0199886608B900207FE001984449007B51F82000CE
:2021CC00012839D1029A019802991268806E097CB2F1804F01D1092200E0212206F0BEFBC2
:2021EC00029A019802991268806E497CB2F1804F01D10A2200E0222206F0B0FB029A01986C
:20220C0002991268806E897CB2F1804F01D10C2200E0242206F0A2FB029A01980199126836
:20222C00806E91F85910B2F1804F01D10B2200E0232206F093FB3DE0029A01980299126831
:20224C00806E097CB2F1804F01D10A2200E0222206F084FB029A019802991268806E497CF9
:20226C00B2F1804F01D1092200E0212206F076FB029A019802991268806E897CB2F1804FAA
:20228C0001D10C2200E0242206F068FB019890F85900FF280ED0029A019801991268806EFD
:2022AC0091F85910B2F1804F01D10B2200E0232206F054FB012009B000BDC046000480A084
:2022CC0000200080004000800004C0A090AF000000B5ADF16C0D01900020199006F0F4FFE0
:2022EC00012807D108F07FF8022803D1199840F0010019906D48006800F44000800D0128D2
:20230C0009D16B48006800F07F40010E012088401999084319906748007868486649006881
:20232C0000F0FE004008086006F0CEFF012803D161490868401C0860002002905E48029962
:20234C00006888420BD902985D4AFF2111540298401C02905848029900688842F3D80020B5
:20236C00039002902EE00298019951F820005249096800F0FF0081420AD90298019951F863
:20238C002000012100F0FF0081401998014201D0022089E00298019951F82000012100F040
:2023AC00FF00814003980143039101990298444A51F820009DF8081000F0FF001154029818
:2023CC00401C02900298019951F8200000F0FF00FF28C8D1092002F023FA019839490860FC
:2023EC0004A808F0ECF901208DF828003648012104AA08F047FD002002902F4802990068C4
:20240C00884237D90299012088401999084205D002992E4A042042F8210023E00299012030
:20242C0088400399084209D002982549085C019951F82010264801F0A3F907E002992448A1
:20244C0001F0FF0141F4C04101F09AF902984FF0FF3100F0FF0005F06FFF02991B4A00204A
:20246C0042F821000298401C02901348029900688842C7D80DA808F041F900200090164AAF
:20248C00144810210DAB08F0F9FC14481349006820F47C5040F4005008601149012008602F
:2024AC0010490120086000201BB000BDB43F0050A83F0050D6330020943300208012084022
:2024CC00E4310020C033002080320020F82E0020007FC76764320020716E000000300940D5
:2024EC000C4009400800094000B5ADF1140D01928DF801108DF8000000208DF80800BBE080
:20250C009DF80100082806D101999DF80120694803F026FACAE018208DF80800C6E09DF854
:20252C00010014280BDC64480021152203F00EFF01999DF80120604803F012FAB6E01820A2
:20254C008DF80800B2E09DF8010014280BDC5B480021152203F0FAFE01999DF801205748C2
:20256C0003F0FEF9A2E018208DF808009EE09DF8010014280BDC52480021152203F0E6FE1E
:20258C0001999DF801204E4803F0EAF98EE018208DF808008AE09DF8010014280BDC49488C
:2025AC000021152203F0D2FE01999DF80120454803F0D6F97AE018208DF8080076E09DF84B
:2025CC00010014280BDC40480021152203F0BEFE01999DF801203C4803F0C2F966E018203C
:2025EC008DF8080062E09DF8010014280BDC37480021152203F0AAFE01999DF8012033480A
:20260C0003F0AEF952E018208DF808004EE09DF8010006F065FC03900398B0B12C482D4989
:20262C000068814203D02A48006807F0FFF8039801999DF8012003F093F9039824490860EE
:20264C009DF801002449087030E013208DF808002CE09DF80100072806D101999DF801202B
:20266C001E4803F07DF921E018208DF808001DE002208DF8080019E09DF800000828F7D880
:20268C0001A151F8200087460D2500002B250000532500007B250000A3250000CB25000004
:2026AC00F32500001B2600005F2600009DF8080005B000BDA5340020AE340020C43400200E
:2026CC00DA340020F0340020063500201C3500204035002032350020443500204635002060
:2026EC002DE9F0411C4615468C4208BF854282BF00230022E5E0002C08BF002D0AD10029FF
:20270C000EBF00286FF000006FF0000100F0E1F8BDE8F0815FF000085FF0000E002C08BF73
:20272C008D429CBF2C1C0025070C47EA01470E0CB44208BFBD429EBF5FEA044444EA15441F
:20274C005FEA0545070A47EA01670E0AB44208BFBD429EBF5FEA042444EA15645FEA052574
:20276C00470847EAC1774E08B44208BFBD4200F29380870847EA81778E08B44208BFBD4274
:20278C007CD8C70847EA4177CE08B44208BFBD4266D8070947EA01770E09B44208BFBD42C5
:2027AC0050D8470947EAC1674E09B44208BFBD423AD8870947EA81678E09B44208BFBD421B
:2027CC0024D8C70947EA4167CE09B44208BFBD420DD8E60146EA5566EF01B14208BFB8425A
:2027EC0001D3C01BB14158EB08085EEB0E0EA60146EA95664FEA8517B14208BFB84201D345
:20280C00C01BB14158EB08084EEB0E0E660146EAD5666F01B14208BFB84201D3C01BB141A0
:20282C0058EB08084EEB0E0E260146EA15762F01B14208BFB84201D3C01BB14158EB08082A
:20284C005EEB0E0EE60046EA5576EF00B14208BFB84201D3C01BB14158EB08084EEB0E0E3A
:20286C00A60046EA9576AF00B14208BFB84201D3C01BB14158EB08084EEB0E0E660046EA29
:20288C00D5766F00B14208BFB84201D3C01BB14158EB08085EEB0E0EA14208BFA84201D3FD
:2028AC00401BA14158EB08085EEB0E0EA34208BFAA423EBF2D0A45EA0465240A89D3734670
:2028CC0042461E4617460B46024631463846BDE8F081704700B5ADF12C0D0C208DF800000B
:2028EC0007208DF8010009208DF802005E4800788DF803005D4800788DF804005C48007807
:20290C008DF805005B4800788DF806005A4800788DF80700594800788DF80800FF208DF88B
:20292C000A000D208DF80B0000208DF80C005448007800283DD153480068099000208DF888
:20294C0028002AE00998E8B10998407DB0B109999DF80000153109786844401C01709DF834
:20296C000000401C8DF800009DF80000411C8DF80010099991F82E10684441700998006B11
:20298C00099002E04048006809903E4809990068884202D101208DF828009DF800001D2852
:2029AC0003DA9DF828000028CCD009983549086030E036499DF8000009786844401C017008
:2029CC009DF80000401C8DF80000314800788DF8240019E02E499DF8000009886844401C3D
:2029EC0001809DF80000801C8DF8000012E028499DF8000009686844401C01609DF800002D
:202A0C00001D8DF8000005E09DF82400401EE1D0401EECD09DF800001E280BDA9DF80000EC
:202A2C00411C8DF800100021684441709DF800001E28F3DB9DF80000411C8DF8001015498C
:202A4C000978684441709DF8000009388DF8090011489DF8002000780DF10103012103F08B
:202A6C008FFF0BB000BDC046DC350020DD350020DE350020DF350020E0350020E135002009
:202A8C00D8350020243600201C360020193600204833002018360020D233002000B5ADF121
:202AAC00140D8DF80000A9E06249002008704FF4417001A9FFF7AAF99DF804008DF80C0037
:202ACC009DF805008DF80D009DF806008DF80E0000208DF8100000208DF80F009DF8090089
:202AEC008DF813009DF808008DF812009DF807008DF81100082103AA0020FFF7F5FC97E078
:202B0C0000208DF80400012101AA40F21B30FEF74FF807F0D3FF484A40F207300B21FEF795
:202B2C0047F801208DF80400012101AA40F20530FEF73EF8414900200870142005F06EFF89
:202B4C0076E003200021002205F0C8FE3C4801780822002006F0BCF836490120087040F2B7
:202B6C00153001A9FFF752F93448007800285FD100208DF80C00012103AA40F20530FEF7F1
:202B8C0017F801208DF80C00012103AA40F21B30FEF70EF82A480078202106F0E3FB8DF89D
:202BAC000D0026490120087042E022490020087007F084FF204A40F207300B21FDF7F8FF6B
:202BCC00142005F02BFF1F481D49006809784088002206F07DF82BE016490020087007F092
:202BEC006DFF154A40F207300B21FDF7E1FF142005F014FF11490020087019E09DF80000D9
:202C0C00401E072814D802A151F820008746C046B52A00003D2C00000D2B0000B72B0000EE
:202C2C00E52B00004F2B00003D2C00003D2C000005B000BDD0350020DA35002044360020CC
:202C4C00D233002000360020F8B504460020C4F209000068800880F0BB8006F03AFD42F21B
:202C6C002421C4F208010A68002112F0030F18BF0121D20828BF41F00201002C18BF41F07B
:202C8C00040143F28836C2F2000696F90720821A052A04DAB2798A4208BFB2886FD041F2AD
:202CAC009C340F28A0F10F02C5F2000424DB02EB02121712072F88BF07273D46062D88BFD3
:202CCC00062554F825C00423A64603EB85035EF80330CD08A3EB0C0303F0FF0C24BFC3F371
:202CEC000725AC448D0824BFC3F30745AC444D0805D30CEB136C02E04FF0000C674654F879
:202D0C002730CC0803F0FF0524BFC3F3072425448C0824BFC3F3074425444C0828BF05EB4C
:202D2C001365A2EB07221FFA8CF3534380330022082B88BF012243F6B473C5F200031C681B
:202D4C001B684FF4D07C34275219241703F0FF0307FB14C45C434FF6FF73B4FBF2F29342C7
:202D6C0038BF1A1C802892B2B28005DA10F1800F03DA6FF07F0000E07F20F071B17142F29C
:202D8C000800C4F2090001681F2A4FF00000316008D340F2FF11914206D25208401C91428D
:202DAC00FBD301E01F22B2800F3A4FF600714FF0350E1209C8F2A401C4F2090E40EAC20031
:202DCC000143CEF8FB1F4FF0000CCEF8FFCFF8BD43F28E324FF6FD50082141F2300EC2F25A
:202DEC000002C0F2A4001170C4F2090ECEF80000F8BD704700B5ADF1140D009000984068AB
:202E0C0002900098806803905B480068416803980068884701900398006807F00CFE01984D
:202E2C00002800F088800298007AFF2840F0908081E0009803F04CFF9CE00299C86E401E09
:202E4C00C8660298C06E00B302990398896E0068097807F0EDFA0299886E401C8866029854
:202E6C00C06E02280BD20298406F40B902980021017203980068052107F0C2FB7AE00398CF
:202E8C000068012107F0BCFB74E00298406FD0B102980221017202990398496E0068097CC6
:202EAC00012206F0ADFE0298406F012805D9039800680B2107F0A4FB5CE0039800680321CA
:202ECC0007F09EFB56E002980021017203980068042107F095FB4DE00398006807F0FEFD21
:202EEC000299096F08700299086F401C08670299486F401E48670298406F78B10298406F44
:202F0C00012805D903980068092107F079FB31E003980068012107F073FB2BE002980021A5
:202F2C00017203980068042107F06AFB22E00298FF2101721EE00298007A00283FF479AFCA
:202F4C00401E3FF47AAF401EC6D0FD38EFD111E00298FF2101720198400903D3009803F061
:202F6C00B7FE07E003980068042107F049FB009803F0AEFE05B000BDAC01001000B5ADF18D
:202F8C006C0D0291019001984068179001988068189007F06FFF1990179890F8A400012865
:202FAC0004D1199807F062FF002098E01799012081F8A400199807F059FF029820B90FA877
:202FCC0007F066FA0FA802901798002141650298179900690861029817994069486102987D
:202FEC001799007E087602981799007B087302981799007808700298179940684860179955
:20300C00002081F8700002984069092801D2002000E00120179981F858001898407901F058
:20302C00FFFB019803F07EFA18981799C07C81F859000198FFF734F878B91898407901F0D2
:20304C00C3FC07F017FF19901799002081F8A400199807F00BFF002041E003A807F059FB19
:20306C00019808900020189900901E4A1798097903AB1C3007F002FF1798007878B903A824
:20308C0007F0A8FB01208DF824001798002103AA383007F0F7FE14491798816003E0029885
:2030AC0017998068886003F0ABFD1799C8661798007B012809D117980C49806E07F024F9D8
:2030CC0017980199806E07F0C7FA00200090084A1798019B0421903006F058FA01981BB017
:2030EC0000BDC046E93B0000A7A3000095790000BDA6000000B5ADF11C0D0191009000F094
:20310C00EFFF4FF0FF3006F045FC02900298002835D10020049003A904AA0DF10E0005F0A7
:20312C0049FA00282BD101208DF81400BDF80E0010281CD14048BDF80C100088884216D1E8
:20314C0004980690069800884FF6FF71814209D106984088C00B0AD3384A0420042104F0EC
:20316C00FDFD04E0049803F071F88DF81400049828B19DF8140010B1049806F0BBFB304835
:20318C00008840083FD32E49088820F0010008802C48007818B92C480078002833D02A485B
:2031AC00007818B103208DF80C000EE0274800788DF80C00264800788DF80D0025490A6850
:2031CC000DF10E00026089888180234800788DF81400224800788DF815001748007803A9E8
:2031EC0007F076F878B11E49082008701D48006848B11C480068006828B11A480068016828
:20320C001748007888470E480088800807D30C49088820F002000880002001F007FD0848D8
:20322C000088C008FFF46DAF0549088820F00400088004F0C7FE64E7D0330020A03300208F
:20324C00483600204A3600204B360020D9330020D83300208E360020D7330020DA330020F1
:20326C00DC330020B036002000B5ADF1140DADF800000020019000208DF80E00BDF80000DB
:20328C00001DADF80000FFE7BDF8000000F003008DF810009DF8100038B19DF81010BDF845
:2032AC000000401A001DADF8000007F0BFF93E490860BDF80000102803DC3C4800680290FE
:2032CC0002E03B480068029002980088ADF80C00BDF80C00000C09D3BDF80C0080F4004092
:2032EC00ADF80C0000208DF80E0020E09DF80E0090B1019902980A88008880180880019972
:20330C00BDF800000988884211DC0198029002980088ADF80C001AE0BDF80000BDF80C1026
:20332C00884214DD01208DF80E00029801900299BDF80C004018029002980088ADF80C00CE
:20334C00BDF80C000028C3D100200290FFE7029810B3BDF80010BDF80C00401AADF80C005E
:20336C00BDF80C0004280FDB0299BDF8000040180490BDF80C0004990880BDF800000299F8
:20338C0040F40040088004E00299088840F4004008800298001D02900348006806F0F0FF39
:2033AC00029805B000BDC04690330020B0330020B433002000B5ADF11C0D019100900098CC
:2033CC0040680290009880680390029890F85810019800888840ADF8140003980068B0F1C4
:2033EC00804F01D13E4800E03E4804900198806880B102983C4990F8580051F820000499E9
:20340C00886001988168BDF8140040180499401E48600BE00298354990F8580051F8200026
:20342C00049988600298049972304860039804990068083008600198049A018843F6F070E1
:20344C00491E00EA011091680843906003980068B0F1804F01D1264800E02648049001989C
:20346C00406880B10298244990F8580051F820000499886001984168BDF814004018049992
:20348C00401E08600BE00298184990F8580051F820000499886003980499801D08600398CE
:2034AC0004990068083048600198049A018843F6F070491E00EA0110916808439060039990
:2034CC0002988A680399C06EC968114306F072FF03980068032106F0F3FF07B000BDC04615
:2034EC003004002000050020B8AF0000C0AF00004004002010050020B0AF000000B5ADF126
:20350C001C0D01910090FEF717FB4FF0FF3006F019FA0290029800284CD10020049003A905
:20352C0004AA0DF10E0005F023F800283CD101208DF81400BDF80E0010281FD13948BDF8A5
:20354C000C100088884219D104980690069800884FF6FF7181420CD106984088000901D317
:20356C0004F00CFB06984088800907D305F092FE04E0049805F092F98DF81400049898B178
:20358C009DF8140080B1049806F078F90CE02648006806F03BFA0590059828B1059804F0B9
:2035AC002CFC059806F02EF91F48006807F082FC0028ECD01D480088C00810D31B49088869
:2035CC0020F0040008801A480078012802D1194807F0E4F91848007808B107F0B1FB1348A9
:2035EC000088000A10D31149088820F0800008801248006800220A2105F0F0F90F4800689C
:20360C000F21002205F0EAF908480088400AFFF47CAF0649088820F4807008800849002058
:20362C00087072E7D233002098330020CC330020D935002030310020D0350020A4330020B3
:20364C00D835002000B5ADF1340D009007F00AFC0190019803F0D4FB0290002003900020BF
:20366C00049007F01DFB8DF820009DF8200018B19DF82000012802D16FF004007EE002986C
:20368C0010B96FF0040079E00098406810B90020059012E000984068B0F1FF3F03D14FF0B7
:2036AC00FF30059009E00098406805A903F076FB0790079808B1079860E00120079007F082
:2036CC00CDFB0599081806903FE008A804F008F90790079800BBBDF824000BA903F064FE2B
:2036EC00B0B900988368BDF826100A9ABDF82C00984768B1BDF82C0000998881BDF826000C
:20370C000099C8810A98009908610020079023E00A9903A804F0B6F9012007900498401CBC
:20372C0004900598B0F1FF3F0FD0059868B107F095FB0699081A0C900C9868B105980C99F5
:20374C00884200D208E00C98059002980599406807F080FB0028B8D102980399083004F03B
:20376C00C7FC049848B10298406807F06FFB0498401E049004980028F5D107980DB000BD11
:20378C0000B5ADF1140D01910090019800F0FF008DF80C000198000803D301993E4848404F
:2037AC0001909DF80C103D4850F821000290019802994840009900220140480E00D3012237
:2037CC008DF80D20009902988843029000980199084033490140029801430291009800F467
:2037EC00E020B0F5E02F02D10298400E22D3009810F4E02F15D19DF80D00D8B111E0029812
:20380C0020F4E0200290029840F4A020029011E0029820F4E0200290029840F4C020029065
:20382C0008E0029800F4E020B0F5A020F0D0B0F58030E4D09DF80C201848029940F82210B2
:20384C000098C00D09D30198C00D01D3012000E000209DF80C10134A50540098000E18D37D
:20386C0007F008FB04909DF80C10012088400E49096881430198000E04D39DF80C20012028
:20388C00904000E00020084307490860049807F0EDFA05B000BDC046006000A000100840FF
:2038AC00007F077F00200240D020024000B5ADF1240D8DF8000077E000200DF1010104F0EF
:2038CC00C3FA78E001200DF1010104F0BDFA00208DF818009DF8180010286CDA9DF8181056
:2038EC006944491C097807A801703449012207A804F0B2FD70BB3249012008709DF818002B
:20390C00401C684440788DF820002E4841F2707104F05AFD15E09DF818002B49401C684443
:20392C00401C0088088046E09DF818002649401C6844401C006808603DE02149002008707A
:20394C0039E09DF82000401EE5D0401EECD0FD38F3D030E007A804F0E9FD08900898C8B11E
:20396C009DF818000DF10101401C095C0898807D88420FD09DF818000DF10101401C085C1A
:20398C00052807D09DF818000899401C6844407881F82E009DF81800801C8DF818009DF8E7
:2039AC00180010289ADB06E09DF80000002883D0401E87D0FFE709B000BDC04619360020BA
:2039CC00D8350020543100204833002000B5ADF15C0D029101900198406814900198806828
:2039EC00159007F047FA0F90149890F89800012804D10F9807F03AFA002062E01499012073
:203A0C0081F898000F9807F031FA029820B910A806F066FF10A802900298C168019801F0A3
:203A2C003BF808B100204CE00298149900780870029814994068486002981499007AC8608B
:203A4C0003A806F04BFE019808900020159900901D4A1498496803AB103007F00FFA03A884
:203A6C0006F093FE01208DF824001498012103AA2C3007F007FA1498007840B91498002130
:203A8C0003AA483007F0FEF910491498416014980021017214980021816714980021C16777
:203AAC001598007A00F0BCFE019803F04FFC00200090074A1498019B0421843005F066FDD8
:203ACC00019817B000BDC046012E0000C59B0000719D000000B5ADF11C0D019100903B48F9
:203AEC0007F00CF94FF0FF3107F0B4F90020029001208DF80C000020049019E034489DF889
:203B0C0014100068884205D99DF81400314951F8200018B100208DF80C0016E09DF81410B0
:203B2C00012088400499084304900298401C0290019850B10298019951F8200000F0FF0066
:203B4C00C0B2FF288DF81400D8D19DF80C0010B90020009031E00098002101600098002180
:203B6C0041600098002181600020029018E09DF81410184A009842F821009DF814200099E4
:203B8C00012090404A68104348600298019951F820201149009804F001FF0298401C029050
:203BAC00019850B10298019951F8200000F0FF00C0B2FF288DF81400D9D1044807F09EF81E
:203BCC0007F044F9009807B000BDC0468032002094330020F82E0020007FC76700B5ADF194
:203BEC00140D009000984068029000988068039003980068012106F05FFA049003980499E3
:203C0C00006806F03CFF049840082ED303980068012106F061FC0298406D18B1009800F00A
:203C2C0061F85AE00398006806F021FD03980068032106F039FC039902988A680399C06E8A
:203C4C00C968114306F084FC2548016803980068B0F1804F02D14FF4807001E040F20110EA
:203C6C008847009802F05EFC37E002980399C06EC96805F09DFD50B103980068022106F02D
:203C8C0013FC02980399C06EC96806F061FC02980399C06E896805F08BFDF0B103980068AB
:203CAC00012106F001FC02980399C06E896806F04FFC0298406D002101740298406D019098
:203CCC000298406D406805F023FA0298002141650298019982680098904705B000BDC04671
:203CEC007800001000B5ADF11C0D009000984068019000988068039007F0BCF80590019867
:203D0C00406D18B9059807F0B1F865E0059807F0ADF80398006806F0AAFC03980068032198
:203D2C0006F0C2FB039901988A680399C06EC968114306F00DFC03980068012106F0CCFB6D
:203D4C0003980068012106F09AFE2448016803980068B0F1804F02D14FF4807001E040F243
:203D6C0001108847009802F0DDFB0198406D406805F0CEF90198406D007C042803D00198F1
:203D8C00406D03210174039901988A680399C06EC968114306F0C4FB03980068B0F1804F33
:203DAC0001D10F4800E00F4804900198426D0498816843F6F07008401168A1EB1011491EC8
:203DCC0011600198406D02900198002141650198029982680098904707B000BD78000010A5
:203DEC0030040020000500202DE9F843804606F039FF002100B901213A4D2D1F2868002872
:203E0C00FCD0DFF8DC90012609F10407FC6A2E6009B106F02DFF3448C4F3072100F1080433
:203E2C00616006F01FFF0146002001B93046014628680028FCD03F682E6009B106F018FF43
:203E4C00C7F38441A8F5C060A160B8F5C06F2060B4BF6FF001030223626803EB40030320A4
:203E6C0093FBF0F00918104602290FDB1E290BDB3F28B9BF521C401C3F22101CE26030293E
:203E8C00B4BF10391F210DE0E0600BE010F13F0FACBF401E6FF03F00E06011F1100FACBF80
:203EAC0010310021216180B24FF47F42082330210090484603F0BEFC0096484604214FF409
:203ECC000032112303F0B6FC208A04214FF4F80212230090484603F0ADFCBDE8F883C046AA
:203EEC0000A00C4004800C406839002000B5ADF11C0D00208DF8140000208DF8150000202A
:203F0C008DF8160036480068069040E00698002832D0069890F82D0050BB0698407D06F0E7
:203F2C0065FE28B306999DF8140015310978684401709DF81400401C8DF814009DF81400C4
:203F4C00411C8DF814100699897D00F80D109DF81400411C8DF81410069991F82C1000F88A
:203F6C000D100699012081F82D0001208DF816000698006B069002E01A48006806901848B5
:203F8C0006990068884202D101208DF815009DF81400122803DA9DF815000028B6D0069800
:203FAC000F4908609DF81600B8B19DF8140014280BDA9DF81400411C8DF81410002100F88F
:203FCC000D109DF814001428F3DB002014216A4602F0E2FD00208DF8160007B000BDC046FA
:203FEC00283600201C36002008B53848006800900098002869D03648007801280CD135481E
:20400C000078012808D134480078052804D032480099007881F82E000098807D00283AD12B
:20402C000098407D06F0E2FD002834D00099012081F82E002FE00098807D48B90098407DC3
:20404C0006F0D4FD20B10099012081F82E002CE000980099807D81F82E0026E00098807DDF
:20406C00012803D00098807D032809D10098407D06F0BCFD20B10099022081F82E0014E073
:20408C0000980099807D81F82E000EE00099022081F82E0009E0009890F82E0028B1401E81
:2040AC00C9D0401EDAD0401EF0D00098009990F82E00897D884202D008490120087000982A
:2040CC00006B00900098002895D108BD1C360020D83500204833002049330020D7350020EC
:2040EC000EB52C482C4904F06BFF2C49002008702B494FF6FF70088004F044FE29490870CD
:20410C0000202A4900900120019027480022002303F000F8002025490090022001902448E2
:20412C000022002302F0F6FF0020204900900420019020480022002302F0ECFF1E49062062
:20414C0008701E481022002102F000F91C480021102202F0FBF81B49002008601A4900202C
:20416C0008701A4900200870194907200870194900200870114A0220102103F0C7FD104A06
:20418C000320102103F0C2FD0E4A0420042103F0BDFD0EBDD0330020C4330020DC3300208B
:2041AC0094360020DF3300207831002095AC00009C310020C0310020DB3300200C33002042
:2041CC001C330020A0330020D9330020D8330020D7330020DA33002038482DE9FC47006882
:2041EC000068014620208847354DDFF8D8A04FF002080F2000214FF4C072072345F82D0C76
:20420C0041F61D5045F8290C5046CDF8008003F011FB2D4C012644F8046C54F8040C800872
:20422C00FBD3DFF8A890B9F8000045F81D6C01281FD0032045F8390C0027276020688008A3
:20424C00FCD23946504660220523009103F0F2FA266020688008FCD345F8216C45F8397C34
:20426C000820C5F8FF0FC5F8F30F45F8396C464620E00027E760032045F8390C27602068F0
:20428C008008FCD2CDF80080504639466022052303F0D0FA266020688008FCD3202045F819
:2042AC00210C45F8397C0824C5F8FF4FC5F8F34F45F8396CC9F80460BDE8FC87A0010010BD
:2042CC0039400C4000A00C4038600C4068390020F8B506F0C7FC314C256805F00C000C28D7
:2042EC0055D0E8082ED22E480068EFF3118780F311882C4EB068002106F0A4FD7169B269FA
:20430C00091A8A4238BF002187F3118826480068884217D22548264A264D03681268286829
:20432C00B3FBF2F22018891A06F088FD2868201806F080FD0120FDF785FA2868201806F0FC
:20434C0075FD25E0280922D21B48690939BF016821F00101016841F0010102460160D2F85D
:20436C0098004FF0805440F00300C2F89800D4F8B8018069014620208847D4F8B8010F4C5D
:20438C00806B2168804701202060206800E030BF06F06EFC02F0CFFCF8BDC046BC360020F4
:2043AC0028B200007801002020B2000024B200002CB2000010B200008C2108402C200940AC
:2043CC0080B502AFADF1200DADF8143004920391ADF8080000208DF81600FF208DF81700EA
:2043EC000398007A800901D308205BE003980078022841D1039803994068496840780978C4
:20440C0000F0FF0001F0FF0101EB0021ADF8181025E0388810B10B208DF816009DF81600DF
:20442C0068BB03980499BDF81420C06801F098FA01208DF8170022E03888009001200190C0
:20444C00BDF814300399049ABDF8080001F0BAFB8DF8160013E00A208DF816000FE0BDF8C3
:20446C00180042F60211401AE6D04DF2EF61401A05D0401ECDD0EEE701208DF816009DF8DE
:20448C001700FF280CD00848006848B106480068006828B10448006801689DF817008847B6
:2044AC009DF8160008B080BDCC39002000B5ADF1140D8DF804100090342004F0D9FC0290DF
:2044CC00029808B900205BE000980299007B087200980299C07A81F82C00029800210163C1
:2044EC0006F0BCFC02998862009A00990298127B0969093001F034FA00990298491D0A684E
:20450C00801C02608988818002980299807D81F82E000299002081F82D009DF80400A8B94B
:20452C001848006870B117480068039002E00398006B03900398006B0028F8D10298039984
:20454C0008631CE002980F49086018E09DF80400012814D10C48006870B10B4800680390C4
:20456C0002E00398006B03900398006B0028F8D102980399086302E0029803490860029852
:20458C0005B000BD1C360020203600200EB501910090009808B900205CE0019858B92E48FB
:2045AC0000990068884206D02C4800990068884201D000204EE02A4800990068884202D1E0
:2045CC00274900200860274800990068884202D124490020086020480099006888420ED0C4
:2045EC001E4800990068884209D000980199006B0863009805F006F90198006B2AE01648A5
:20460C000099006888420FD100981349006B0860009805F0F7F81048006808B9002019E006
:20462C000D480068006B15E00C480099006888420FD100980949006B0860009805F0E2F82E
:20464C000648006808B9002004E004480068006B00E000200EBDC0461C36002020360020FB
:20466C00243600202836002080B502AFADF1280D05938DF810200391029000208DF819004C
:20468C00029828B1039818B1059808B1B86808B9022052E000208DF8180046E09DF818100C
:2046AC00029800EB81000790079800884FF6FF71814235D007988078002831D0398805988F
:2046CC00039A03F073FB0890089848B307988078400810D338790090B8680190089B0798A7
:2046EC009DF810200088012100F0FAFE9DF8191008438DF8190007988078800810D33879FD
:20470C000090B8680190089B07989DF810200088022100F0E5FE9DF8191008438DF8190020
:20472C009DF81800401C8DF8180005489DF8181000788842B2DC9DF819000AB080BDC04642
:20474C00DF33002000B5ADF11C0D0191009000208DF80800009840680490009880680590E7
:20476C000198406828B90198C06810B99DF8080053E00498007801281AD106F07BFB03908A
:20478C000498806F58B104990198C96F886101980499C867039806F069FB01203DE00198F1
:2047AC000499886701980499C867039806F05EFB05F068F904982C3006F09AFA4FF0FF31CB
:2047CC0006F048FB0598406806F02CFB0098019900F028FD0598406806F020FB0498007881
:2047EC0080B90498483006F083FA4FF0FF3106F031FB05F033F90498007A30B901208DF896
:20480C00080002E001208DF8080004982C3006F06FFA06F01BFB9DF8080007B000BDFEE79B
:20482C002DE9F04105462E480068EFF3118880F311882C4A505D411C0028515549D12A4C97
:20484C00A900675C07F03F003F280C4401D0FFF7E7FF607800F03F003F2801D0FFF7E0FF32
:20486C00668837F07F0019D1F80911D24FF08054D4F8B801406901463046884704F5DC74B4
:20488C002068406B0146304688470128F8D120E0164850F82610012088471AE04FF0805482
:2048AC00D4F8B801C069014630468847D4F8B801406A014630468847D4F8B801C06A014601
:2048CC003046884701210A4A0A48116001688908FCD388F31188284605F0E8F8BDE8F08118
:2048EC0028B20000E8330020C8AF00000034002028200860282008400EB506F0AFFA00909A
:20490C002D4800680190002002900198002832D00198816A0098401A2849814223D2019870
:20492C00407D06F063F9C0B10BE001980299FFF72DFE01901CE0019802900198006B01905E
:20494C0016E0019890F82E000028EED0401EECD0401EF0D0401EEED00AE001980299FFF7B8
:20496C0015FE019004E0019802900198006B019001980028CCD11248006801900020029080
:20498C000198B8B10198816A0098401A0B49814208D201980299FFF7F9FD0190094901207E
:2049AC00087004E0019802900198006B019001980028E7D10EBDC0461C36002020A107004B
:2049CC0020360020D73500202D492DE9F0410968EFF3118881F311882A4B195C4A1E0129F7
:2049EC001A5449D12849800045180E5C6F8836F07F0019D1F00911D24FF08054D4F8B80171
:204A0C00806901463846884704F5DC742068406B0146384688470228F8D120E01D4850F85D
:204A2C002710002088471AE04FF08054D4F8B801006A014638468847D4F8B801806A0146FE
:204A4C0038468847D4F8B801006B01463846884701210E4A0E48116001688908FCD306F079
:204A6C003F003F2801D0FFF7AFFF687800F03F003F2801D0FFF7A8FF88F31188BDE8F08101
:204A8C0028B20000E8330020C8AF000028200860282008400034002000B5ADF1240D0191D4
:204AAC00009000200790009880680290019840B90298007B8DF80C000298407B8DF80D0072
:204ACC0007E0019800788DF80C00019840788DF80D009DF80C00FF2803D09DF80D00FF28FA
:204AEC0002D14FF0FF3035E09DF80C101A48084307994A1C07920DEB810108619DF80D10C2
:204B0C001548084307994A1C07920DEB810108610798411C0DEB80000791FF210161104879
:204B2C0004A9FEF7D7FF0D4908600C48006810B94FF0FF300EE009489DF80C1000680D22B9
:204B4C0003F00CFF05489DF80D1000680E2203F005FF002009B000BD00200084AC33002084
:204B6C006C3300200EB500904AE000982C49C01C02680A60808888802A480078202104F001
:204B8C00F1FB8DF804004AE00098C0780022022800D101220098C078002100B9012111433A
:204BAC00009AD2780020032A00D10120084314D0009800F09FF88DF804009DF8040018B18D
:204BCC009DF8040001282AD19DF80410009803F045FA9DF8040010B321E00098C078042840
:204BEC001DD11CE010480078C8B103200021002203F074FE8DF804000F2004F0B9FF0EE059
:204C0C00009880780028B0D0401EEBD0401E06D0401E04D0401E02D00938B5D0FFE70EBD2A
:204C2C0080330020D2330020D035002000B5ADF1140D8DF800002549254809880088884294
:204C4C0011DC244821490088098888420BDB2348214900880988884205D1224820490088D3
:204C6C00098888422BD0052003F0D6FAADF804001D480088ADF8060015480088ADF8080017
:204C8C0014480088ADF80A0014480088ADF80C0014480088ADF80E000DF1060005F0BCFB99
:204CAC008DF801009DF8010060B99DF800000F490870BDF804100E4803F086FB02E01820A1
:204CCC008DF801009DF8010005B000BDA63600209E360020A0360020A8360020A23600205E
:204CEC00AA360020A436002094360020AE360020C03100200EB5009000208DF8040000981B
:204D0C00C0780022022800D101220098C078002100B901211143009AD2780020032A00D1ED
:204D2C000120084343D03AE000999DF804000969401C085C092827D10098009A9DF8041066
:204D4C009DF8043000691269891C40189A5C1949521ED2B203F080FB08B9002028E0009862
:204D6C00009A9DF804109DF8043000691269891C40189A5C1049521ED2B203F06DFB08B9DB
:204D8C00012015E0022013E000989DF804100069085C9DF804104018401C8DF80400009850
:204DAC009DF80410007B8842BEDC032000E004200EBDC046D1350020DC35002000B5ADF1BD
:204DCC00140D009006F04EF800F088FC029005F02DFC0390002001900198072840D20199FE
:204DEC00880000EBC1002349085A18BB0199880000EBC10000991F4A8988115201991E4A8C
:204E0C00880000EBC100029911500199880000EBC1000099194A89681150BDF804000099E8
:204E2C0088810298009940680861039805F0A8FA00201CE00199880000EBC1000D49085A45
:204E4C0000998988884205D1039805F099FA6FF002000CE00198401C019001980728BED3AD
:204E6C0003F076FC039805F08BFA6FF0030005B000BDC046742F0020782F00207C2F00207D
:204E8C0000B5ADF12C0D009000988068002832D10C20FEF7E9F90190019810B96FF00300E7
:204EAC0047E002A805F056FC0020ADF818000020079001980890009841681F4802AA002392
:204ECC0005F0A8FF019908600198006838B905F00DFA019803F022FD6FF0030029E000988C
:204EEC000199C0684860009801990069886001980099886012E00098806801900F480068DD
:204F0C00804702900198006805F090FF00980199006988600A4801680298884701980099CE
:204F2C000068496805F08AFF0198006805F082FF00200BB000BDC04629A90000BC390020D2
:204F4C00C039002000B5ADF1140D019100900098406803900098806804900198006808B9ED
:204F6C0000204DE005F086FF02900398406D38B1029805F07BFF01980321017400203FE021
:204F8C00019801210174039901984865029805F06DFF039890F8700040B10399039891F8B4
:204FAC0059201849806E114303F06AFB0498006805F068FB00980199FEF7FCF904980068F5
:204FCC00012105F095FA0198406804F0BDF803980078A0B90398383005F096FE03994968F0
:204FEC0005F038FF58B90098FEF77CFE0398383005F08AFE002105F02DFF002000E001207E
:20500C0005B000BD0000068008B52748007802280BD1254900200870002005F0BFFD20B932
:20502C00224800680168032088471F48007801280BD11D4900200870042005F0AFFD20B9B7
:20504C001A480068016802208847174909780020012900D1012050F0020021D01249002055
:20506C000870042005F09AFDD0B9002005F096FDB0B906E00F480E490068B1FBF0F005F0E5
:20508C00C5FE042005F08AFD0028F3D0002005F085FD0028EED00548006801680420884728
:2050AC0005490120087008BDB6390020B0390020A08601002CB20000B739002041F21C308C
:2050CC0010B5C5F200000468B4F1FF3F08BF002405F042FC40F2844346F25C01002242F2F7
:2050EC00082E012040F2801CC4F26023C4F20C011A60C4F2043E0860C4F2283CCEF80000C9
:20510C00DCF8000038B140F20010C4F2203000682046FBF765FA44F20402C4F203021068F0
:20512C00052142F24803C2F20001C4F2030320F003000143116019684FF0000EC0F2391EAE
:20514C006FF35B414EEA01000421C4F2090118600868C0F30130012809D10A684FF6FF7032
:20516C00CFF6FC40104040F400320A60086010BD0EB52848006800284AD027480088ADF854
:20518C000000264ABDF800301288002100209A4200DD012000B101218DF802109DF80200F8
:2051AC0038B11E480188BDF80000401A00F5806004E01A480188BDF80000401AADF80400A0
:2051CC00BDF8040000B39DF8020098B11348144900880918114802880E480068C2F58062DC
:2051EC0005F092F90B48BDF800200D49006805F08BF909E009480A49008809180548BDF88C
:20520C000420006805F080F9BDF80000034908800EBDC046043A0020003A0020023A00201A
:20522C00281F002000B5ADF1140D019100900098406802900098806803900299019848669E
:20524C000198029900688866019802994068C866019802998068086701980299C068486718
:20526C000298C06ED0B102990398496E0068097C002204F0C5FC02980121017202998A6E66
:20528C0012F8011B0398029B00689A6605F0D0F803980068032105F0B3F919E00299039888
:2052AC00496E0068097C012204F0AAFC0298022101720298406F022805D2039800680321E0
:2052CC0005F09EF904E0039800680B2105F098F905B000BD00B5ADF1140D009005F0C2FD73
:2052EC0000F0FCF90290029820B903F031FA6FF003003EE005F09AF90390002001900198B5
:20530C0007282FD20199880000EBC1001A49085A10BB0199184A880000EBC1004FF6F87115
:20532C0011520199154A880000EBC100029911500199134A880000EBC10000211150BDF873
:20534C000400009988800298009940688860039805F016F800200CE00198401C0190019810
:20536C000728CFD303F0F4F9039805F009F86FF0030005B000BDC046742F0020782F00207B
:20538C007C2F002029482DE9F84FD0F80090EFF3118589F31188264CA068012105F052FDA3
:2053AC004FF0010A4FF00008064621686769A4F81CA02068A4F81E80791A321A8A42A6EB55
:2053CC0007062DD385F311884546EF195046394605F018FD761B0546B542F6D9EFF3118BD1
:2053EC0089F31188E08B012804D14046394605F009FD0546B5F1FF3F06D0A169AD1BA94261
:20540C0038BF0D1CE91901E0A5697919284605F0F5FCA4F820A0A4F81C805D46276001E0EA
:20542C00A4F81C8085F31188BDE8F88F28B20000780100208CB504AFADF80630ADF80420E0
:20544C00ADF80210ADF800001F480078062801D0142038E0BDF80000062833DBBDF8000014
:20546C00B0F5486F2EDABDF8020006282ADBBDF80200B0F5486F25DABDF80400B0F5FA7FE9
:20548C0020DABDF806000A281CDBBDF80600B0F5486F17DABDF800000C490880BDF80200D1
:2054AC000B490880BDF804000A490880BDF80600094908803878FFF7B9FB084805F078FACA
:2054CC00002000E018208CBDDC3300209E360020A0360020A2360020A43600209C31002047
:2054EC0090B503AFADF1240D04938DF80F208DF80E10ADF80C00BDF80C001B214FF6FF7288
:20550C0008AB03F0C7FB07900798002837D000200090BDF820000190FF2002907C6804996A
:20552C00079ABDF80C000DF11A03A0478DF822009DF82200D8B904984089ADF818009DF855
:20554C000E00400809D3BDF80C009DF80F2006A904F0D5F88DF8220009E0BDF80C009DF832
:20556C000F203B7806A904F041F88DF822009DF8220038B106A81B2104F00CFB02E015201E
:20558C008DF822009DF8220009B090BD00B5ADF1140D019001990198896840680860002042
:2055AC000390039838BB142005F02EFB03990DEB8101886003980DEB80008068A8B90020F2
:2055CC0004900398049988420CD904980DEB8000806805F03BFB0498401C04900398049959
:2055EC008842F2D86FF003001EE00398401C039003980028D7D000200390039898B90020F8
:20560C0000900A4A039903980DEB8000515C019A80689368064A03F0B9FF0398401C03903B
:20562C0003980028EBD0002005B000BDFFB000009577000000B5ADF1140D009005F030FB6F
:20564C008DF810009DF8100018B19DF81000012802D16FF004003AE005F004FC019004F0A3
:20566C00E5FF029000200390039807282AD20399880000EBC1001749085A00B922E0039946
:20568C00880000EBC1001349095A00988088884212D1039A900000EBC2000F4A10580268B9
:2056AC0001980021904200D1012100988160029804F066FE00200AE00398401C03900398C5
:2056CC000728D4D3029804F05BFE4FF0FF3005B000BDC046742F0020782F002000B5ADF13E
:2056EC00140D009004F0A2FF029000200190019804283DD20199880000EBC1001F490858AB
:20570C00E8B90199880000EBC1001C49091803910098039908600398002181600022002178
:20572C00002005F067FB039948600398406808B903F00EF8029804F023FE03981CE00199C5
:20574C00880000EBC1000D4908580099884209D1029804F015FE0198810001EBC00107485F
:20576C00401809E00198401C019001980428C1D3029804F005FE002005B000BDB8300020D2
:20578C00F8B5264C2068EFF3118680F3118824491D4D0B680420B0FA80F043F00403281ACD
:2057AC001F3002780B60521C027086F311882068EFF3118380F311880A680820B0FA80F0F9
:2057CC0042F008022D1AE87F0A60401CE87783F311880E20FFF724F80C480068C0F381501F
:2057EC00032814BF0020012009490A4A088017683FB9094C402020600123D3610020486064
:20580C00F8BD0120F8BDC046FB330020B43F00506839002004800C402C500C4028B2000027
:20582C00BC360020F0B520480127F84201D002F0EFFB204D204F214EBD4206D203CD0478C0
:20584C00A4003459401CA047F6E71D48002800D08047164D164FBD4202D210CDA047FAE787
:20586C00F0BD03251BE0416808300A1C2A400BD11A1C2A40AB4305D0046804300C6004315B
:20588C00043BF9D1131C05D0047801300C700131013BF9D1021C2A4001D0A84304300368AB
:2058AC00002BE0D17047C046FFFFFFFF000000000000000020B80000A8B80000A0B70000B8
:2058CC0059C5011000B5ADF14C0D05F0F7FA0190002000900098002832D102A804F0A0FFBA
:2058EC0000981A4951F8200008900098184951F820000A900098174951F820000690009815
:20590C00154951F8200007901448002202A905F06DFA1190119808B902F01AFF04F086FE0A
:20592C0012901198FFF7DAFE08B902F011FF129804F026FD0098401C009000980028CCD0DE
:20594C00019805F0A3FA13B000BDC0467CB1000080B1000078B10000B83900206DA40000E1
:20596C00002A4AD05FEA000C8B071CD1830722D1102A08D370B4103A78C978C0103AFBD273
:20598C0070BC103238D0042A2CD3082A05D30C2A24BF08C908C008C908C008C908C09207D1
:2059AC002AD0920F22E00B780370491C401C521E22D08B07F7D1C30714D18307D8D0121FB9
:2059CC0012D308C903801B0C4380001D121FF8D20AE008C903701B0A43701B0A83701B0A3D
:2059EC00C370001D121FF4D2121D05D00B780370491C401C521EF9D1604670470EB50090AF
:205A0C000098C0680C3802900098C088072803DA00988088072802DB6FF0020036E004F0E1
:205A2C0005FE01900098C188880000EBC1001849085828B9019804F0A3FC6FF0020025E07D
:205A4C00019804F09DFC0098029900790871009802998079487100980299007A88710098CC
:205A6C00C188880000EBC100094908580099C968083002F007F80098C188880000EBC100E3
:205A8C0003490858406805F0E1F900200EBDC046782F00200EB58DF8041000900098002873
:205AAC003AD09DF804100120884000994968084232D09DF80410009A0120884051688143FF
:205ACC0051609DF80410154A002042F8210014499DF80400085CFF2809D19DF80410114829
:205AEC0001F0FF0141F02041FDF74AFE0AE09DF804000B49085C0C49096851F82010094810
:205B0C00FDF73EFE9DF804004FF0FF3100F0FF0002F012FC002000E002200EBDF82E00201F
:205B2C00E4310020007FC767C033002080B502AFADF1180D039302920191ADF8000000203A
:205B4C008DF810000198007A400901D3082037E03888002801DD0B2032E0019800780228F7
:205B6C0026D101980199406849684078097800F0FF0001F0FF0101EB0021ADF8141010E0B7
:205B8C0003981421018001990298C9681422FFF7E7FE13E00398002101800A208DF8100043
:205BAC000CE0BDF814004FF6F171401AE8D0F1E703980021018001208DF810009DF81000FB
:205BCC0006B080BD80B502AFADF1180DADF80C3002920191ADF8000000208DF80E003888FE
:205BEC00002833D1BDF80C0002282BD1029802994078097800F0FF0001F0FF0101EB00212B
:205C0C00ADF81010B988BDF81000884316D10199C968BDF80000096804F082F8BDF81010C7
:205C2C00814216D00199BDF80000C968BDF81020096802F038FA8DF80E000AE080208DF813
:205C4C000E0006E00D208DF80E0002E00B208DF80E009DF80E0006B080BDF8B5064603F062
:205C6C00ADFE43F2F825C2F200056F68044603F030FD2A69E41B4FF47A716143090C801A0E
:205C8C0048BF404240F6B83289198A4216D3062814DAA968E868814210D82A6872B1401AC1
:205CAC0044F24021C0F20F014143080C00EB9140824212D91046C82811D312E043F6AC710A
:205CCC00C5F200014868400828BF4FF4FA600DD209687D2001F0FF014843C82801D2C82070
:205CEC00F8BDB0F57A6F88BF4FF47A60F8BDFEE70EB501910090019800F0FF008DF809005C
:205D0C00009828B11B489DF809100068884201D802202DE0184804F0F1FF4FF0FF3105F013
:205D2C0099F89DF80900154951F8200018B101208DF8080015E09DF80910104A009842F81B
:205D4C0021009DF809200099012090404A681043486000980A49019A02F020FE00208DF8E6
:205D6C000800054804F0CAFF05F070F89DF808000EBDC0469433002080320020F82E00203B
:205D8C00007FC76700B5ADF1140D009005F06AF8019004F085FF8DF810009DF8100018B1E3
:205DAC009DF81000012802D16FF004002CE004F03DFC029000200390039807281FD20399FE
:205DCC00880000EBC1001149085AC0B10399880000EBC1000E49085801680198884208D12A
:205DEC00BDF80C0000998880029804F0C9FA00200AE00398401C039003980728DFD302983A
:205E0C0004F0BEFA6FF0040005B000BD742F0020782F002008B58DF801108DF800001A4831
:205E2C0004F078FF1749164A0968B2FBF1F105F011F808B9002022E09DF8010013490870E0
:205E4C0013489DF800100078884217D09DF800000F4908700F48006804F048FE0E4804F065
:205E6C003FFD0B480078012802D10D480B4908600949002003F0B2FC06490860012008BD52
:205E8C00A02526002CB200009C320020E0330020DE330020B83300202C33002038330020C6
:205EAC0086B000000EB5009000980079E0B104F0BDFB01901C480078FF2805D1019804F008
:205ECC005FFA6FF006002EE017490878401C087015480078012803D11448006802F008FAAC
:205EEC00019804F04DFA1DE004F0A0FB01900E48007828B9019804F043FA6FF0070012E0D4
:205F0C0009490878401E08700748007838B9019804F036FA0548006802F0C6F902E0019877
:205F2C0004F02EFA00200EBDE8390020EC39002038B5042003F009FE1A4C022818BF03282B
:205F4C001FD103200090164800214FF040521C2301F070FC17480068EFF3118380F311885D
:205F6C0015480421B1FA81F1401AC17F4A1E0129C27703D1206820F00400206083F3118812
:205F8C0038BD094D0A48094A296803686018B2FBF3F104F053FF2868201804F04BFF38BDBF
:205FAC0000A00C40BC36002014B20000A08601002CB2000028B20000FB33002010B51A48BD
:205FCC001A490078086820F0030040F00100086002F003FE01F080FB0021154C15482160FF
:205FEC000068C0680146022088471349134A086820F0010008601068D4F8EC1FEFF3118465
:20600C0080F311880E4B0F481A680421B1FA81F1401A42F00402C17F1A60491CC17784F394
:20602C0011884FF0FF3010BDD63300200440034040100940A00100108C21084028B20000B7
:20604C00BC360020FB330020F8B505461E480068EFF3118780F311881C4C20684FF0805683
:20606C0040F080002060D6F88C014068014601208847D6F8B001006A0146142088472869E6
:20608C0006F5C675810C14BF010C04212868406A024601209047D6F884010068232102466B
:2060AC00002090472868C069014601208847206820F4C02040F480302060206840F0010054
:2060CC00206087F31188F8BD28B200000020094000B5ADF1140D009004F0C4FE0190019845
:2060EC0000F08EFE029004F0DBFD8DF810009DF8100018B19DF81000012802D16FF00400B3
:20610C0026E0029810B96FF0040021E00098406810B90020039012E000984068B0F1FF3FD9
:20612C0003D14FF0FF30039009E00098406803A900F034FE0490049808B1049808E0029880
:20614C000399406804F086FE08B1002000E0012005B000BD41F2A00010B5C5F20000D0F814
:20616C00781203680A0F03F0FF03802B28BF0023D0F878024BF69A11C0F30F344FF0FF30C9
:20618C00A14213D02431A14207D04BF62031A1421DD1E2B90A3358B210BD12B1921E02D0C7
:2061AC0010BD0A2010BD143358B210BD521E0DD0921E04D0121F04D0521E04D010BD1420D6
:2061CC0010BD152010BD163358B210BD0A2010BD00B5ADF1140D009000988068039000981E
:2061EC00406802901848006803F02EFD0398006804F02AFC0398006803F04AFE03F02EFCFB
:20620C000398007AFEF7E0FB0298103004F0EAFD02982C3004F0E2FD0298007818B9029892
:20622C00483004F0DBFD0298843004F097F804F021FE01900299002081F89800019804F040
:20624C0015FE05B000BDC046AC33002000B5ADF1140D009001208DF8040027E00098FAF76A
:20626C004FFF8DF8040027E00098029002984079132821D1029808300390039800880128D9
:20628C0009D10F480078022805D10E4804F090FB03F04EF810E0052001F0BEFFADF81000C3
:2062AC000848BDF8101002F08FF805E000980078A238D9D02E38D1D09DF8040005B000BDAA
:2062CC00AE360020C031002000B5ADF11C0D1A490020087004F0F2FB00208DF8000001217E
:2062EC0040F205306A46FAF763FC8DF8010003F01FF8124800680190019860B101990020E4
:20630C0081F82E000198002181620198006B019001980028F2D102A80021142200F016F815
:20632C000020142102AA00F037FC054804F040FB02F094FB07B000BDD93500201C3600201C
:20634C0030310020002213460A46194671B510F0030F0BD0002A82BF00F8011BB2F101024E
:20636C0010F0030FF6D1002A08BF71BD11F0FF0141EA0121042A18D341EA0141082A0FD331
:20638C000E46102A08D30C460D46B2F10F0312F00F0272C0103BFCD812F0080F18BF42C0D8
:2063AC0012F0040F18BF40F8041B12F0020F18BF20F8021B12F0010F18BF017071BDFEE702
:2063CC0000B5ADF1240D684604F00FFA01208DF81800124801216A4604F054FD1048016892
:2063EC004FF44070884701F01FF90E4804F078FA0D49012008700B49002003F0EFF90B4978
:20640C0008600B49FF2008700A49002008700748006808B904F0DEFC09B000BD9C32002088
:20642C00780000102C33002034330020B8330020E0330020DE33002000B5ADF11C0D8DF852
:20644C000C3002920191ADF80000BDF80000019B1021022201F044FD0490049810BB002036
:20646C000590029805A903F049FB04900498C8B9059840788DF818009DF8180060B90599F5
:20648C009DF80C00C979884206D1059881689DF80C200898FFF764FA059803F017FA9DF8FB
:2064AC00180002E0049803F06DF907B000BD70470EB50191ADF80000BDF800004FF6FF7152
:2064CC0081421DD100208DF8080012E09DF8080001994FF6FF7221F820209DF808100198D4
:2064EC0000EB8100002181709DF80800401C8DF808000B489DF8081000788842E6DC0EE09A
:20650C00BDF80000019901F0D9FB0290029830B102984FF6FF7101800298002181700EBD07
:20652C00DF33002010B5ADF1200D02900298406803900298806804900498006804F097F889
:20654C00049800680F2103F0C7FF04980068032104F095FA06A804F039FC0E480068046896
:20656C000398006900900398406901900399074A097E049852F821200399054B097B006833
:20658C0053F821300799A04708B010BD98AF000090AF0000C40100100EB50191009000F017
:2065AC00C5FC4FF0FF3003F0E1F9029016480088800806D31449088820F00200088000F083
:2065CC0095F811480088400806D30F49088820F00100088000F0C2F80B480088C00806D379
:2065EC000949088820F004000880F9F783FF064800880009D5D30449088820F0080008809B
:20660C00FEF702FDCDE7C046B43900200EB58DF8000017489DF8001050F821000190154810
:20662C000199084001909DF80000019900F0FF00084301909DF8000003F0AAFC10B14FF4AF
:20664C00800000E000200199084301909DF800100120884008490968084202D04FF4000089
:20666C0000E0002001990843019001980EBDC04600100840007F077FD020024008B5144886
:20668C00006830B11248006803F0DEFA10490020086010480068B0B90F4803F0F9FE104875
:2066AC000E4908600F49002008700B49002008700949002003F096F90649086005480068D3
:2066CC0008B904F087FB08490878401C087008BD8839002084390020443200205432002013
:2066EC0040420F00503200209C39002008B5002004F054FA98B91549087840F0020008706E
:20670C00134900200870134803F00CFE18B1114804F044F919E00F4804F040F915E00B4908
:20672C00087820F0020008700848007810B9094804F03EF90848006838B10548007820B9F7
:20674C000548006801680120884708BDB6390020B73900200C310020B039002008B50420F4
