:20000000D43F00201D89000001CA011001CA011001CA011001CA011001CA011001CA0110DF
:1C00200001CA011001CA011001CA011001CA011001CA011001CA01103FCA011082
:20003C0000B5ADF11C0D0292019100900098806804900098406803904FF0FF30069041E066
:20005C00039A127B00210020012A00D1012000B10121039880F87010002006903AE003992A
:20007C00002081F870000020069033E0029801781A480843059003980599806E05F074FEAF
:20009C0040BB049A039802991268806E0978B2F1804F01D10B2200E0232208F07DFD0398E9
:2000BC000399806E91F8591005F030FD02980399007881F85900002006900BE06FF0010005
:2000DC00069007E001982038BAD0401EC7D0401ECCD0F3E7069807B000BDC046002000808B
:0400FC000020704729
:200100003C000000000000000000000034010000000000000000000001000000000000006D
:1C01200000000000000000000000000001000000000000000800000000000000BA
:20013C00340000000000000000000000680100000000000000000000010000000000000005
:14015C00010000000000000000000000080000000000000086
:2001700030000000000000000000000098010000040000000000000001000000FFFFFFFFA5
:10019000FF00000001000000080000000000000057
:2001A0002C0000000000000000000000C4010000040000000000000001000000FFFFFFFF4D
:0C01C000FFFFFFFF08000000000000002F
:2001CC0034050000E401000099A1011095A70110A5C2011009B2011045B80110000000000B
:0801EC00000000002E000000DD
:2001F400280000000000000000000000140200000000000000000000FFFFFFFF00000000B1
:080214000800000000000000DA
:20021C00300500003002000069C201106DC101101FC2011095BA011000000000000000008E
:04023C00300000008E
:20024000300500005402000075C20110A9B601109DBF011049B601100000000000000000DE
:040260003100000069
:200264002400000000000000000000008002000000000000000000000000000008000000CC
:040284000000000076
:20028800240000000000000000000000A40200000000000000000000000000000800000084
:0402A8000000000052
:2002AC00240000000000000000000000C8020000000000000100000000000000080000003B
:0402CC00000000002E
:2002D00000000000DC2E00200400000000000000000000002000000070010000300000001F
:2002F0001C020000F02E00200400000000000000000000000C000000300400001800000036
:2003100040020000FC2E0020040000000000000000000000240000004804000018000000B5
:2003300000000000042F002004000000000000000000000010000000A00100002C00000079
:20035000CC0100000C2F0020040000000000000000000000200000006402000024000000B7
:20037000FFFFFFFF2C2F00200400000000000000000000002800000088020000240000001C
:20039000FFFFFFFF3C2F0020040000000000000000000000580000003C01000034000000F9
:2003B000FFFFFFFF442F00200400000000000000000000001000000060040000180000000E
:2003D000FFFFFFFF4C2F00200400000000000000000000001C000000AC0200002400000084
:2003F000FFFFFFFF542F002004000000000000000000000038000000F401000028000000F5
:20041000FFFFFFFF5C2F002004000000000000000000000054000000000100003C00000090
:1804300018000000000000000000000040040000080000000000000050
:1804480018000000000000000000000058040000080000000000000020
:18046000180000000000000000000000700400000800000000000000F0
:0804780001000000C0B5000006
:04048000808A7047B7
:040484000100000073
:0404880000000C0064
:04048C0000000D005F
:040490003200000036
:040494000200000062
:040498005C330020B1
:04049C00000200005A
:0404A0000000000058
:0404A40001CA011078
:0404A8000000000050
:0404AC00000000004C
:0404B0000800000040
:0404B4000000200024
:0404B800F0320020FE
:0404BC00010000003B
:0404C000142F0020D5
:0404C400080000002C
:0404C8000000000030
:0404CC00000000002C
:0404D0000000000028
:0404D4000000000024
:0404D8000000000020
:0404DC00010000001B
:0404E000BC33002009
:0404E400060000000E
:0404E800010000000F
:0404EC005C3200205E
:0404F0000000000008
:0404F4000000000004
:0404F80000020000FE
:0404FC0000000000FC
:02050000704742
:020502002A00CD
:020504000100F4
:020506002500CE
:020508003000C1
:02050A003100BE
:02050C002E00BF
:02050E000100EA
:0105100001E9
:080514000300000080B50000A7
:08051C000000000000000000D7
:0405240000000100D2
:0405280000000300CC
:04052C0087C401106F
:04053000380500008A
:040534003805000086
:0405380000000000BF
:04053C00800000003B
:040540008000000037
:0405440000000000B3
:04054800142F00204C
:04054C0073AE00008A
:040550002000000087
:040554003CB50000B2
:0405580048B40000A3
:04055C000DC30110BA
:04056000835D0000B7
:04056400AB5E00008A
:0405680099C801101D
:04056C009BC8011017
:040570000000000087
:04057400C4B500000A
:04057800C4B3000008
:04057C00DCB30000EC
:04058000ACB3000018
:0205840008006D
:0205860009006A
:02058800010070
:02058A0000006F
:01058C00016D
:040590000000000067
:040594000000000063
:04059800000000005F
:04059C00000000005B
:0405A0008DA9000021
:0405A400B58D000011
:0405A8003D9E000074
:0405AC002D8A000094
:0405B0000D750000C5
:0405B400C1940000EE
:0405B800716100006D
:0405BC004DA400004A
:0405C0004D78000072
:0405C40011C8011049
:0405C80021C8011035
:0405CC000800000023
:0405D0002400000003
:0405D400180000000B
:0405D80028000000F7
:0405DC0020000000FB
:0405E0003C000000DB
:0405E4000C00000007
:0405E80034000000DB
:2005EC002DE9F04F064640F29421012541F22D00ADF10C0DC4F22231C4F2090040F81D5CB1
:20060C0008680028FCD043F6AC7E46F2440AC020C5F2000EC4F20C0AF4464AF8440CDEF86E
:20062C000890DCF8041046F25620C4F20800890807D271460A686FF00F0E4EEA12410170B7
:20064C0001E07221017041F28C38C5F2000858F8D41CC1F304611629A8BF203962469268F9
:20066C0012175118491C11F10A0FB8BF6FF0090100232C4625EAD96201F01F01C4F2203383
:20068C0041F4F851018324EA996E1A60002EC3F808E073D058F83C1CC1F38360C1F38F2700
:2006AC005FEA994167D249F3072CBCF1000F29D549F307214A42B1F1FF3F4FEA620215DA4D
:2006CC007F0805D1400806BF281C2F1C4FF6FF777F080CF1010C05D1400806BF281C2F1C57
:2006EC004FF6FF77521E0CF1010CE9D1490809D37F0805D1400806BF281C2F1C4FF6FF771E
:20070C000CF1010CBCF1000F35DDBCF1020F4FEA6C020CF001031DDB4FF6FF717F0047F02D
:20072C000107B94207D2400040F001000F2892BF2F1C0F200F1C7F0047F00107B94207D2A1
:20074C00400040F001000F2892BF2F1C0F200F1C521EE3D1002B0EDD7F004FF6FF7147F04A
:20076C000107B94207D2400040F001000F2892BF2F1C0F200F1C47EA004703E040F6FF77EC
:20078C00C0F20F070AF049FC39460022002808BF2A1C48F20007C4F20C0738680028FCD0D2
:2007AC004AF20800C4F20C0001613D600AB10AF03AFC002E08BFD82109D058F83C1C58F87E
:2007CC003C0CC1F3870100F0030041EA002188B2009040F2FF3200232C214AF20000C4F2BB
:2007EC000C0007F0B9F9002E1ABF58F8100CC0F30D0B40F2FF3B0AF010FC0021002808BF78
:20080C00291C38680028FCD04AF20800C4F20C00C0F814B03D6009B10AF005FC002E04BF2E
:20082C004FF0000BC6F6880B0DD058F818BC0BF07C420BF47C010BF47C4011430BF0FC0BCC
:20084C0008434BEA000B0AF0E8FB0021002808BF291C38680028FCD04AF20800C4F20C0035
:20086C00C0F80CB03D6009B10AF0DDFB002E04BF47F28A6BC0F2680B0DD058F81CBC0BF487
:20088C007C020BF47C410BF4707011430BF03F0B08434BEA000B0AF0C0FB0021002808BF4A
:2008AC00291C38680028FCD04AF20800C4F20C00C0F808B03D6009B10AF0B5FB002E3AD0A4
:2008CC0058F8140C43F6AC71C5F200014B68C0F303525B08C0F3034117D243F6AC73C5F281
:2008EC0000031B6843F3032C12EB0C0203D4102A02DB0F2200E0002243F30333C91803D4B1
:20090C00102902DB0F2100E0002141EA021100F47F4200F0F00E0B0400F00F0B222E42EA0E
:20092C0003024EEA02014BEA010B08D300F0804040EA0B0B03E043F6277BC0F2710B0AF079
:20094C006CFB0021002808BF291C38680028FCD04AF20800C4F20C00C0F804B03D6009B172
:20096C000AF061FB222E26BFD8F80000C0F30070281C4AF2400BC4F20C0B222E4FEA40008C
:20098C0040F020008BF8090126BFD8F80000C0F34070281C202E40F010008BF809013CBFFC
:2009AC00002001900CD3D8F80C00C20C02F44072800D00F01C0100F003001143084301908C
:2009CC000AF02BFB019A0021002808BF291C38680028FCD04AF20800C4F20C0002623D6060
:2009EC0009B10AF020FB202E26BFD8F80C00C0F301500020222E4FEA400040F060008BF80D
:200A0C000C0126BFD8F80000C0F3C06100216FF07F00222E40EAC1008BF8010126BFD8F8C0
:200A2C000000C0F3455100214FF60040202ECFF6FF7040EA8100ABF89C0105D248F200003D
:200A4C00C4F23F0001900BE0D8F80C000003820D00F47C11920500F47040114308430190BF
:200A6C000AF0DBFA019A0021002808BF291C38680028FCD04AF20800C4F20C0002603D6012
:200A8C0009B10AF0D0FA44204FF0880E8BF8C500002E8BF8C7E01ABFD8F80000C0F3C14195
:200AAC00002140F68406C9F3815041F03001C4F28C3600288BF8C81041D0401E07D0401EBB
:200ACC0037D00420022107F098F900214BE0284609F0E9F904460420214607F08EF9042028
:200AEC0009F0E1F98442FAD143F6AC70C5F2000050F8040C0104090C4AF8081CC0F3074E9A
:200B0C004AF804ECCAF8005031680029FCD0002240F2B411CAF80020C1F2000109680B6864
:200B2C00000E4FF06022072198474FF48060CBF800000420032107F060F9002113E004201D
:200B4C00294607F05AF943F2BD704AF8080C4FF086094AF8049CCAF8005030680028FCD0CA
:200B6C000021CAF8001058F8200C4BF2700342F22C0E41F22D0C47F6180240F29449C4F254
:200B8C000C0300F03F00C4F2090E8BF8CB0FC4F2090C1A80DEF800004AF8441CC4F26029C5
:200BAC004CF81D1C03B0C9F80050BDE8F08F704700B5ADF1140D01928DF80210ADF80000CA
:200BCC0000208DF8080031E29DF80200102805D10199AD48102204F007FF73E218208DF8D7
:200BEC0008006FE29DF80200102805D10199A948102204F0F9FE65E218208DF8080061E2F4
:200C0C009DF80200042804D10198AC490068086058E218208DF8080054E29DF802000128DD
:200C2C003ED1A7480078012836D0A64800788DF80C000198A349007808709DF80C0080B1C5
:200C4C00A048007868B9AD480078022804D0AB480078052840F03682A948007809F00EFDAF
:200C6C0030E29DF80C00002840F02C8295480078002800F02782A1480078012808D09F4850
:200C8C000078042804D09D480078052840F01A82012009F071FB15E212208DF8080011E24B
:200CAC0018208DF808000DE29DF80200012846D18448007801283ED0814800788DF80C0050
:200CCC0001987F49007808709DF80C00A0B17C48007888B989480078032808D087480078B5
:200CEC00072804D085480078052840F0EB818448007809F0C3FCE5E19DF80C00002840F01C
:200D0C00E1816F480078002800F0DC817B48007801280CD079480078042808D0774800780D
:200D2C00062804D075480078052840F0CB81012009F022FBC6E112208DF80800C2E118204F
:200D4C008DF80800BEE19DF80200022804D10198B54900880880B5E118208DF80800B1E131
:200D6C009DF802001F2819DCB54800211F2205F0B8FB01999DF80220B14804F035FE9DF887
:200D8C000200B04908705E48AE49AD4B00780A78012105F0FDFE8DF8080093E118208DF875
:200DAC0008008FE19DF802001F2819DCA64800211F2205F096FB01999DF80220A24804F0D7
:200DCC0013FE9DF80200BE4908704D48BC499E4B00780A78002105F0DBFE8DF8080071E195
:200DEC0018208DF808006DE19DF80200012808D101980078042804DC0198B4490078087098
:200E0C0060E118208DF808005CE19DF80200012808D101980078032804DC0198AC490078C8
:200E2C0008704FE118208DF808004BE19DF80200062806D10198A74902680A608088888004
:200E4C0040E118208DF808003CE19DF80200012808D101980078072804DC01989E490078D2
:200E6C0008702FE118208DF808002BE19DF8020001280BD101980078032807DC01989749D9
:200E8C00007808701EE1C046D82D002018208DF8080017E1E82D00209DF80200012808D1A1
:200EAC0001980078012804DC01988D490078087008E118208DF8080004E1C046642E002062
:200ECC001F3100201E31002001980088ADF80C009DF8020002280DD1BDF80C00062809DBE3
:200EEC00BDF80C00B0F5486F04DCBDF80C007D490880E7E018208DF80800E3E0A42E002099
:200F0C00982E002001980088ADF80C009DF8020002280DD1BDF80C00062809DBBDF80C00DA
:200F2C00B0F5486F04DCBDF80C006F490880C9E018208DF80800C5E001980088ADF80C0083
:200F4C009DF80200022809D1BDF80C00B0F5FA7F04DABDF80C0065490880B3E018208DF8E6
:200F6C000800AFE001980088ADF80C009DF8020002280DD1BDF80C000A2809DBBDF80C00C5
:200F8C00B0F5486F04DCBDF80C005949088099E018208DF8080095E0019800788DF80C00C9
:200FAC009DF80200012818D19DF80C00012814D1504809F09BFB60B9002003F0D1FD8DF827
:200FCC0008009DF8080000287CD14B4809F0D2FE78E016208DF8080074E018208DF808005B
:200FEC0070E09DF80200012804D1019843490078087067E018208DF8080063E0BDF80000E7
:20100C0027280CDA9DF80200022808D10199BDF80000098807F08EFA8DF8080052E00220B5
:20102C008DF808004EE0C04620310020BDF80000A0F201301A2809D9B0F58070D1D0DDE7DC
:20104C0023310020223100204331002001A151F820008746D50B0000F10B00000D0C00003C
:20106C0009100000270C0000530D00006D0D0000B10D0000F50D0000170E0000390E000012
:20108C00570E0000790E00000910000009100000A50E0000D50E0000110F0000450F00001C
:2010AC00710F000009100000091000000910000009100000A50F000009100000B50C0000B2
:2010CC00423100209DF8080005B000BDA12E0020A02E0020623100209F2E0020A22E0020F5
:2010EC007031002072310020743100207631002078310020682C0020442C00208C310020EA
:20110C0000B5ADF1140D009000208DF8040000208DF8050087E100980290029840788DF803
:20112C000C009DF80C00E8B99D4A0220102106F07FFF9C4A0320102106F07AFF02989A4981
:20114C00C01C02680A608088888098490120087097489849984B00780A78012105F018FD80
:20116C008DF80C009DF80C0010B190490820087001208DF8040001208DF8050078E10098B1
:20118C00029002984078002824D10298C07850B1A9498748A94B0A780078002105F0F8FCB6
:2011AC000299487016E081480078022812D07F48007807280ED07D480078062803D1AA4810
:2011CC000078012806D1A94809F090FA10B9012009F0D2F802984078002800F0498173497A
:2011EC000820087001208DF8040041E1009802900298407800283CD100988078032812D128
:20120C006A480078062803D168490720087033E0AA48007818B16549022008702CE0634900
:20122C000320087028E0A648008858B1A348007810B98D48007880B1A14801888B4807F09A
:20124C002DFA0AE09D480078012803D19B490020087002E084490020087054480078072811
:20126C0003D152490620087006E050490420087002E04E490820087001208DF80400002057
:20128C008DF80500F4E00098029002984078002838D102988B49001D02680A6080888880C8
:2012AC00029889494089088040490620087002988649C089088002988549008A08800298F0
:2012CC008449408A088002988349C07808708348007801280CD11F2007F008F9ADF80C009C
:2012EC00BDF80C004FF47A7141437D4807F0D6F90298029A0299C07852890423091D05F0BE
:20130C00AFFF0DE002984078312806D16B490020087026490420087002E02449082008705E
:20132C0001208DF80400A3E0009802900298808808F062F963480021062205F0D2F86349F6
:20134C00002008806249002008806249002008800298644980790870614809F00BFD624827
:20136C0009F008FD01208DF8040057494FF6FF7008803D48007818B10C490320087077E0D0
:20138C0002988079082803D108490520087002E0064904200870012008F0EEFF68E0C0469B
:2013AC00D82D0020E82D0020382E0020A42E0020982E002022310020233100200098029058
:2013CC00494809F0D7FC02984078002850D102983E49C088088002983D490089088002984D
:2013EC003C49408908803E4809F080F900283FD13E48006800283BD03C4835490068354AD1
:20140C0003680988314812880088984730E00098029002988088052108F0EEFE28E001203B
:20142C008DF8050024E000988078072808D90D38F5D0801EEBD01BE04231002043310020ED
:20144C0001A151F820008746231100002B1400008B110000F9110000F911000093120000E0
:20146C0035130000C91300001F310020202C00209DF8040001280CD11D48006848B11C4897
:20148C000068006828B11A48006801681948007888479DF8050001280CD11548006848B15E
:2014AC0013480068406828B11148006841680098884700E0012005B000BDC0461E31002023
:2014CC00203100206A310020683100207A3100207C3100207E310020803100207031002022
:2014EC00442C002081310020682C00208831002084310020A42E00202DE9F84FC64DC74EA5
:20150C00D5F8EF1FCC4C7368D5F8F30F8843C5F8F30F002BC5F8FF1F00F011817788012BE5
:20152C0000F0D680DFF8FCB2BF4FDFF800A3DFF80093DFF80083022B72D0032B40F06A81D0
:20154C000024B06855F8312C74600028A2F5C062B8BF404211460029B8BF494288422EDA97
:20156C00111C54BF02206FF00100B26900EB4100032190FBF1F18918B161F3687069984204
:20158C000BD0B1F11002B8BF524230691038B8BF40428242B8BF88B209DB98B20090A048B0
:2015AC0030214FF47F42082306F0D6FA308A00909B4804214FF4F802122306F0CDFA5846BA
:2015CC00046001688908FCD20460012644600E203E6003F093F950460468EFF3118584F368
:2015EC00118849460820B0FA80F00A1AD07F431E0128D37704D14246106820F008001060D1
:20160C0085F31188EFF3118384F311880420B0FA80F0091AC87F421E0128CA7754D14EE062
:20162C0055F8310CB0F5C06F17D00327776002F055FC45F8397C0027276020688008FCD297
:20164C007748394660220523009106F085FA0126266020688008FCD364E000217160584630
:20166C00016002689208FCD20160012641600E203E6003F043F950460468EFF3118584F316
:20168C00118849460820B0FA80F00A1AD07F431E0128D37704D14246106820F00800106030
:2016AC0085F31188EFF3118384F311880420B0FA80F0091AC87F421E0128CA7704D14246B8
:2016CC00106820F00400106083F31188BDE8F88F55F8312C02214BF2F52071605043000A3A
:2016EC0037B95649096821F07F414018400801E0002171806060000CA0600126E660032717
:20170C0045F8397C0027276020688008FCD24448394660220523009106F01EFA26602068DD
:20172C008008FCD345F8216C45F8397C0820C5F8FF0FC5F8F30F45F8396CBDE8F88F404842
:20174C000068006801462020884741F61D574FF002080F2045F82D0C00214FF4C0720723FE
:20176C0045F8297C2E48CDF8008006F0F5F9012744F8047C54F8040C8008FBD3308845F851
:20178C001D7C012821D0032045F8390C4FF00009C4F8009020688008FCD2214849466022F9
:2017AC000523009106F0D8F9276020688008FCD345F8217C45F8399C0820C5F8FF0FC5F89B
:2017CC00F30F45F8397C474623E04FF00009C4F80C90032045F8390CC4F8009020688008D8
:2017EC00FCD20F48CDF8008049466022052306F0B3F9276020688008FCD3202045F8210C88
:20180C0045F8399C0824C5F8FF4FC5F8F34F45F8397C7760BDE8F88F39400C40383400202E
:20182C0000A00C4034600C4004800C40B8B50000C32E00209031002038600C401020094044
:20184C00A001001000B5ADF11C0D04F0BFFEB748B74902F0B9F9B4490860B64808F0F0FFB1
:20186C00B548B64907F0D6FCB64809F06BFAB44908600020B549009004200190B24841F246
:20188C008832002305F07CFD0020B049009080200190AF480A22002305F072FD0020AB4959
:2018AC0000904FF480700190AA484EF66022002305F066FD0020A549A84A00904FF48060E2
:2018CC000190A548002305F05BFD00209F49A54A00904FF400600190A148002305F050FD05
:2018EC0000209A4900904FF4805001909E484FF4FA62002305F044FD04F0FEFF9B4A802051
:20190C00012106F06DFB99499948097801701F200A2106F00FFE00208DF80C000020ADF8A3
:20192C000E0001208DF810004FF44870ADF812004FF44870ADF814000020ADF81600D220A4
:20194C00ADF81800012103AA40F20530FFF730F940F2063002210DF10E02FFF729F9854AE9
:20196C004FF442700421FFF723F9834A40F207301F21FFF71DF94FF44470012104AAFFF7F0
:20198C0017F940F2113002210DF11202FFF710F940F21230022105AAFFF70AF940F21330D0
:2019AC0002210DF11602FFF703F94FF44570022106AAFFF7FDF8714A0020152107F04EFFE5
:2019CC004FF4CA60ADF80C00BDF80C10062006F0B1FDBDF80C10072006F0ACFDBDF80C10DA
:2019EC00082006F0A7FDBDF80C10092006F0A2FDBDF80C100A2006F09DFDBDF80C100B2003
:201A0C0006F098FD0020039001208DF8100001208DF8110000208DF8120001208DF813009F
:201A2C00042103AA4FF4816006F03AFA4FF48060012104AA06F034FA40F2024001210DF1CF
:201A4C00110206F02DFA40F2034001210DF1120206F026FA40F2064001210DF1130206F0E8
:201A6C001FFA06F0BBFF002007F076FD07F07AFE09F0EBFA09F03BFB4FF0FF3009F008FA22
:201A8C004FF0FF3009F094FA4FF0FF3005F068FD01208DF80C00012103AA002004F05AFD91
:201AAC001E208DF80800012102AA40F20140FFF77FF802204FF4FA6106F03CFD03204FF44C
:201ACC00FA6106F037FD10204FF4207106F032FD12204FF4207106F02DFD11204FF4207121
:201AEC0006F028FD13204FF4207106F023FD2320002106F01FFD224808F05EFB214807F011
:201B0C0095FE8DF80900204807F078FE0A48007809F0B4F80848007809F0BAF8072008F0C2
:201B2C007BFB07B000BDC046682E0020142E00206C3000208C3000209A2E00208C2E002037
:201B4C005C2E0020082E0020D82B0020E5A10000902B0020482B00208C2C0020005C260503
:201B6C006C2B002080EE3600FC2B00207D300020383000204B3000202C3000204F300020AC
:201B8C009830002084300020903000202DE9F04F5FEA0009ADF11C0D00F05581AC4800680D
:201BAC00EFF3118280F31188DFF8C8B29BF80400012818BF012003D1022100208BF80410E1
:201BCC0082F31188012800F03C8109F043FB0390A948046804EB0B0009F038FB4FF0000881
:201BEC00464637460BEB0401CDF810800191B0B90C46084609F026FB0546A868400808D34D
:201C0C00E8682969024601209047C0B2002840F01081284609F012FB0546AC42EDD1002FA1
:201C2C0040F00B8109F006FB0290059789480760012008F038F9012804D1404607F074F84B
:201C4C004FF00108844F38688068014630468847864819300090D0F8FF0FB9F1000F00F023
:201C6C008C80864C0A34E57905B10126A5790DB146F0020665790DB146F00406DFF8DC91C7
:201C8C0065782DB1B86A006B49460246C88D904725782DB1B86A006B49460246488D904762
:201CAC006F4901200860B86A8069014646F0200088476C4DDBF80010286840F0010028607B
:201CCC00480813D2684809F081F98246BAF1040FF8D0D5F8180220F00300C5F81802B86C5D
:201CEC004068024660480321904701E001200490059800F029FEB86A0099806BD1F8FF1F6E
:201D0C008047049858B9B86C40680246564851469047D5F8180240F00300C5F81802386892
:201D2C008068014601208847504801688909FCD3B8F1010F02D1012006F0F6FFB86A4069B3
:201D4C00014630468847B86A406B0146304688470128F8D166782EB1B86AC06A49460246C0
:201D6C00C88D904726782EB1B86AC06A49460246488D90473A49012008603A4801680322C3
:201D8C0021F00101016001988BF8042009F05EFA0028059818BF01200125C0B9019C2046D3
:201DAC0009F050FA0646B068C00806D3F0683169024604209047C0B230B9304609F03EFA98
:201DCC000646B442EFD102E02948006880472148009F0560D7F8FF0F09F025F9019809F080
:201DEC0035FA059FC8B9019C204609F02BFA0646B068000906D3F0683169024608209047E3
:201E0C00C0B230B9304609F019FA0646B442EFD103E0174800688047022702988BF80450CC
:201E2C0009F004FA05F0BAF9039809F0FBF938460AE00F4800688047022701208BF80400B0
:201E4C00F2E7062000E0022007B0BDE8F08FC046B8B500000C4009409001001060B30000DE
:201E6C00282008600C2008400040034014100940ACB5000090310020A8B50000B02E0020A5
:201E8C000EB50191ADF8000000208DF80800B2E08148019900780870FAE001987F4910223D
:201EAC0003F0A2FDF4E001987D49102203F09CFDEEE07C48019900680860E9E07A49019872
:201ECC000A68026089888180E2E07848019900780870DDE07648019900780870D8E075488A
:201EEC00019900880880D3E0734901980A78734903F07AFDCCE0724901980A78714903F04D
:201F0C0073FDC5E07048019900780870C0E06F48019900780870BBE06D4901980A680260BF
:201F2C0089888180B4E06B48019900780870AFE06948019900780870AAE06848019900888C
:201F4C000880A5E06648019900780880A0E065480199008808809BE0634801990088088079
:201F6C0096E0624801990088088091E060480199008808808CE05F4901980A680260898836
:201F8C00818085E05C4801990088088080E05B480199008808807BE059480199008808802E
:201FAC0076E0584801990078087071E056480199007808706CE0554801990078087067E062
:201FCC00394901980A6802608988818060E050480199007808705BE0BDF80000272806DA73
:201FEC00BDF8000006F082FA0199088050E002208DF808004CE0BDF80000A0F540701D2842
:20200C0005D9B0F58070DBD0401EE0D0E4E702A151F820008746C0469D1E0000A71E00005E
:20202C00B31E0000BF1E0000C91E0000D71E0000EB1E0000F51E0000031F0000111F00009C
:20204C001B1F0000251F0000331F00003D1F0000471F0000E51F0000511F00005B1F0000F4
:20206C00651F00006F1F0000791F0000831F0000911F00009B1F0000A51F0000E51F0000D6
:20208C00B91F0000E11E0000AF1F0000C31F00009DF808000EBDC046A32E0020D82D002029
:2020AC00E82D0020642E0020382E00201E3100201F31002020310020223100202331002070
:2020CC004231002043310020A12E0020A02E0020623100209F2E0020A22E002068310020A7
:2020EC0070310020723100207431002076310020783100206A3100207A3100207C310020A8
:20210C007E31002080310020A42E0020813100208C31002000B5ADF1240D009000200890A6
:20212C000098406801900098806802900198007B012829D10898411C08910DEB80010298D0
:20214C00007C40F00040C8600298417C7848084308994A1C08920DEB8101C8600898411CBD
:20216C0008910DEB80010298807C40F00040C860019890F859106F48084308994A1C0892E6
:20218C000DEB8101C8603FE00298017C6848084308994A1C08920DEB8101C8600298417CC6
:2021AC006548084308994A1C08920DEB8101C8600198007E18B10198007E01280AD1029843
:2021CC00817C5B48084308994A1C08920DEB8101C86009E00298817C5848084308994A1C53
:2021EC0008920DEB8101C860019890F85900FF280AD0019890F859105048084308994A1CA8
:20220C0008920DEB8101C8600898411C0891FF210DEB8000C160019803A95C3001F0D4FC95
:20222C000199886608B900207FE001984449007B51F82000012839D1029A01980299126843
:20224C00806E097CB2F1804F01D1092200E0212206F0AAFC029A019802991268806E497CD4
:20226C00B2F1804F01D10A2200E0222206F09CFC029A019802991268806E897CB2F1804F81
:20228C0001D10C2200E0242206F08EFC029A019801991268806E91F85910B2F1804F01D11F
:2022AC000B2200E0232206F07FFC3DE0029A019802991268806E097CB2F1804F01D10A2205
:2022CC0000E0222206F070FC029A019802991268806E497CB2F1804F01D1092200E02122DD
:2022EC0006F062FC029A019802991268806E897CB2F1804F01D10C2200E0242206F054FC63
:20230C00019890F85900FF280ED0029A019801991268806E91F85910B2F1804F01D10B2298
:20232C0000E0232206F040FC012009B000BDC046000480A000200080004000800004C0A0B5
:20234C0028B3000000B5ADF16C0D01900020199007F01DF9012807D108F029FA022803D149
:20236C00199840F0010019906D48006800F44000800D012809D16B48006800F07F40010E0C
:20238C00012088401999084319906748007868486649006800F0FE004008086007F0F7F830
:2023AC00012803D161490868401C0860002002905E480299006888420BD902985D4AFF21CC
:2023CC0011540298401C02905848029900688842F3D80020039002902EE00298019951F8FC
:2023EC0020005249096800F0FF0081420AD90298019951F82000012100F0FF0081401998F0
:20240C00014201D0022089E00298019951F82000012100F0FF008140039801430391019995
:20242C000298444A51F820009DF8081000F0FF0011540298401C02900298019951F82000D9
:20244C0000F0FF00FF28C8D1092002F083F901983949086004A808F08AFB01208DF82800B0
:20246C003648012104AA08F0D9FE002002902F4802990068884237D90299012088401999F7
:20248C00084205D002992E4A042042F8210023E00299012088400399084209D00298254931
:2024AC00085C019951F82010264801F0D5F807E00299244801F0FF0141F4C04101F0CCF8A3
:2024CC0002984FF0FF3100F0FF0006F09FF802991B4A002042F821000298401C029013480D
:2024EC00029900688842C7D80DA808F0DFFA00200090164A144810210DAB08F08BFE1448AC
:20250C001349006820F47C5040F40050086011490120086010490120086000201BB000BDB2
:20252C00B43F0050A83F00509E2E0020582E002080120840B02C0020842E00204C2D002042
:20254C0058290020007FC767302D00207D700000003009400C4009400800094000B5ADF105
:20256C00140D01928DF801108DF8000000208DF80800BBE09DF80100082806D101999DF86C
:20258C000120694803F030FACAE018208DF80800C6E09DF8010014280BDC6448002115226E
:2025AC0003F09FFF01999DF80120604803F01CFAB6E018208DF80800B2E09DF801001428BE
:2025CC000BDC5B480021152203F08BFF01999DF80120574803F008FAA2E018208DF8080065
:2025EC009EE09DF8010014280BDC52480021152203F077FF01999DF801204E4803F0F4F977
:20260C008EE018208DF808008AE09DF8010014280BDC49480021152203F063FF01999DF8EB
:20262C000120454803F0E0F97AE018208DF8080076E09DF8010014280BDC40480021152206
:20264C0003F04FFF01999DF801203C4803F0CCF966E018208DF8080062E09DF80100142882
:20266C000BDC37480021152203F03BFF01999DF80120334803F0B8F952E018208DF80800FD
:20268C004EE09DF8010006F08DFD03900398B0B12C482D490068814203D02A48006807F0A2
:2026AC0073FA039801999DF8012003F09DF90398244908609DF801002449087030E01320FF
:2026CC008DF808002CE09DF80100072806D101999DF801201E4803F087F921E018208DF8D2
:2026EC0008001DE002208DF8080019E09DF800000828F7D801A151F820008746812500000F
:20270C009F250000C7250000EF250000172600003F260000672600008F260000D32600000C
:20272C009DF8080005B000BD6D2F0020762F00208C2F0020A22F0020B82F0020CE2F00200D
:20274C00E42F002008300020FA2F00200C3000200E3000202DE9F0411C4615468C4208BF46
:20276C00854282BF00230022E5E0002C08BF002D0AD100290EBF00286FF000006FF0000163
:20278C0000F0E1F8BDE8F0815FF000085FF0000E002C08BF8D429CBF2C1C0025070C47EACC
:2027AC0001470E0CB44208BFBD429EBF5FEA044444EA15445FEA0545070A47EA01670E0A25
:2027CC00B44208BFBD429EBF5FEA042444EA15645FEA0525470847EAC1774E08B44208BF7E
:2027EC00BD4200F29380870847EA81778E08B44208BFBD427CD8C70847EA4177CE08B442E7
:20280C0008BFBD4266D8070947EA01770E09B44208BFBD4250D8470947EAC1674E09B442FE
:20282C0008BFBD423AD8870947EA81678E09B44208BFBD4224D8C70947EA4167CE09B44246
:20284C0008BFBD420DD8E60146EA5566EF01B14208BFB84201D3C01BB14158EB08085EEB0E
:20286C000E0EA60146EA95664FEA8517B14208BFB84201D3C01BB14158EB08084EEB0E0E8C
:20288C00660146EAD5666F01B14208BFB84201D3C01BB14158EB08084EEB0E0E260146EA96
:2028AC0015762F01B14208BFB84201D3C01BB14158EB08085EEB0E0EE60046EA5576EF0074
:2028CC00B14208BFB84201D3C01BB14158EB08084EEB0E0EA60046EA9576AF00B14208BFA5
:2028EC00B84201D3C01BB14158EB08084EEB0E0E660046EAD5766F00B14208BFB84201D3B1
:20290C00C01BB14158EB08085EEB0E0EA14208BFA84201D3401BA14158EB08085EEB0E0EC9
:20292C00A34208BFAA423EBF2D0A45EA0465240A89D3734642461E4617460B46024631468B
:20294C003846BDE8F0817047F8B504460020C4F209000068800880F0BB8007F069F842F223
:20296C002421C4F208010A68002112F0030F18BF0121D20828BF41F00201002C18BF41F07E
:20298C00040142F65066C2F2000696F90720821A052A04DAB2798A4208BFB2886FD041F2B5
:2029AC009C340F28A0F10F02C5F2000424DB02EB02121712072F88BF07273D46062D88BFD6
:2029CC00062554F825C00423A64603EB85035EF80330CD08A3EB0C0303F0FF0C24BFC3F374
:2029EC000725AC448D0824BFC3F30745AC444D0805D30CEB136C02E04FF0000C674654F87C
:202A0C002730CC0803F0FF0524BFC3F3072425448C0824BFC3F3074425444C0828BF05EB4F
:202A2C001365A2EB07221FFA8CF3534380330022082B88BF012243F6B473C5F200031C681E
:202A4C001B684FF4D07C34275219241703F0FF0307FB14C45C434FF6FF73B4FBF2F29342CA
:202A6C0038BF1A1C802892B2B28005DA10F1800F03DA6FF07F0000E07F20F071B17142F29F
:202A8C000800C4F2090001681F2A4FF00000316008D340F2FF11914206D25208401C914290
:202AAC00FBD301E01F22B2800F3A4FF600714FF0350E1209C8F2A401C4F2090E40EAC20034
:202ACC000143CEF8FB1F4FF0000CCEF8FFCFF8BD42F656624FF6FD50082141F2300EC2F262
:202AEC000002C0F2A4001170C4F2090ECEF80000F8BD704700B5ADF12C0D8DF80000574941
:202B0C009DF80000087007208DF8010009208DF80200534800788DF80300524800788DF80D
:202B2C000400514800788DF80500504800788DF806004F4800788DF807004E4800788DF821
:202B4C000800FF208DF80A000D208DF80B0000208DF80C00484909780DF10D0001703F4830
:202B6C0000788DF80E000E208DF8210043480068099000208DF828002AE00998E8B109982C
:202B8C00407DB0B109999DF82100153109786844401C01709DF82100401C8DF821009DF826
:202BAC002100411C8DF82110099991F82C10684441700998006B099002E031480068099010
:202BCC002E4809990068884202D101208DF828009DF821001B2803DA9DF828000028CCD0A7
:202BEC000998264908609DF821001C280BDA9DF82100411C8DF821100021684441709DF896
:202C0C0021001C28F3DB9DF82100411C8DF821101C490978684441709DF82100411C8DF8D1
:202C2C00211019490978684441709DF82100411C8DF8211015490978684441709DF821005C
:202C4C0009388DF8090012489DF8212000780DF10103012103F09CFF0BB000BD2430002053
:202C6C002E3000202F300020303000203130002032300020333000207D3000202030002008
:202C8C001830002081300020803000207C3000209A2E002000B5ADF1140D00900098406827
:202CAC0002900098806803905B480068416803980068884701900398006808F09EF8019822
:202CCC00002800F088800298007AFF2840F0908081E0009804F0D0F89CE00299C86E401EED
:202CEC00C8660298C06E00B302990398896E0068097807F081FD0299886E401C886602981F
:202D0C00C06E02280BD20298406F40B902980021017203980068052107F04AFE7AE00398A5
:202D2C000068012107F044FE74E00298406FD0B102980221017202990398496E0068097C9C
:202D4C00012207F00BF90298406F012805D9039800680B2107F02CFE5CE003980068032146
:202D6C0007F026FE56E002980021017203980068042107F01DFE4DE00398006808F090F8DE
:202D8C000299096F08700299086F401C08670299486F401E48670298406F78B10298406FA5
:202DAC00012805D903980068092107F001FE31E003980068012107F0FBFD2BE002980021F2
:202DCC00017203980068042107F0F2FD22E00298FF2101721EE00298007A00283FF479AFA2
:202DEC00401E3FF47AAF401EC6D0FD38EFD111E00298FF2101720198400903D3009804F0C2
:202E0C003BF807E003980068042107F0D1FD009804F032F805B000BDAC01001000B5ADF167
:202E2C001C0D01910090FEF70DFD4FF0FF3006F037FF0290029800284CD10020049003A9D1
:202E4C0004AA0DF10E0005F0B9FC00283CD101208DF81400BDF80E0010281FD14948BDF8E2
:202E6C000C100088884219D104980690069800884FF6FF7181420CD106984088000901D3FE
:202E8C0004F0BEF906984088800907D305F00AFB04E0049805F028FE8DF81400049898B19F
:202EAC009DF8140080B1049806F096FE0CE03648006806F059FF0590059828B1059805F049
:202ECC0006F9059806F04CFE2F48006808F0BEF90028ECD02D480088C0080CD32B490888F0
:202EEC0020F0040008802A48007820B1294807F037FF08F005F925480088000A10D323498D
:202F0C00088820F0800008802348006800220A2105F08AFE204800680F21002205F084FEC7
:202F2C001A480088400A06D31849088820F48070088005F0D5FF15480088000B06D313490D
:202F4C00088820F40060088008F0D6F80F480088C00A06D30D49088820F48060088002F03D
:202F6C00AFFB0A480088400BFFF45FAF0749088820F48050088000220320002105F0D4FDFD
:202F8C0053E7C0469A2E00205C2E0020942E00202B300020D82B0020682E002000B5ADF1CA
:202FAC006C0D0291019001984068179001988068189008F02BF91990179890F8A40001288E
:202FCC0004D1199808F01EF9002098E01799012081F8A400199808F015F9029820B90FA8E9
:202FEC0007F03AFC0FA8029017980021416502981799006908610298179940694861029887
:20300C001799007E087602981799007B087302981799007808700298179940684860179934
:20302C00002081F8700002984069092801D2002000E00120179981F858001898407901F038
:20304C0089FB019803F074FB18981799C07C81F859000198FFF75EF878B91898407901F007
:20306C004DFC08F0D3F819901799002081F8A400199808F0C7F8002041E003A807F021FD39
:20308C00019808900020189900901E4A1798097903AB1C3008F0BEF81798007878B903A84E
:2030AC0007F070FD01208DF824001798002103AA383008F0B3F814491798816003E00298E4
:2030CC0017998068886003F06FFE1799C8661798007B012809D117980C49806E07F0F8FA1E
:2030EC0017980199806E07F08FFC00200090084A1798019B0421903006F0E0FB01981BB0A4
:20310C0000BDC046DD3C00006FA70000B97C00006DAA000000B5ADF11C0D0191009000F0D7
:20312C00DDFF4FF0FF3006F0E3FD02900298002835D10020049003A904AA0DF10E0005F0FA
:20314C005FFB00282BD101208DF81400BDF80E0010281CD14048BDF80C100088884216D1B1
:20316C0004980690069800884FF6FF71814209D106984088C00B0AD3384A0420042104F0CC
:20318C0057FF04E0049803F02DF98DF81400049828B19DF8140010B1049806F059FD30485C
:2031AC00008840083FD32E49088820F0010008802C48007818B92C480078002833D02A483B
:2031CC00007818B103208DF80C000EE0274800788DF80C00264800788DF80D0025490A6830
:2031EC000DF10E00026089888180234800788DF81400224800788DF815001748007803A9C8
:20320C0007F04AFA78B11E49082008701D48006848B11C480068006828B11A480068016831
:20322C001748007888470E480088800807D30C49088820F002000880002001F091FC08482F
:20324C000088C008FFF46DAF0549088820F00400088005F021F864E7982E0020642E002098
:20326C001C3100201E3100201F310020A12E0020A02E0020623100209F2E0020A22E002089
:20328C00A42E00208431002000B5ADF1140DADF800000020019000208DF80E00BDF8000029
:2032AC00001DADF80000FFE7BDF8000000F003008DF810009DF8100038B19DF81010BDF825
:2032CC000000401A001DADF8000007F087FB3E490860BDF80000102803DC3C480068029014
:2032EC0002E03B480068029002980088ADF80C00BDF80C00000C09D3BDF80C0080F4004072
:20330C00ADF80C0000208DF80E0020E09DF80E0090B1019902980A88008880180880019951
:20332C00BDF800000988884211DC0198029002980088ADF80C001AE0BDF80000BDF80C1006
:20334C00884214DD01208DF80E00029801900299BDF80C004018029002980088ADF80C00AE
:20336C00BDF80C000028C3D100200290FFE7029810B3BDF80010BDF80C00401AADF80C003E
:20338C00BDF80C0004280FDB0299BDF8000040180490BDF80C0004990880BDF800000299D8
:2033AC0040F40040088004E00299088840F4004008800298001D02900348006807F0C4F94A
:2033CC00029805B000BDC046B4160020742E0020782E002000B5ADF11C0D01910090009827
:2033EC0040680290009880680390029890F85810019800888840ADF8140003980068B0F1A4
:20340C00804F01D13E4800E03E4804900198806880B102983C4990F8580051F820000499C8
:20342C00886001988168BDF8140040180499401E48600BE00298354990F8580051F8200006
:20344C00049988600298049972304860039804990068083008600198049A018843F6F070C1
:20346C00491E00EA011091680843906003980068B0F1804F01D1264800E02648049001987C
:20348C00406880B10298244990F8580051F820000499886001984168BDF814004018049972
:2034AC00401E08600BE00298184990F8580051F820000499886003980499801D08600398AE
:2034CC0004990068083048600198049A018843F6F070491E00EA0110916808439060039970
:2034EC0002988A680399C06EC968114307F046F903980068032107F0C7F907B000BDC04657
:20350C00300400200005002050B3000058B30000400400201005002048B3000000B5ADF131
:20352C00340D009007F06AFE0190019803F06EFD0290002003900020049007F08DFD8DF8C8
:20354C0020009DF8200018B19DF82000012802D16FF004007EE0029810B96FF0040079E030
:20356C000098406810B90020059012E000984068B0F1FF3F03D14FF0FF30059009E0009818
:20358C00406805A903F010FD0790079808B1079860E00120079007F02DFE059908180690CD
:2035AC003FE008A804F02EFB0790079800BBBDF824000BA904F05EF8B0B900988368BDF8AA
:2035CC0026100A9ABDF82C00984768B1BDF82C0000998881BDF826000099C8810A980099B1
:2035EC0008610020079023E00A9903A804F0DCFB012007900498401C04900598B0F1FF3FC3
:20360C000FD0059868B107F0F5FD0699081A0C900C9868B105980C99884200D208E00C989C
:20362C00059002980599406807F0E0FD0028B8D102980399083004F0A0FE049848B1029855
:20364C00406807F0CFFD0498401E049004980028F5D107980DB000BD00B5ADF1140D0191BC
:20366C000090019800F0FF008DF80C000198000803D301993E48484001909DF80C103D48AF
:20368C0050F821000290019802994840009900220140480E00D301228DF80D20009902983A
:2036AC008843029000980199084033490140029801430291009800F4E020B0F5E02F02D1E6
:2036CC000298400E22D3009810F4E02F15D19DF80D00D8B111E0029820F4E020029002987A
:2036EC0040F4A020029011E0029820F4E0200290029840F4C020029008E0029800F4E02051
:20370C00B0F5A020F0D0B0F58030E4D09DF80C201848029940F822100098C00D09D301986F
:20372C00C00D01D3012000E000209DF80C10134A50540098000E18D307F068FD04909DF8F3
:20374C000C10012088400E49096881430198000E04D39DF80C200120904000E00020084351
:20376C0007490860049807F04DFD05B000BDC046006000A000100840007F077F0020024071
:20378C00D020024000B5ADF1140D009000208DF804000098C0780022022800D10122009896
:2037AC00C078002100B901211143009AD2780020032A00D1012008436FD066E000999DF854
:2037CC0004000969401C085CFF2853D100989DF804100069085C9DF8041040188DF80800C0
:2037EC009DF80400001D8DF8040037E000989DF80410006909182A48012204F097FF58BB6A
:20380C0000999DF804000969401C085C8DF80C001AE000999DF80400009A0969801C126958
:20382C00095C9DF80400C01C105C009A1269000200EB01409DF80410091D515C09180491C1
:20384C00049802F053FD05E09DF80C00401E01D0401EDED0012021E000201FE09DF80800DF
:20386C009DF80410884203DD9DF804001D28BDDB002013E000989DF804100069085C9DF8BD
:20388C0004104018401C8DF8040000989DF80410007B884292DC002000E0002005B000BD45
:2038AC007E3000200EB5009000208DF804000098C0780022022800D101220098C078002131
:2038CC0000B901211143009AD2780020032A00D10120084368D05FE000999DF80400096924
:2038EC00401C085CFF284CD100989DF804100069085C9DF8041040188DF808009DF8040083
:20390C00001D8DF8040030E000989DF80410006909182648012204F009FF30B900999DF876
:20392C0004000969401C085C3FE000989DF80410006909181E48012204F0F8FE80B9009916
:20394C009DF804000969401C085C012806D100999DF804000969801C085C26E0052024E0BD
:20396C009DF80400801C8DF804009DF808009DF80410884203DD9DF804001D28C4DB0520EB
:20398C0013E000989DF804100069085C9DF804104018401C8DF8040000989DF80410007B78
:2039AC00884299DC052000E005200EBD7D3000207E3000200EB500903D480078012807D0DC
:2039CC003B480078022803D03948007803280ED1009838490622401D04F0A8FE28B900982F
:2039EC00FFF760FF8DF804004EE000205EE00098FFF758FF8DF8040046E000208DF8050013
:203A0C009DF8050006280DDA9DF80500294A002111549DF80500401C8DF805009DF805003E
:203A2C000628F1DB244844F6206104F037FE23490120087035E01E48007860B91F48007840
:203A4C0038B900981B49401D02680A608088888027E000202AE0002028E0154800780128D5
:203A6C001FD013480078032800D11AE000201DE00F48007808B9002018E00098FFF782FEAF
:203A8C00002013E0002011E09DF804000028B4D0401ED0D0401EE0D0401E02D0801EE7D020
:203AAC00F0E79DF804000249087001200EBDC04624300020482E00206C2B00207F30002045
:203ACC0000B5ADF15C0D0291019001984068149001988068159007F099FB0F90149890F891
:203AEC009800012804D10F9807F08CFB002062E01499012081F898000F9807F083FB029808
:203B0C0020B910A807F0CEF810A802900298C168019800F05BFF08B100204CE0029814990F
:203B2C0000780870029814994068486002981499007AC86003A806F0A9FF0198089000206F
:203B4C00159900901D4A1498496803AB103007F061FB03A806F0F1FF01208DF8240014980F
:203B6C00012103AA2C3007F059FB1498007840B91498002103AA483007F050FB104914986D
:203B8C00416014980021017214980021816714980021C1671598007A00F0DCFD019803F012
:203BAC003BFD00200090074A1498019B0421843005F084FE019817B000BDC046A12C000038
:203BCC00219F000019A1000000B5ADF11C0D019100903B4807F06EFA4FF0FF3107F006FB78
:203BEC000020029001208DF80C000020049019E034489DF814100068884205D99DF81400BA
:203C0C00314951F8200018B100208DF80C0016E09DF814100120884004990843049002988D
:203C2C00401C0290019850B10298019951F8200000F0FF00C0B2FF288DF81400D8D19DF8F4
:203C4C000C0010B90020009031E00098002101600098002141600098002181600020029002
:203C6C0018E09DF81410184A009842F821009DF814200099012090404A6810434860029898
:203C8C00019951F820201149009804F0ADFF0298401C0290019850B10298019951F82000A4
:203CAC0000F0FF00C0B2FF288DF81400D9D1044807F000FA07F096FA009807B000BDC04657
:203CCC004C2D0020582E002058290020007FC76700B5ADF1140D00900098406802900098DD
:203CEC008068039003980068012106F0B9FB049003980499006807F0A4F8049840082ED3C2
:203D0C0003980068012106F0CBFD0298406D18B1009800F061F85AE00398006806F07FFE13
:203D2C0003980068032106F0A3FD039902988A680399C06EC968114306F0E2FD2548016898
:203D4C0003980068B0F1804F02D14FF4807001E040F201108847009802F0EAFC37E00298CA
:203D6C000399C06EC96805F0D1FE50B103980068022106F07DFD02980399C06EC96806F056
:203D8C00BFFD02980399C06E896805F0BFFEF0B103980068012106F06BFD02980399C06ECC
:203DAC00896806F0ADFD0298406D002101740298406D01900298406D406805F027FB029811
:203DCC00002141650298019982680098904705B000BDC0467800001000B5ADF11C0D009077
:203DEC0000984068019000988068039007F00EFA05900198406D18B9059807F003FA65E052
:203E0C00059807F0FFF90398006806F008FE03980068032106F02CFD039901988A68039902
:203E2C00C06EC968114306F06BFD03980068012106F036FD03980068012107F002F8244895
:203E4C00016803980068B0F1804F02D14FF4807001E040F201108847009802F069FC0198F9
:203E6C00406D406805F0D2FA0198406D007C042803D00198406D03210174039901988A6859
:203E8C000399C06EC968114306F022FD03980068B0F1804F01D10F4800E00F4804900198B2
:203EAC00426D0498816843F6F07008401168A1EB1011491E11600198406D02900198002151
:203ECC0041650198029982680098904707B000BD7800001030040020000500202DE9F843DD
:203EEC00804607F09AF8002100B901213A4D2D1F28680028FCD0DFF8DC90012609F10407A5
:203F0C00FC6A2E6009B107F08EF83448C4F3072100F10804616007F080F80146002001B9C1
:203F2C003046014628680028FCD03F682E6009B107F079F8C7F38441A8F5C060A160B8F5F3
:203F4C00C06F2060B4BF6FF001030223626803EB4003032093FBF0F00918104602290FDB93
:203F6C001E290BDB3F28B9BF521C401C3F22101CE2603029B4BF10391F210DE0E0600BE023
:203F8C0010F13F0FACBF401E6FF03F00E06011F1100FACBF10310021216180B24FF47F4279
:203FAC00082330210090484603F0D6FD0096484604214FF40032112303F0CEFD208A042116
:203FCC004FF4F80212230090484603F0C5FDBDE8F883C04600A00C4004800C403834002022
:203FEC0081F000412DE9FC414FEA01244FEA41052D0E04D1002C18BF0020BDE8FC8144F04A
:20400C000044FF2D5ED04FEA9404002948BF64424FEA00224FEA40031B0E05D1002A14BF7C
:20402C000020081CBDE8FC8142F00042FF2B4AD04FEA9202002848BF52425E1B41BF171C1A
:20404C00221C3C1C764248BF2B1C192E47BF44FA06F73A444FF0000803E0C6F11C0704FAB0
:20406C0007F8002A04BF0020BDE8FC8146BF524201270027A3F101035200FBD512F08004DE
:20408C000DD002F0200548EA0508803228BF5B1C02F0400458EA040808BF22F480729B1CC7
:2040AC00DCBF0020BDE8FC81FF2B0ED222F0FF024FEA42024FEA522040EAC35040EAC77034
:2040CC00BDE8FC8108464FEAD0774FEAC777FF204FEAC0503843BDE8FC81FEE70EB52C484C
:2040EC002C4905F0CFF82C49002008702B494FF6FF70088004F08AFF2949087000202A49CC
:20410C0000900120019027480022002303F038F900202549009002200190244800220023F7
:20412C0003F02EF90020204900900420019020480022002303F024F91E49062008701E4863
:20414C001022002102F0CDF91C480021102202F0C8F91B49002008601A49002008701A4994
:20416C0000200870194907200870194900200870114A0220102103F033FF104A032010211F
:20418C0003F02EFF0E4A0420042103F029FF0EBD982E0020882E0020A42E00206831002005
:2041AC00A72E0020202C00204BB00000442C0020682C0020A32E0020D82D0020E82D002008
:2041CC00642E0020A12E0020A02E00209F2E0020A22E002038482DE9FC4700680068014677
:2041EC0020208847354DDFF8D8A04FF002080F2000214FF4C072072345F82D0C41F61D5081
:20420C0045F8290C5046CDF8008003F0A5FC2D4C012644F8046C54F8040C8008FBD3DFF8DC
:20422C00A890B9F8000045F81D6C01281FD0032045F8390C0027276020688008FCD23946FB
:20424C00504660220523009103F086FC266020688008FCD345F8216C45F8397C0820C5F806
:20426C00FF0FC5F8F30F45F8396C464620E00027E760032045F8390C276020688008FCD27F
:20428C00CDF80080504639466022052303F064FC266020688008FCD3202045F8210C45F86F
:2042AC00397C0824C5F8FF4FC5F8F34F45F8396CC9F80460BDE8FC87A001001039400C4062
:2042CC0000A00C4038600C403834002000B5ADF1140D06F08FFF0090344800680190002059
:2042EC0002900198A0B10198816A0098401A3049814205D20198029900F0CEFB019004E04B
:20430C00019802900198006B019001980028EAD1284800680190002002900198002843D066
:20432C000198816A0098401A2149814234D2019821490622801C04F0F9F910B30198029924
:20434C0000F0AAFB01902CE01C490020087000208DF80C009DF80C00062819DA9DF80C000E
:20436C00154A002111549DF80C00401C8DF80C009DF80C000628F1DB0AE00320FEF7BAFB6C
:20438C0006E00E48007818B1401EDDD0401EF4D00198006B019004E0019802900198006BBF
:2043AC00019001980028BBD105B000BD1830002020A107001C300020482E002024300020FB
:2043CC00F8B506F02AFE314C256805F00C000C2855D0E8082ED22E480068EFF3118780F3E7
:2043EC0011882C4EB068002106F0F8FE7169B269091A8A4238BF002187F311882648006894
:20440C00884217D22548264A264D036812682868B3FBF2F22018891A06F0DCFE2868201813
:20442C0006F0D4FE0120FDF7B1FB2868201806F0C9FE25E0280922D21B48690939BF016802
:20444C0021F00101016841F0010102460160D2F898004FF0805440F00300C2F89800D4F832
:20446C00B8018069014620208847D4F8B8010F4C806B2168804701202060206800E030BF25
:20448C0006F0D1FD02F02BFDF8BDC04690310020B8B5000078010020B0B50000B4B50000C2
:2044AC00BCB50000A0B500008C2108402C20094080B502AFADF1200DADF8143004920391DC
:2044CC00ADF8080000208DF81600FF208DF817000398007A800901D308205BE003980078C5
:2044EC00022841D103980399406849684078097800F0FF0001F0FF0101EB0021ADF81810F1
:20450C0025E0388810B10B208DF816009DF8160068BB03980499BDF81420C06801F064FADD
:20452C0001208DF8170022E03888009001200190BDF814300399049ABDF8080001F086FB4C
:20454C008DF8160013E00A208DF816000FE0BDF8180042F60211401AE6D04DF2EF61401AFC
:20456C0005D0401ECDD0EEE701208DF816009DF81700FF280CD00848006848B106480068B8
:20458C00006828B10448006801689DF8170088479DF8160008B080BD9C34002080B502AFC0
:2045AC00ADF1280D05938DF810200391029000208DF81900029828B1039818B1059808B1BE
:2045CC00B86808B9022052E000208DF8180046E09DF81810029800EB810007900798008836
:2045EC004FF6FF71814235D007988078002831D039880598039A03F043FD0890089848B311
:20460C0007988078400810D338790090B8680190089B07989DF810200088012100F0FEFE3D
:20462C009DF8191008438DF8190007988078800810D338790090B8680190089B07989DF8FC
:20464C0010200088022100F0E9FE9DF8191008438DF819009DF81800401C8DF81800054802
:20466C009DF8181000788842B2DC9DF819000AB080BDC046A72E002000B5ADF11C0D0191F3
:20468C00009000208DF808000098406804900098806805900198406828B90198C06810B93C
:2046AC009DF8080053E00498007801281AD106F0ADFD03900498806F58B104990198C96FC1
:2046CC00886101980499C867039806F09BFD01203DE001980499886701980499C8670398F4
:2046EC0006F090FD05F07CFB04982C3006F0DCFC4FF0FF3106F07AFD0598406806F05EFD87
:20470C000098019900F02CFD0598406806F052FD0498007880B90498483006F0C5FC4FF061
:20472C00FF3106F063FD05F047FB0498007A30B901208DF8080002E001208DF808000498D7
:20474C002C3006F0B1FC06F04DFD9DF8080007B000BDFEE72DE9F04105462E480068EFF3C6
:20476C00118880F311882C4A505D411C0028515549D12A4CA900675C07F03F003F280C4451
:20478C0001D0FFF7E7FF607800F03F003F2801D0FFF7E0FF668837F07F0019D1F80911D2EA
:2047AC004FF08054D4F8B801406901463046884704F5DC742068406B0146304688470128EF
:2047CC00F8D120E0164850F82610012088471AE04FF08054D4F8B801C069014630468847F1
:2047EC00D4F8B801406A014630468847D4F8B801C06A01463046884701210A4A0A4811607E
:20480C0001688908FCD388F31188284605F0FCFABDE8F081B8B50000B02E002060B30000C2
:20482C00C82E0020282008602820084000B5ADF1140D8DF804100090342004F07BFC029028
:20484C00029808B9002052E000980299007B087200980299C07A81F82C0002980021016346
:20486C0006F0C8FC02998862009A00990298127B0969093001F0B8F800990298491D0A683C
:20488C00801C0260898881809DF80400A8B91948006870B117480068039002E00398006BD6
:2048AC0003900398006B0028F8D10298039908631CE002980F49086018E09DF804000128B1
:2048CC0014D10D48006870B10B480068039002E00398006B03900398006B0028F8D10298AF
:2048EC000399086302E0029803490860029805B000BDC046183000201C3000202D492DE903
:20490C00F0410968EFF3118881F311882A4B195C4A1E01291A5449D12849800045180E5CA5
:20492C006F8836F07F0019D1F00911D24FF08054D4F8B801806901463846884704F5DC74AB
:20494C002068406B0146384688470228F8D120E01D4850F82710002088471AE04FF08054B1
:20496C00D4F8B801006A014638468847D4F8B801806A014638468847D4F8B801006B01466E
:20498C003846884701210E4A0E48116001688908FCD306F03F003F2801D0FFF7AFFF6878C3
:2049AC0000F03F003F2801D0FFF7A8FF88F31188BDE8F081B8B50000B02E002060B300003F
:2049CC002820086028200840C82E002000B5ADF1240D019100900020079000988068029006
:2049EC00019840B90298007B8DF80C000298407B8DF80D0007E0019800788DF80C0001986A
:204A0C0040788DF80D009DF80C00FF2803D09DF80D00FF2802D14FF0FF3035E09DF80C10D5
:204A2C001A48084307994A1C07920DEB810108619DF80D101548084307994A1C07920DEB4A
:204A4C00810108610798411C0DEB80000791FF210161104804A9FFF7B7F80D4908600C4815
:204A6C00006810B94FF0FF300EE009489DF80C1000680D2204F098F805489DF80D10006819
:204A8C000E2204F091F8002009B000BD00200084702E00202C2E00200EB50191009000986E
:204AAC0008B9002054E0019858B92A4800990068884206D0284800990068884201D00020EC
:204ACC0046E0264800990068884202D123490020086020480099006888420ED01E48009994
:204AEC000068884209D000980199006B0863009805F036F80198006B2AE01648009900686F
:204B0C0088420FD100981349006B0860009805F027F81048006808B9002019E00D48006815
:204B2C00006B15E00C480099006888420FD100980949006B0860009805F012F80648006800
:204B4C0008B9002004E004480068006B00E000200EBDC046183000201C3000202030002050
:204B6C0000B5ADF1140D8DF800002549254809880088884211DC24482149008809888842CC
:204B8C000BDB2348214900880988884205D1224820490088098888422BD0052003F0A6FC2A
:204BAC00ADF804001D480088ADF8060015480088ADF8080014480088ADF80A00144800889F
:204BCC00ADF80C0014480088ADF80E000DF1060005F006FE8DF801009DF8010060B99DF8BA
:204BEC0000000F490870BDF804100E4803F056FD02E018208DF801009DF8010005B000BDCC
:204C0C007A31002072310020743100207C310020763100207E310020783100206831002050
:204C2C0082310020682C00200EB5009000208DF804000098C0780022022800D1012200983D
:204C4C00C078002100B901211143009AD2780020032A00D10120084343D03AE000999DF8F7
:204C6C0004000969401C085C092827D10098009A9DF804109DF8043000691269891C401844
:204C8C009A5C1949521ED2B203F050FD08B9002028E00098009A9DF804109DF80430006986
:204CAC001269891C40189A5C1049521ED2B203F03DFD08B9012015E0022013E000989DF8E7
:204CCC0004100069085C9DF804104018401C8DF8040000989DF80410007B8842BEDC0320BE
:204CEC0000E004200EBDC0462E3000202530002000B5ADF1140D009006F080FA00F032FD4D
:204D0C00029005F06BFE0390002001900198072840D20199880000EBC1002349085A18BB0A
:204D2C000199880000EBC10000991F4A8988115201991E4A880000EBC10002991150019957
:204D4C00880000EBC1000099194A89681150BDF8040000998881029800994068086103988B
:204D6C0005F0F2FC00201CE00199880000EBC1000D49085A00998988884205D1039805F0C8
:204D8C00E3FC6FF002000CE00198401C019001980728BED303F002FE039805F0D5FC6FF049
:204DAC00030005B000BDC046D4290020D8290020DC29002000B5ADF12C0D0090009880686D
:204DCC00002832D10C20FEF75FFA0190019810B96FF0030047E002A805F094FE0020ADF8B0
:204DEC0018000020079001980890009841681F4802AA002306F0DAF9019908600198006864
:204E0C0038B905F057FC019803F0AEFE6FF0030029E000980199C06848600098019900690D
:204E2C00886001980099886012E00098806801900F480068804702900198006806F0C2F997
:204E4C0000980199006988600A48016802988847019800990068496806F0BCF901980068A8
:204E6C0006F0B4F900200BB000BDC046EDAC00008C3400209034002000B5ADF1140D019182
:204E8C0000900098406803900098806804900198006808B900204DE006F0B8F902900398AC
:204EAC00406D38B1029806F0ADF901980321017400203FE001980121017403990198486597
:204ECC00029806F09FF9039890F8700040B10399039891F859201849806E114303F0F6FC59
:204EEC000498006805F0A6FD00980199FEF772FA04980068012105F0DFFC0198406804F04C
:204F0C00A1FA03980078A0B90398383006F0D8F80399496806F06AF958B90098FEF75CFF16
:204F2C000398383006F0CCF8002106F05FF9002000E0012005B000BD000006800EB50090CD
:204F4C0043E000982949C01C02680A60808888804AE00098C0780022022800D10122009886
:204F6C00C078002100B901211143009AD2780020032A00D10120084318D00098FFF754FE67
:204F8C008DF804009DF8040018B19DF8040001282AD19DF80410009804F0C0FC9DF80400D3
:204FAC00012821D10098FEF705FD1DE00098C078042819D118E00E480078A8B10D4805F0EF
:204FCC00CFFE0F2004F082FF0EE0009880780028B7D0401EEFD0401E06D0401E04D0401E46
:204FEC0002D00938B5D0FFE70EBDC046402E00202B300020FC2B002008B527480078022838
:20500C000BD1254900200870002005F0A9FF20B9224800680168032088471F4800780128D7
:20502C000BD11D4900200870042005F099FF20B91A480068016802208847174909780020DB
:20504C00012900D1012050F0020021D0124900200870042005F084FFD0B9002005F080FF49
:20506C00B0B906E00F480E490068B1FBF0F006F099F8042005F074FF0028F3D0002005F020
:20508C006FFF0028EED00548006801680420884705490120087008BD863400208034002045
:2050AC00A0860100BCB500008734002041F21C3010B5C5F200000468B4F1FF3F08BF00243C
:2050CC0005F02CFE40F2844346F25C01002242F2082E012040F2801CC4F26023C4F20C01A0
:2050EC001A60C4F2043E0860C4F2283CCEF80000DCF8000038B140F20010C4F2203000687D
:20510C002046FBF76DFA44F20402C4F203021068052142F24803C2F20001C4F2030320F02F
:20512C0003000143116019684FF0000EC0F2391E6FF35B414EEA01000421C4F20901186040
:20514C000868C0F30130012809D10A684FF6FF70CFF6FC40104040F400320A60086010BD70
:20516C0000B5ADF1140D019100900098406802900098806803900299019848660198029992
:20518C0000688866019802994068C866019802998068086701980299C06848670298C06E45
:2051AC00D0B102990398496E0068097C002204F0D5FE02980121017202998A6E12F8011BB7
:2051CC000398029B00689A6605F016FB03980068032105F0EDFB19E002990398496E0068CB
:2051EC00097C012204F0BAFE0298022101720298406F022805D203980068032105F0D8FBE6
:20520C0004E0039800680B2105F0D2FB05B000BD00B5ADF1140D009005F0F0FF00F0A2FAC7
:20522C000290029820B903F0B9FB6FF003003EE005F0D4FB039000200190019807282FD265
:20524C000199880000EBC1001A49085A10BB0199184A880000EBC1004FF6F8711152019909
:20526C00154A880000EBC100029911500199134A880000EBC10000211150BDF80400009994
:20528C0088800298009940688860039805F05CFA00200CE00198401C019001980728CFD355
:2052AC0003F07CFB039805F04FFA6FF0030005B000BDC046D4290020D8290020DC29002062
:2052CC0029482DE9F84FD0F80090EFF3118589F31188264CA068012105F080FF4FF0010AB5
:2052EC004FF00008064621686769A4F81CA02068A4F81E80791A321A8A42A6EB07062DD353
:20530C0085F311884546EF195046394605F046FF761B0546B542F6D9EFF3118B89F3118859
:20532C00E08B012804D14046394605F037FF0546B5F1FF3F06D0A169AD1BA94238BF0D1CE6
:20534C00E91901E0A5697919284605F023FFA4F820A0A4F81C805D46276001E0A4F81C8062
:20536C0085F31188BDE8F88FB8B50000780100208CB504AFADF80630ADF80420ADF802108F
:20538C00ADF800001F480078062801D0142038E0BDF80000062833DBBDF80000B0F5486F30
:2053AC002EDABDF8020006282ADBBDF80200B0F5486F25DABDF80400B0F5FA7F20DABDF857
:2053CC0006000A281CDBBDF80600B0F5486F17DABDF800000C490880BDF802000B49088065
:2053EC00BDF804000A490880BDF80600094908803878FFF7B5FB084805F0BCFC002000E025
:20540C0018208CBDA42E002072310020743100207631002078310020442C002090B503AF6E
:20542C00ADF1240D04938DF80F208DF80E10ADF80C00BDF80C001B214FF6FF7208AB03F099
:20544C006DFD07900798002837D000200090BDF820000190FF2002907C680499079ABDF8D3
:20546C000C000DF11A03A0478DF822009DF82200D8B904984089ADF818009DF80E00400816
:20548C0009D3BDF80C009DF80F2006A904F0E6FA8DF8220009E0BDF80C009DF80F203B7854
:2054AC0006A904F052FA8DF822009DF8220038B106A81B2104F01CFD02E015208DF82200F5
:2054CC009DF8220009B090BD00B5ADF1140D8DF8000039E04FF4417001A9FCF7D1FC9DF8FE
:2054EC0004008DF80C009DF805008DF80D009DF806008DF80E0000208DF8100000208DF857
:20550C000F009DF809008DF813009DF808008DF812009DF807008DF81100082103AA0020DE
:20552C00FDF71CF820E040F2153001A9FCF7A8FC1AE00E4805F01EFC142003F095FB13E096
:20554C00142003F091FB0FE09DF80000401EC1D0401E09D0801EECD0401EF1D0401EE2D059
:20556C00401E01D0401EFFD005B000BDD82B002000B5ADF1140D019001990198896840685D
:20558C00086000200390039838BB142005F017FD03990DEB8101886003980DEB8000806820
:2055AC00A8B9002004900398049988420CD904980DEB8000806805F024FD0498401C049045
:2055CC00039804998842F2D86FF003001EE00398401C039003980028D7D000200390039851
:2055EC0098B9002000900A4A039903980DEB8000515C019A80689368064A04F05FF9039839
:20560C00401C039003980028EBD0002005B000BD97B40000B97A000000B5ADF1140D0090FD
:20562C0005F01AFD8DF810009DF8100018B19DF81000012802D16FF004003AE005F0DEFD61
:20564C00019005F0CBF9029000200390039807282AD20399880000EBC1001749085A00B99E
:20566C0022E00399880000EBC1001349095A00988088884212D1039A900000EBC2000F4A0D
:20568C001058026801980021904200D1012100988160029805F058F800200AE00398401C54
:2056AC00039003980728D4D3029805F04DF84FF0FF3005B000BDC046D4290020D8290020E2
:2056CC0008B52248006848B901F0BAFE2048214902F0E4FF204800F009FE32E01B480068A2
:2056EC004AF2104181420BD21C481D4902F0D6FF164800684AF21041401A1449086020E06E
:20570C0003F030FE04F072FC01460E4800F0A8FE0D4900F07BFB00900C4801684FF47A7091
:20572C004843A0F57A7004F061FC0099FEF75AFC03F0FEFF0146094802F0B0FF0349002089
:20574C00086008BD0000FA440000804F902E00206C2B002080EE3600005C26058C2C00206B
:20576C0080DE800200B5ADF1140D009005F036F9029000200190019804283DD201998800DC
:20578C0000EBC1001F490858E8B90199880000EBC1001C49091803910098039908600398C9
:2057AC000021816000220021002005F0EFFC039948600398406808B903F0F0F8029804F0E7
:2057CC00C3FF03981CE00199880000EBC1000D4908580099884209D1029804F0B5FF0198C8
:2057EC00810001EBC0010748401809E00198401C019001980428C1D3029804F0A5FF0020AE
:20580C0005B000BD182B0020F8B5264C2068EFF3118680F3118824491D4D0B680420B0FA63
:20582C0080F043F00403281A1F3002780B60521C027086F311882068EFF3118380F3118840
:20584C000A680820B0FA80F042F008022D1AE87F0A60401CE87783F311880E20FEF77AFFCE
:20586C000C480068C0F38150032814BF0020012009490A4A088017683FB9094C40202060C3
:20588C000123D36100204860F8BD0120F8BDC046C32E0020B43F00503834002004800C409B
:2058AC002C500C40B8B5000090310020F0B520480127F84201D002F015FD204D204F214E37
:2058CC00BD4206D203CD0478A4003459401CA047F6E71D48002800D08047164D164FBD425D
:2058EC0002D210CDA047FAE7F0BD03251BE0416808300A1C2A400BD11A1C2A40AB4305D0A3
:20590C00046804300C600431043BF9D1131C05D0047801300C700131013BF9D1021C2A4044
:20592C0001D0A84304300368002BE0D17047C046FFFFFFFF0000000000000000A8BB000008
:20594C0030BC000028BB000059C5011000B5ADF14C0D05F07FFC0190002000900098002820
:20596C0032D102A805F034F900981A4951F8200008900098184951F820000A90009817495C
:20598C0051F8200006900098154951F8200007901448002202A905F0F5FB1190119808B9ED
:2059AC0002F0FCFF05F01AF812901198FFF7DAFE08B902F0F3FF129804F0C6FE0098401CD3
:2059CC00009000980028CCD0019805F02BFC13B000BDC04614B5000018B5000010B5000039
:2059EC008834002035A80000002A4AD05FEA000C8B071CD1830722D1102A08D370B4103ACA
:205A0C0078C978C0103AFBD270BC103238D0042A2CD3082A05D30C2A24BF08C908C008C9BA
:205A2C0008C008C908C092072AD0920F22E00B780370491C401C521E22D08B07F7D1C30786
:205A4C0014D18307D8D0121F12D308C903801B0C4380001D121FF8D20AE008C903701B0A64
:205A6C0043701B0A83701B0AC370001D121FF4D2121D05D00B780370491C401C521EF9D1EE
:205A8C00604670470EB500900098C0680C3802900098C088072803DA00988088072802DB1C
:205AAC006FF0020036E004F099FF01900098C188880000EBC1001849085828B9019804F002
:205ACC0043FE6FF0020025E0019804F03DFE009802990079087100980299807948710098A9
:205AEC000299007A88710098C188880000EBC100094908580099C968083002F055F90098EB
:205B0C00C188880000EBC10003490858406805F069FB00200EBDC046D82900200EB58DF8F5
:205B2C0004100090009800283AD09DF804100120884000994968084232D09DF80410009A80
:205B4C00012088405168814351609DF80410154A002042F8210014499DF80400085CFF281E
:205B6C0009D19DF80410114801F0FF0141F02041FDF772FD0AE09DF804000B49085C0C49C7
:205B8C00096851F820100948FDF766FD9DF804004FF0FF3100F0FF0002F038FD002000E049
:205BAC0002200EBD58290020B02C0020007FC767842E002080B502AFADF1180D03930292FD
:205BCC000191ADF8000000208DF810000198007A400901D3082037E03888002801DD0B206D
:205BEC0032E001980078022826D101980199406849684078097800F0FF0001F0FF0101EBC4
:205C0C000021ADF8141010E003981421018001990298C9681422FFF7E7FE13E00398002128
:205C2C0001800A208DF810000CE0BDF814004FF6F171401AE8D0F1E7039800210180012074
:205C4C008DF810009DF8100006B080BD80B502AFADF1180DADF80C3002920191ADF80000B6
:205C6C0000208DF80E003888002833D1BDF80C0002282BD1029802994078097800F0FF0035
:205C8C0001F0FF0101EB0021ADF81010B988BDF81000884316D10199C968BDF8000009688C
:205CAC0004F012FABDF81010814216D00199BDF80000C968BDF81020096802F039FB8DF8D9
:205CCC000E000AE080208DF80E0006E00D208DF80E0002E00B208DF80E009DF80E0006B0EE
:205CEC0080BDF8B5064604F017F842F6C455C2F200056F68044603F09BFE2A69E41B4FF4D3
:205D0C007A716143090C801A48BF404240F6B83289198A4216D3062814DAA968E8688142F9
:205D2C0010D82A6872B1401A44F24021C0F20F014143080C00EB9140824212D91046C828BE
:205D4C0011D312E043F6AC71C5F200014868400828BF4FF4FA600DD209687D2001F0FF01F9
:205D6C004843C82801D2C820F8BDB0F57A6F88BF4FF47A60F8BDFEE70EB501910090019822
:205D8C0000F0FF008DF80900009828B11B489DF809100068884201D802202DE0184805F069
:205DAC0089F94FF0FF3105F021FA9DF80900154951F8200018B101208DF8080015E09DF870
:205DCC000910104A009842F821009DF809200099012090404A681043486000980A49019AD6
:205DEC0002F002FF00208DF80800054805F062F905F0F8F99DF808000EBDC046582E002060
:205E0C004C2D002058290020007FC767FCB590EA01064CBF4FF000460026020243001B0E37
:205E2C0012BF42F000420020FCBDFF2B32D05FEA01245FEA41055FEA156512BF44F0004403
:205E4C000020FCBDFF2D25D05B1B0020202764085208A24240EB000028BF121B7F1E04D005
:205E6C00002A18BF5200F4D1B84010F0004F04BF4000B3F1010380302CBF5B1C40007F3308
:205E8C00DCBF0020FCBDFF2B04D2400A40EAC3503043FCBDFF27FF0556EA0700FCBD7047EE
:205EAC0000B5ADF1140D009005F0A8F9019005F0D3F88DF810009DF8100018B19DF8100043
:205ECC00012802D16FF004002CE004F087FD029000200390039807281FD20399880000EBC4
:205EEC00C1001149085AC0B10399880000EBC1000E49085801680198884208D1BDF80C00BB
:205F0C0000998880029804F01FFC00200AE00398401C039003980728DFD3029804F014FC7D
:205F2C006FF0040005B000BDD4290020D829002008B58DF801108DF800001A4805F0C6F855
:205F4C001749164A0968B2FBF1F105F04FF908B9002022E09DF801001349087013489DF8FB
:205F6C0000100078884217D09DF800000F4908700F48006804F09CFF0E4804F093FE0B48FB
:205F8C000078012802D10D480B4908600949002003F0D2FD06490860012008BDA0252600B4
:205FAC00BCB50000682D0020A82E0020A62E00207C2E0020F82D0020042E00201EB4000092
:205FCC000EB5009000980079E0B104F007FD01901C480078FF2805D1019804F0B5FB6FF0C2
:205FEC0006002EE017490878401C087015480078012803D11448006802F0E4FA019804F0DA
:20600C00A3FB1DE004F0EAFC01900E48007828B9019804F099FB6FF0070012E00949087874
:20602C00401E08700748007838B9019804F08CFB0548006802F0A2FA02E0019804F084FB81
:20604C0000200EBDB8340020BC34002038B5042003F029FF1A4C022818BF03281FD103205C
:20606C000090164800214FF040521C2301F074FD17480068EFF3118380F3118815480421C8
:20608C00B1FA81F1401AC17F4A1E0129C27703D1206820F00400206083F3118838BD094D28
:2060AC000A48094A296803686018B2FBF3F105F091F82868201805F089F838BD00A00C408D
:2060CC0090310020A4B50000A0860100BCB50000B8B50000C32E002010B51A481A49007862
:2060EC00086820F0030040F00100086002F09BFE01F084FC0021154C154821600068C0688C
:20610C000146022088471349134A086820F0010008601068D4F8EC1FEFF3118480F31188C7
:20612C000E4B0F481A680421B1FA81F1401A42F00402C17F1A60491CC17784F311884FF0A7
:20614C00FF3010BD9E2E00200440034040100940A00100108C210840B8B500009031002037
:20616C00C32E0020F8B505461E480068EFF3118780F311881C4C20684FF0805640F0800001
:20618C002060D6F88C014068014601208847D6F8B001006A014614208847286906F5C6753F
:2061AC00810C14BF010C04212868406A024601209047D6F884010068232102460020904789
:2061CC002868C069014601208847206820F4C02040F480302060206840F00100206087F330
:2061EC001188F8BDB8B500000020094000B5ADF1140D009005F002F80190019800F006FF5D
:20620C00029004F029FF8DF810009DF8100018B19DF81000012802D16FF0040026E002981D
:20622C0010B96FF0040021E00098406810B90020039012E000984068B0F1FF3F03D14FF045
:20624C00FF30039009E00098406803A900F0ACFE0490049808B1049808E0029803994068B6
:20626C0004F0C4FF08B1002000E0012005B000BD41F2A00010B5C5F20000D0F87812036803
:20628C000A0F03F0FF03802B28BF0023D0F878024BF69A11C0F30F344FF0FF30A14213D0D7
:2062AC002431A14207D04BF62031A1421DD1E2B90A3358B210BD12B1921E02D010BD0A2075
:2062CC0010BD143358B210BD521E0DD0921E04D0121F04D0521E04D010BD142010BD1520AA
:2062EC0010BD163358B210BD0A2010BD0EB5009000984AF2104181420AD21848184902F0E4
:20630C00CDF900984AF21041401A164908601FE003F028F803F06AFE01460E4800F0A0F8D3
:20632C000D49FFF773FD019000994FF47A704843A0F57A7003F05AFE0199FDF753FE03F017
:20634C00F7F90146054802F0A9F90649002008600EBDC0460000FA440000804F8C2C00208C
:20636C0080DE8002902E002000B5ADF1140D009000988068039000984068029018480068A2
:20638C0003F010FE0398006804F040FD0398006803F052FF03F010FD0398007AFEF7AEFAC3
:2063AC000298103004F0EAFE02982C3004F0E2FE0298007818B90298483004F0DBFE0298F5
:2063CC00843004F0AFF904F021FF01900299002081F89800019804F015FF05B000BDC046D7
:2063EC00702E002000B5ADF1140D009001208DF8040027E00098FAF783FE8DF8040027E084
:20640C000098029002984079132821D102980830039003980088012809D10F480078022842
:20642C0005D10E4804F0A6FC03F000F910E0052002F05CF8ADF810000848BDF8101002F07B
:20644C002DF905E000980078A238D9D02E38D1D09DF8040005B000BD82310020682C0020F9
:20646C00FCB590EA01064CBF4FF0004600264FEA00224FEA40031B0E12BF42F000420020C3
:20648C00FCBDFF2B24D04FEA01244FEA41052D0E12BF44F000440020FCBDFF2D18D05B1957
:2064AC00A2FB0454002C5CBF64005B1E803424BF5B1C64087E3BDCBF0020FCBDFF2B07D20D
:2064CC004FEA142030F4000040EAC3503043FCBDFF27FF0546EA0700FCBD002213460A46D1
:2064EC00194671B510F0030F0BD0002A82BF00F8011BB2F1010210F0030FF6D1002A08BF2F
:20650C0071BD11F0FF0141EA0121042A18D341EA0141082A0FD30E46102A08D30C460D464B
:20652C00B2F10F0312F00F0272C0103BFCD812F0080F18BF42C012F0040F18BF40F8041B01
:20654C0012F0020F18BF20F8021B12F0010F18BF017071BD00B5ADF11C0D04928DF80D10D4
:20656C008DF80C0000208DF814001EE09DF80D00142812DC049911481422FFF735FA082082
:20658C000090FF2001900F480C4902900C480E4B00680022FEF702F80CE018208DF814008E
:2065AC0008E002208DF8140004E09DF80C000028DCD0F6E79DF8140007B000BD9C2D0020F0
:2065CC00602E0020C15B00009C30002000B5ADF1240D684604F0E1FA01208DF818001248E0
:2065EC0001216A4604F01AFE104801684FF44070884701F0ABF90E4804F054FB0D49012089
:20660C0008700B49002003F097FA0B4908600B49FF2008700A49002008700748006808B9F4
:20662C0004F0A4FD09B000BD682D002078000010F82D0020002E00207C2E0020A82E0020B3
:20664C00A62E002000B5ADF11C0D8DF80C3002920191ADF80000BDF80000019B102102228C
:20666C0001F0A8FD0490049810BB00200590029805A903F0F1FB04900498C8B9059840789B
:20668C008DF818009DF8180060B905999DF80C00C979884206D1059881689DF80C20089882
:2066AC00FFF7A2F9059803F0BFFA9DF8180002E0049803F015FA07B000BD00000EB50191FE
:2066CC00ADF80000BDF800004FF6FF7181421DD100208DF8080012E09DF8080001994FF6D3
:2066EC00FF7221F820209DF80810019800EB8100002181709DF80800401C8DF808000B4827
:20670C009DF8081000788842E6DC0EE0BDF80000019901F03DFC0290029830B102984FF669
:20672C00FF7101800298002181700EBDA72E002010B5ADF1200D029002984068039002985F
:20674C00806804900498006804F069F9049800680F2104F0A5F804980068032104F071FB0A
